{
  "_format": "hh-sol-artifact-1",
  "contractName": "EducationDAO",
  "sourceName": "contracts/EducationDAO.sol",
  "abi": [
    {
      "inputs": [
        {
          "internalType": "uint256",
          "name": "_memberFee",
          "type": "uint256"
        }
      ],
      "stateMutability": "nonpayable",
      "type": "constructor"
    },
    {
      "anonymous": false,
      "inputs": [
        {
          "indexed": true,
          "internalType": "bytes32",
          "name": "role",
          "type": "bytes32"
        },
        {
          "indexed": true,
          "internalType": "bytes32",
          "name": "previousAdminRole",
          "type": "bytes32"
        },
        {
          "indexed": true,
          "internalType": "bytes32",
          "name": "newAdminRole",
          "type": "bytes32"
        }
      ],
      "name": "RoleAdminChanged",
      "type": "event"
    },
    {
      "anonymous": false,
      "inputs": [
        {
          "indexed": true,
          "internalType": "bytes32",
          "name": "role",
          "type": "bytes32"
        },
        {
          "indexed": true,
          "internalType": "address",
          "name": "account",
          "type": "address"
        },
        {
          "indexed": true,
          "internalType": "address",
          "name": "sender",
          "type": "address"
        }
      ],
      "name": "RoleGranted",
      "type": "event"
    },
    {
      "anonymous": false,
      "inputs": [
        {
          "indexed": true,
          "internalType": "bytes32",
          "name": "role",
          "type": "bytes32"
        },
        {
          "indexed": true,
          "internalType": "address",
          "name": "account",
          "type": "address"
        },
        {
          "indexed": true,
          "internalType": "address",
          "name": "sender",
          "type": "address"
        }
      ],
      "name": "RoleRevoked",
      "type": "event"
    },
    {
      "stateMutability": "payable",
      "type": "fallback"
    },
    {
      "inputs": [],
      "name": "DEFAULT_ADMIN_ROLE",
      "outputs": [
        {
          "internalType": "bytes32",
          "name": "",
          "type": "bytes32"
        }
      ],
      "stateMutability": "view",
      "type": "function"
    },
    {
      "inputs": [],
      "name": "INSTRUCTOR_ROLE",
      "outputs": [
        {
          "internalType": "bytes32",
          "name": "",
          "type": "bytes32"
        }
      ],
      "stateMutability": "view",
      "type": "function"
    },
    {
      "inputs": [],
      "name": "MEMBER_ROLE",
      "outputs": [
        {
          "internalType": "bytes32",
          "name": "",
          "type": "bytes32"
        }
      ],
      "stateMutability": "view",
      "type": "function"
    },
    {
      "inputs": [],
      "name": "STUDENT_ROLE",
      "outputs": [
        {
          "internalType": "bytes32",
          "name": "",
          "type": "bytes32"
        }
      ],
      "stateMutability": "view",
      "type": "function"
    },
    {
      "inputs": [
        {
          "internalType": "address",
          "name": "instAddress",
          "type": "address"
        }
      ],
      "name": "addInstructor",
      "outputs": [],
      "stateMutability": "nonpayable",
      "type": "function"
    },
    {
      "inputs": [
        {
          "internalType": "uint256",
          "name": "",
          "type": "uint256"
        }
      ],
      "name": "classBalances",
      "outputs": [
        {
          "internalType": "uint256",
          "name": "",
          "type": "uint256"
        }
      ],
      "stateMutability": "view",
      "type": "function"
    },
    {
      "inputs": [],
      "name": "classCount",
      "outputs": [
        {
          "internalType": "uint256",
          "name": "",
          "type": "uint256"
        }
      ],
      "stateMutability": "view",
      "type": "function"
    },
    {
      "inputs": [
        {
          "internalType": "address",
          "name": "",
          "type": "address"
        },
        {
          "internalType": "uint256",
          "name": "",
          "type": "uint256"
        }
      ],
      "name": "classReviews",
      "outputs": [
        {
          "internalType": "bool",
          "name": "",
          "type": "bool"
        }
      ],
      "stateMutability": "view",
      "type": "function"
    },
    {
      "inputs": [
        {
          "internalType": "uint256",
          "name": "",
          "type": "uint256"
        }
      ],
      "name": "classes",
      "outputs": [
        {
          "internalType": "uint256",
          "name": "id",
          "type": "uint256"
        },
        {
          "internalType": "string",
          "name": "name",
          "type": "string"
        },
        {
          "internalType": "address payable",
          "name": "instructor",
          "type": "address"
        },
        {
          "internalType": "bool",
          "name": "started",
          "type": "bool"
        },
        {
          "internalType": "bool",
          "name": "ended",
          "type": "bool"
        },
        {
          "internalType": "uint256",
          "name": "minNumberOfStudents",
          "type": "uint256"
        },
        {
          "internalType": "uint256",
          "name": "maxNumberOfStudents",
          "type": "uint256"
        },
        {
          "internalType": "uint256",
          "name": "currentNumberOfStudents",
          "type": "uint256"
        },
        {
          "internalType": "uint256",
          "name": "price",
          "type": "uint256"
        },
        {
          "internalType": "uint256",
          "name": "reviewScore",
          "type": "uint256"
        },
        {
          "internalType": "uint256",
          "name": "numberOfReviews",
          "type": "uint256"
        }
      ],
      "stateMutability": "view",
      "type": "function"
    },
    {
      "inputs": [
        {
          "internalType": "string",
          "name": "className",
          "type": "string"
        },
        {
          "internalType": "address payable",
          "name": "_instructor",
          "type": "address"
        },
        {
          "internalType": "uint256",
          "name": "_minNumberOfStudents",
          "type": "uint256"
        },
        {
          "internalType": "uint256",
          "name": "_maxNumberOfStudents",
          "type": "uint256"
        },
        {
          "internalType": "uint256",
          "name": "_price",
          "type": "uint256"
        }
      ],
      "name": "createClass",
      "outputs": [],
      "stateMutability": "nonpayable",
      "type": "function"
    },
    {
      "inputs": [
        {
          "internalType": "string",
          "name": "_name",
          "type": "string"
        },
        {
          "internalType": "string",
          "name": "_data",
          "type": "string"
        },
        {
          "internalType": "uint256",
          "name": "_price",
          "type": "uint256"
        },
        {
          "internalType": "uint256",
          "name": "_minNumberOfStudents",
          "type": "uint256"
        },
        {
          "internalType": "uint256",
          "name": "_maxNumberOfStudents",
          "type": "uint256"
        }
      ],
      "name": "createProposal",
      "outputs": [],
      "stateMutability": "nonpayable",
      "type": "function"
    },
    {
      "inputs": [
        {
          "internalType": "address",
          "name": "_address",
          "type": "address"
        },
        {
          "internalType": "uint256",
          "name": "_proposalId",
          "type": "uint256"
        }
      ],
      "name": "didThisAddressVote",
      "outputs": [
        {
          "internalType": "bool",
          "name": "",
          "type": "bool"
        }
      ],
      "stateMutability": "view",
      "type": "function"
    },
    {
      "inputs": [
        {
          "internalType": "uint256",
          "name": "classId",
          "type": "uint256"
        }
      ],
      "name": "endClass",
      "outputs": [],
      "stateMutability": "nonpayable",
      "type": "function"
    },
    {
      "inputs": [],
      "name": "getAllClasses",
      "outputs": [
        {
          "components": [
            {
              "internalType": "uint256",
              "name": "id",
              "type": "uint256"
            },
            {
              "internalType": "string",
              "name": "name",
              "type": "string"
            },
            {
              "internalType": "address payable",
              "name": "instructor",
              "type": "address"
            },
            {
              "internalType": "bool",
              "name": "started",
              "type": "bool"
            },
            {
              "internalType": "bool",
              "name": "ended",
              "type": "bool"
            },
            {
              "internalType": "uint256",
              "name": "minNumberOfStudents",
              "type": "uint256"
            },
            {
              "internalType": "uint256",
              "name": "maxNumberOfStudents",
              "type": "uint256"
            },
            {
              "internalType": "uint256",
              "name": "currentNumberOfStudents",
              "type": "uint256"
            },
            {
              "internalType": "uint256",
              "name": "price",
              "type": "uint256"
            },
            {
              "internalType": "uint256",
              "name": "reviewScore",
              "type": "uint256"
            },
            {
              "internalType": "uint256",
              "name": "numberOfReviews",
              "type": "uint256"
            }
          ],
          "internalType": "struct EducationDAO.Class[]",
          "name": "",
          "type": "tuple[]"
        }
      ],
      "stateMutability": "view",
      "type": "function"
    },
    {
      "inputs": [],
      "name": "getAllProposals",
      "outputs": [
        {
          "components": [
            {
              "internalType": "uint256",
              "name": "id",
              "type": "uint256"
            },
            {
              "internalType": "string",
              "name": "name",
              "type": "string"
            },
            {
              "internalType": "address",
              "name": "instructor",
              "type": "address"
            },
            {
              "internalType": "uint256",
              "name": "voteCount",
              "type": "uint256"
            },
            {
              "internalType": "uint256",
              "name": "end",
              "type": "uint256"
            },
            {
              "internalType": "uint256",
              "name": "price",
              "type": "uint256"
            },
            {
              "internalType": "uint256",
              "name": "minimumVotes",
              "type": "uint256"
            },
            {
              "internalType": "uint256",
              "name": "maxNumberOfStudents",
              "type": "uint256"
            },
            {
              "internalType": "bool",
              "name": "executed",
              "type": "bool"
            }
          ],
          "internalType": "struct EducationDAO.TrainingProposal[]",
          "name": "",
          "type": "tuple[]"
        }
      ],
      "stateMutability": "view",
      "type": "function"
    },
    {
      "inputs": [
        {
          "internalType": "uint256",
          "name": "_classId",
          "type": "uint256"
        }
      ],
      "name": "getClass",
      "outputs": [
        {
          "components": [
            {
              "internalType": "uint256",
              "name": "id",
              "type": "uint256"
            },
            {
              "internalType": "string",
              "name": "name",
              "type": "string"
            },
            {
              "internalType": "address payable",
              "name": "instructor",
              "type": "address"
            },
            {
              "internalType": "bool",
              "name": "started",
              "type": "bool"
            },
            {
              "internalType": "bool",
              "name": "ended",
              "type": "bool"
            },
            {
              "internalType": "uint256",
              "name": "minNumberOfStudents",
              "type": "uint256"
            },
            {
              "internalType": "uint256",
              "name": "maxNumberOfStudents",
              "type": "uint256"
            },
            {
              "internalType": "uint256",
              "name": "currentNumberOfStudents",
              "type": "uint256"
            },
            {
              "internalType": "uint256",
              "name": "price",
              "type": "uint256"
            },
            {
              "internalType": "uint256",
              "name": "reviewScore",
              "type": "uint256"
            },
            {
              "internalType": "uint256",
              "name": "numberOfReviews",
              "type": "uint256"
            }
          ],
          "internalType": "struct EducationDAO.Class",
          "name": "",
          "type": "tuple"
        }
      ],
      "stateMutability": "view",
      "type": "function"
    },
    {
      "inputs": [
        {
          "internalType": "uint256",
          "name": "_classId",
          "type": "uint256"
        }
      ],
      "name": "getClassBalance",
      "outputs": [
        {
          "internalType": "uint256",
          "name": "",
          "type": "uint256"
        }
      ],
      "stateMutability": "view",
      "type": "function"
    },
    {
      "inputs": [
        {
          "internalType": "address",
          "name": "_member",
          "type": "address"
        }
      ],
      "name": "getClassesForStudent",
      "outputs": [
        {
          "components": [
            {
              "internalType": "uint256",
              "name": "id",
              "type": "uint256"
            },
            {
              "internalType": "string",
              "name": "name",
              "type": "string"
            },
            {
              "internalType": "address payable",
              "name": "instructor",
              "type": "address"
            },
            {
              "internalType": "bool",
              "name": "started",
              "type": "bool"
            },
            {
              "internalType": "bool",
              "name": "ended",
              "type": "bool"
            },
            {
              "internalType": "uint256",
              "name": "minNumberOfStudents",
              "type": "uint256"
            },
            {
              "internalType": "uint256",
              "name": "maxNumberOfStudents",
              "type": "uint256"
            },
            {
              "internalType": "uint256",
              "name": "currentNumberOfStudents",
              "type": "uint256"
            },
            {
              "internalType": "uint256",
              "name": "price",
              "type": "uint256"
            },
            {
              "internalType": "uint256",
              "name": "reviewScore",
              "type": "uint256"
            },
            {
              "internalType": "uint256",
              "name": "numberOfReviews",
              "type": "uint256"
            }
          ],
          "internalType": "struct EducationDAO.Class[]",
          "name": "",
          "type": "tuple[]"
        }
      ],
      "stateMutability": "view",
      "type": "function"
    },
    {
      "inputs": [
        {
          "internalType": "uint256",
          "name": "classId",
          "type": "uint256"
        }
      ],
      "name": "getPaid",
      "outputs": [],
      "stateMutability": "nonpayable",
      "type": "function"
    },
    {
      "inputs": [],
      "name": "getRefund",
      "outputs": [],
      "stateMutability": "nonpayable",
      "type": "function"
    },
    {
      "inputs": [
        {
          "internalType": "bytes32",
          "name": "role",
          "type": "bytes32"
        }
      ],
      "name": "getRoleAdmin",
      "outputs": [
        {
          "internalType": "bytes32",
          "name": "",
          "type": "bytes32"
        }
      ],
      "stateMutability": "view",
      "type": "function"
    },
    {
      "inputs": [
        {
          "internalType": "address",
          "name": "_student",
          "type": "address"
        }
      ],
      "name": "getStudentBalance",
      "outputs": [
        {
          "internalType": "uint256",
          "name": "",
          "type": "uint256"
        }
      ],
      "stateMutability": "view",
      "type": "function"
    },
    {
      "inputs": [
        {
          "internalType": "bytes32",
          "name": "role",
          "type": "bytes32"
        },
        {
          "internalType": "address",
          "name": "account",
          "type": "address"
        }
      ],
      "name": "grantRole",
      "outputs": [],
      "stateMutability": "nonpayable",
      "type": "function"
    },
    {
      "inputs": [
        {
          "internalType": "bytes32",
          "name": "role",
          "type": "bytes32"
        },
        {
          "internalType": "address",
          "name": "account",
          "type": "address"
        }
      ],
      "name": "hasRole",
      "outputs": [
        {
          "internalType": "bool",
          "name": "",
          "type": "bool"
        }
      ],
      "stateMutability": "view",
      "type": "function"
    },
    {
      "inputs": [
        {
          "internalType": "address",
          "name": "_member",
          "type": "address"
        },
        {
          "internalType": "uint256",
          "name": "classId",
          "type": "uint256"
        }
      ],
      "name": "isMemberEnrolledInClass",
      "outputs": [
        {
          "internalType": "bool",
          "name": "",
          "type": "bool"
        }
      ],
      "stateMutability": "view",
      "type": "function"
    },
    {
      "inputs": [
        {
          "internalType": "uint256",
          "name": "classId",
          "type": "uint256"
        }
      ],
      "name": "joinClass",
      "outputs": [],
      "stateMutability": "payable",
      "type": "function"
    },
    {
      "inputs": [],
      "name": "joinDAO",
      "outputs": [],
      "stateMutability": "payable",
      "type": "function"
    },
    {
      "inputs": [],
      "name": "memberCount",
      "outputs": [
        {
          "internalType": "uint256",
          "name": "",
          "type": "uint256"
        }
      ],
      "stateMutability": "view",
      "type": "function"
    },
    {
      "inputs": [],
      "name": "memberFee",
      "outputs": [
        {
          "internalType": "uint256",
          "name": "",
          "type": "uint256"
        }
      ],
      "stateMutability": "view",
      "type": "function"
    },
    {
      "inputs": [],
      "name": "nextProposalId",
      "outputs": [
        {
          "internalType": "uint256",
          "name": "",
          "type": "uint256"
        }
      ],
      "stateMutability": "view",
      "type": "function"
    },
    {
      "inputs": [
        {
          "internalType": "uint256",
          "name": "",
          "type": "uint256"
        }
      ],
      "name": "proposals",
      "outputs": [
        {
          "internalType": "uint256",
          "name": "id",
          "type": "uint256"
        },
        {
          "internalType": "string",
          "name": "name",
          "type": "string"
        },
        {
          "internalType": "address",
          "name": "instructor",
          "type": "address"
        },
        {
          "internalType": "uint256",
          "name": "voteCount",
          "type": "uint256"
        },
        {
          "internalType": "uint256",
          "name": "end",
          "type": "uint256"
        },
        {
          "internalType": "uint256",
          "name": "price",
          "type": "uint256"
        },
        {
          "internalType": "uint256",
          "name": "minimumVotes",
          "type": "uint256"
        },
        {
          "internalType": "uint256",
          "name": "maxNumberOfStudents",
          "type": "uint256"
        },
        {
          "internalType": "bool",
          "name": "executed",
          "type": "bool"
        }
      ],
      "stateMutability": "view",
      "type": "function"
    },
    {
      "inputs": [
        {
          "internalType": "uint256",
          "name": "classId",
          "type": "uint256"
        },
        {
          "internalType": "uint256",
          "name": "_score",
          "type": "uint256"
        }
      ],
      "name": "rateClass",
      "outputs": [],
      "stateMutability": "nonpayable",
      "type": "function"
    },
    {
      "inputs": [
        {
          "internalType": "bytes32",
          "name": "role",
          "type": "bytes32"
        },
        {
          "internalType": "address",
          "name": "account",
          "type": "address"
        }
      ],
      "name": "renounceRole",
      "outputs": [],
      "stateMutability": "nonpayable",
      "type": "function"
    },
    {
      "inputs": [
        {
          "internalType": "bytes32",
          "name": "role",
          "type": "bytes32"
        },
        {
          "internalType": "address",
          "name": "account",
          "type": "address"
        }
      ],
      "name": "revokeRole",
      "outputs": [],
      "stateMutability": "nonpayable",
      "type": "function"
    },
    {
      "inputs": [
        {
          "internalType": "uint256",
          "name": "newMemberFee",
          "type": "uint256"
        }
      ],
      "name": "setMemberFee",
      "outputs": [],
      "stateMutability": "nonpayable",
      "type": "function"
    },
    {
      "inputs": [
        {
          "internalType": "uint256",
          "name": "classId",
          "type": "uint256"
        }
      ],
      "name": "startClass",
      "outputs": [],
      "stateMutability": "nonpayable",
      "type": "function"
    },
    {
      "inputs": [
        {
          "internalType": "bytes4",
          "name": "interfaceId",
          "type": "bytes4"
        }
      ],
      "name": "supportsInterface",
      "outputs": [
        {
          "internalType": "bool",
          "name": "",
          "type": "bool"
        }
      ],
      "stateMutability": "view",
      "type": "function"
    },
    {
      "inputs": [
        {
          "internalType": "uint256",
          "name": "proposalId",
          "type": "uint256"
        }
      ],
      "name": "vote",
      "outputs": [],
      "stateMutability": "nonpayable",
      "type": "function"
    },
    {
      "inputs": [],
      "name": "voteTime",
      "outputs": [
        {
          "internalType": "uint256",
          "name": "",
          "type": "uint256"
        }
      ],
      "stateMutability": "view",
      "type": "function"
    },
    {
      "inputs": [
        {
          "internalType": "uint256",
          "name": "classId",
          "type": "uint256"
        }
      ],
      "name": "withdrawFromClass",
      "outputs": [],
      "stateMutability": "nonpayable",
      "type": "function"
    },
    {
      "stateMutability": "payable",
      "type": "receive"
    }
  ],
  "bytecode": "0x60806040523480156200001157600080fd5b50604051620059b5380380620059b5833981810160405281019062000037919062000265565b33600960006101000a81548173ffffffffffffffffffffffffffffffffffffffff021916908373ffffffffffffffffffffffffffffffffffffffff1602179055506200008d6000801b30620000ac60201b60201c565b80600b819055506000600c81905550610e10600f819055505062000297565b620000be8282620000c260201b60201c565b5050565b620000d48282620001b360201b60201c565b620001af57600160008084815260200190815260200160002060000160008373ffffffffffffffffffffffffffffffffffffffff1673ffffffffffffffffffffffffffffffffffffffff16815260200190815260200160002060006101000a81548160ff021916908315150217905550620001546200021d60201b60201c565b73ffffffffffffffffffffffffffffffffffffffff168173ffffffffffffffffffffffffffffffffffffffff16837f2f8788117e7eff1d82e926ec794901d17c78024a50270940304540a733656f0d60405160405180910390a45b5050565b600080600084815260200190815260200160002060000160008373ffffffffffffffffffffffffffffffffffffffff1673ffffffffffffffffffffffffffffffffffffffff16815260200190815260200160002060009054906101000a900460ff16905092915050565b600033905090565b600080fd5b6000819050919050565b6200023f816200022a565b81146200024b57600080fd5b50565b6000815190506200025f8162000234565b92915050565b6000602082840312156200027e576200027d62000225565b5b60006200028e848285016200024e565b91505092915050565b61570e80620002a76000396000f3fe60806040526004361061023f5760003560e01c806391d148541161012e578063cceb68f5116100ab578063eda47aeb1161006f578063eda47aeb14610944578063f63d13d714610981578063f7be43fb1461098b578063fc063f88146109b6578063fce3f379146109df57610285565b8063cceb68f51461085f578063d30988831461088a578063d547741f146108b5578063de8c7907146108de578063ec5f59f71461090757610285565b8063af70377c116100f2578063af70377c146107af578063b2d5ae44146107cb578063b3a6da75146107e2578063b9399e131461080b578063bcf93dd61461083457610285565b806391d14854146106c85780639a9a3ed914610705578063a10f469e1461072e578063a217fddf14610759578063ab9963171461078457610285565b80632f2ff15d116101bc5780635a5945d1116101805780635a5945d1146105c55780635f6fe4fd146106025780636bda75dd1461062b578063817dbe9f146106565780638bcf979c1461069d57610285565b80632f2ff15d146104d057806333423c06146104f957806336568abe1461052257806349dd4bd71461054b578063512d62df1461058857610285565b806311aee3801161020357806311aee380146103eb5780631f8e113414610416578063248a9ca31461043f5780632a92362c1461047c5780632ab09d14146104a557610285565b80630121b93f146102c6578063013cf08b146102ef57806301ffc9a71461033457806308b9ddd8146103715780630a7e8932146103ae57610285565b36610285576102836040518060400160405280600e81526020017f2d2d2d2d2d20726563656976653a00000000000000000000000000000000000081525034610a1c565b005b6102c46040518060400160405280600f81526020017f2d2d2d2d2d2066616c6c6261636b3a000000000000000000000000000000000081525034610a1c565b005b3480156102d257600080fd5b506102ed60048036038101906102e8919061391f565b610ab8565b005b3480156102fb57600080fd5b506103166004803603810190610311919061391f565b610d47565b60405161032b99989796959493929190613a50565b60405180910390f35b34801561034057600080fd5b5061035b60048036038101906103569190613b3c565b610e4a565b6040516103689190613b69565b60405180910390f35b34801561037d57600080fd5b5061039860048036038101906103939190613bb0565b610ec4565b6040516103a59190613bdd565b60405180910390f35b3480156103ba57600080fd5b506103d560048036038101906103d0919061391f565b610f0d565b6040516103e29190613bdd565b60405180910390f35b3480156103f757600080fd5b50610400610f2a565b60405161040d9190613bdd565b60405180910390f35b34801561042257600080fd5b5061043d6004803603810190610438919061391f565b610f30565b005b34801561044b57600080fd5b5061046660048036038101906104619190613c2e565b611164565b6040516104739190613c6a565b60405180910390f35b34801561048857600080fd5b506104a3600480360381019061049e919061391f565b611183565b005b3480156104b157600080fd5b506104ba61147d565b6040516104c79190613bdd565b60405180910390f35b3480156104dc57600080fd5b506104f760048036038101906104f29190613c85565b611483565b005b34801561050557600080fd5b50610520600480360381019061051b9190613dfa565b6114a4565b005b34801561052e57600080fd5b5061054960048036038101906105449190613c85565b61169b565b005b34801561055757600080fd5b50610572600480360381019061056d9190613ead565b61171e565b60405161057f9190613b69565b60405180910390f35b34801561059457600080fd5b506105af60048036038101906105aa919061391f565b611789565b6040516105bc9190614065565b60405180910390f35b3480156105d157600080fd5b506105ec60048036038101906105e79190613bb0565b61191b565b6040516105f99190614238565b60405180910390f35b34801561060e57600080fd5b506106296004803603810190610624919061391f565b611aa3565b005b34801561063757600080fd5b50610640611abb565b60405161064d9190614238565b60405180910390f35b34801561066257600080fd5b5061067d6004803603810190610678919061391f565b611cec565b6040516106949b9a99989796959493929190614269565b60405180910390f35b3480156106a957600080fd5b506106b2611e08565b6040516106bf9190613c6a565b60405180910390f35b3480156106d457600080fd5b506106ef60048036038101906106ea9190613c85565b611e2c565b6040516106fc9190613b69565b60405180910390f35b34801561071157600080fd5b5061072c6004803603810190610727919061391f565b611e96565b005b34801561073a57600080fd5b50610743612055565b6040516107509190613c6a565b60405180910390f35b34801561076557600080fd5b5061076e612079565b60405161077b9190613c6a565b60405180910390f35b34801561079057600080fd5b50610799612080565b6040516107a69190613bdd565b60405180910390f35b6107c960048036038101906107c4919061391f565b612086565b005b3480156107d757600080fd5b506107e0612439565b005b3480156107ee57600080fd5b506108096004803603810190610804919061431b565b6125e0565b005b34801561081757600080fd5b50610832600480360381019061082d9190613bb0565b612926565b005b34801561084057600080fd5b50610849612937565b6040516108569190613bdd565b60405180910390f35b34801561086b57600080fd5b5061087461293d565b60405161088191906144f1565b60405180910390f35b34801561089657600080fd5b5061089f612b3d565b6040516108ac9190613bdd565b60405180910390f35b3480156108c157600080fd5b506108dc60048036038101906108d79190613c85565b612b43565b005b3480156108ea57600080fd5b506109056004803603810190610900919061453f565b612b64565b005b34801561091357600080fd5b5061092e60048036038101906109299190613ead565b612cf4565b60405161093b9190613b69565b60405180910390f35b34801561095057600080fd5b5061096b6004803603810190610966919061391f565b612d23565b6040516109789190613bdd565b60405180910390f35b610989612d3b565b005b34801561099757600080fd5b506109a0612eb7565b6040516109ad9190613c6a565b60405180910390f35b3480156109c257600080fd5b506109dd60048036038101906109d8919061391f565b612edb565b005b3480156109eb57600080fd5b50610a066004803603810190610a019190613ead565b61317d565b604051610a139190613b69565b60405180910390f35b610ab48282604051602401610a329291906145d6565b6040516020818303038152906040527f9710a9d0000000000000000000000000000000000000000000000000000000007bffffffffffffffffffffffffffffffffffffffffffffffffffffffff19166020820180517bffffffffffffffffffffffffffffffffffffffffffffffffffffffff83818316178352505050506131e5565b5050565b7f829b824e2329e205435d941c9f13baf578548505283d29261236d8e6596d4636610ae28161320e565b600060016000848152602001908152602001600020905060001515600260003373ffffffffffffffffffffffffffffffffffffffff1673ffffffffffffffffffffffffffffffffffffffff168152602001908152602001600020600085815260200190815260200160002060009054906101000a900460ff16151514610b9d576040517f08c379a0000000000000000000000000000000000000000000000000000000008152600401610b9490614678565b60405180910390fd5b80600401544210610be3576040517f08c379a0000000000000000000000000000000000000000000000000000000008152600401610bda906146e4565b60405180910390fd5b6001600260003373ffffffffffffffffffffffffffffffffffffffff1673ffffffffffffffffffffffffffffffffffffffff168152602001908152602001600020600085815260200190815260200160002060006101000a81548160ff0219169083151502179055506001816003016000828254610c619190614733565b92505081905550806006015481600301541415610d4257610d41816001018054610c8a906147b8565b80601f0160208091040260200160405190810160405280929190818152602001828054610cb6906147b8565b8015610d035780601f10610cd857610100808354040283529160200191610d03565b820191906000526020600020905b815481529060010190602001808311610ce657829003601f168201915b50505050508260020160009054906101000a900473ffffffffffffffffffffffffffffffffffffffff16836006015484600701548560050154612b64565b5b505050565b6001602052806000526040600020600091509050806000015490806001018054610d70906147b8565b80601f0160208091040260200160405190810160405280929190818152602001828054610d9c906147b8565b8015610de95780601f10610dbe57610100808354040283529160200191610de9565b820191906000526020600020905b815481529060010190602001808311610dcc57829003601f168201915b5050505050908060020160009054906101000a900473ffffffffffffffffffffffffffffffffffffffff16908060030154908060040154908060050154908060060154908060070154908060080160009054906101000a900460ff16905089565b60007f7965db0b000000000000000000000000000000000000000000000000000000007bffffffffffffffffffffffffffffffffffffffffffffffffffffffff1916827bffffffffffffffffffffffffffffffffffffffffffffffffffffffff19161480610ebd5750610ebc82613222565b5b9050919050565b6000600660008373ffffffffffffffffffffffffffffffffffffffff1673ffffffffffffffffffffffffffffffffffffffff168152602001908152602001600020549050919050565b600060056000838152602001908152602001600020549050919050565b600c5481565b7f829b824e2329e205435d941c9f13baf578548505283d29261236d8e6596d4636610f5a8161320e565b8160006003600083815260200190815260200160002090508060020160009054906101000a900473ffffffffffffffffffffffffffffffffffffffff1673ffffffffffffffffffffffffffffffffffffffff163373ffffffffffffffffffffffffffffffffffffffff1614611004576040517f08c379a0000000000000000000000000000000000000000000000000000000008152600401610ffb9061485c565b60405180910390fd5b6000600360008681526020019081526020016000209050600015158160020160149054906101000a900460ff16151514611073576040517f08c379a000000000000000000000000000000000000000000000000000000000815260040161106a906148c8565b60405180910390fd5b600015158160020160159054906101000a900460ff161515146110cb576040517f08c379a00000000000000000000000000000000000000000000000000000000081526004016110c290614934565b60405180910390fd5b806003015481600501541015611116576040517f08c379a000000000000000000000000000000000000000000000000000000000815260040161110d906149c6565b60405180910390fd5b60018160020160146101000a81548160ff02191690831515021790555061115d7fae4a0595970935aa5495afbbb72e5f1f6ff1062766b4a3028c0c9b7d5cf7e3453361328c565b5050505050565b6000806000838152602001908152602001600020600101549050919050565b7fae4a0595970935aa5495afbbb72e5f1f6ff1062766b4a3028c0c9b7d5cf7e3456111ad8161320e565b8160006003600083815260200190815260200160002090508060020160009054906101000a900473ffffffffffffffffffffffffffffffffffffffff1673ffffffffffffffffffffffffffffffffffffffff163373ffffffffffffffffffffffffffffffffffffffff1614611257576040517f08c379a000000000000000000000000000000000000000000000000000000000815260040161124e9061485c565b60405180910390fd5b6000600360008681526020019081526020016000209050600115158160020160159054906101000a900460ff161515146112c6576040517f08c379a00000000000000000000000000000000000000000000000000000000081526004016112bd90614a32565b60405180910390fd5b600060056000878152602001908152602001600020541161131c576040517f08c379a000000000000000000000000000000000000000000000000000000000815260040161131390614a9e565b60405180910390fd5b6002816005015461132d9190614aed565b81600801541015611373576040517f08c379a000000000000000000000000000000000000000000000000000000000815260040161136a90614b90565b60405180910390fd5b6000600560008781526020019081526020016000205490506000600560008881526020019081526020016000208190555060008260020160009054906101000a900473ffffffffffffffffffffffffffffffffffffffff1673ffffffffffffffffffffffffffffffffffffffff16826040516113ee90614be1565b60006040518083038185875af1925050503d806000811461142b576040519150601f19603f3d011682016040523d82523d6000602084013e611430565b606091505b5050905080611474576040517f08c379a000000000000000000000000000000000000000000000000000000000815260040161146b90614c68565b60405180910390fd5b50505050505050565b600e5481565b61148c82611164565b6114958161320e565b61149f838361328c565b505050565b7f829b824e2329e205435d941c9f13baf578548505283d29261236d8e6596d46366114ce8161320e565b6114f87f829b824e2329e205435d941c9f13baf578548505283d29261236d8e6596d463633611e2c565b611537576040517f08c379a000000000000000000000000000000000000000000000000000000000815260040161152e90614cd4565b60405180910390fd5b6000604051806101200160405280600e5481526020018881526020013373ffffffffffffffffffffffffffffffffffffffff168152602001828152602001600f54426115839190614733565b81526020018681526020018581526020018481526020016000151581525060016000600e5481526020019081526020016000206000820151816000015560208201518160010190805190602001906115dc92919061375a565b5060408201518160020160006101000a81548173ffffffffffffffffffffffffffffffffffffffff021916908373ffffffffffffffffffffffffffffffffffffffff160217905550606082015181600301556080820151816004015560a0820151816005015560c0820151816006015560e082015181600701556101008201518160080160006101000a81548160ff021916908315150217905550905050600e600081548092919061168d90614cf4565b919050555050505050505050565b6116a361336c565b73ffffffffffffffffffffffffffffffffffffffff168173ffffffffffffffffffffffffffffffffffffffff1614611710576040517f08c379a000000000000000000000000000000000000000000000000000000000815260040161170790614daf565b60405180910390fd5b61171a8282613374565b5050565b6000600460008473ffffffffffffffffffffffffffffffffffffffff1673ffffffffffffffffffffffffffffffffffffffff168152602001908152602001600020600101600083815260200190815260200160002060009054906101000a900460ff16905092915050565b6117916137e0565b6003600083815260200190815260200160002060405180610160016040529081600082015481526020016001820180546117ca906147b8565b80601f01602080910402602001604051908101604052809291908181526020018280546117f6906147b8565b80156118435780601f1061181857610100808354040283529160200191611843565b820191906000526020600020905b81548152906001019060200180831161182657829003601f168201915b505050505081526020016002820160009054906101000a900473ffffffffffffffffffffffffffffffffffffffff1673ffffffffffffffffffffffffffffffffffffffff1673ffffffffffffffffffffffffffffffffffffffff1681526020016002820160149054906101000a900460ff161515151581526020016002820160159054906101000a900460ff1615151515815260200160038201548152602001600482015481526020016005820154815260200160068201548152602001600782015481526020016008820154815250509050919050565b60606000600860008473ffffffffffffffffffffffffffffffffffffffff1673ffffffffffffffffffffffffffffffffffffffff1681526020019081526020016000208054905067ffffffffffffffff81111561197b5761197a613ccf565b5b6040519080825280602002602001820160405280156119b457816020015b6119a16137e0565b8152602001906001900390816119995790505b50905060005b600860008573ffffffffffffffffffffffffffffffffffffffff1673ffffffffffffffffffffffffffffffffffffffff16815260200190815260200160002080549050811015611a9957611a68600860008673ffffffffffffffffffffffffffffffffffffffff1673ffffffffffffffffffffffffffffffffffffffff1681526020019081526020016000208281548110611a5857611a57614dcf565b5b9060005260206000200154611789565b828281518110611a7b57611a7a614dcf565b5b60200260200101819052508080611a9190614cf4565b9150506119ba565b5080915050919050565b6000801b611ab08161320e565b81600b819055505050565b60606000600d5467ffffffffffffffff811115611adb57611ada613ccf565b5b604051908082528060200260200182016040528015611b1457816020015b611b016137e0565b815260200190600190039081611af95790505b50905060005b600d54811015611ce45760036000600183611b359190614733565b81526020019081526020016000206040518061016001604052908160008201548152602001600182018054611b69906147b8565b80601f0160208091040260200160405190810160405280929190818152602001828054611b95906147b8565b8015611be25780601f10611bb757610100808354040283529160200191611be2565b820191906000526020600020905b815481529060010190602001808311611bc557829003601f168201915b505050505081526020016002820160009054906101000a900473ffffffffffffffffffffffffffffffffffffffff1673ffffffffffffffffffffffffffffffffffffffff1673ffffffffffffffffffffffffffffffffffffffff1681526020016002820160149054906101000a900460ff161515151581526020016002820160159054906101000a900460ff161515151581526020016003820154815260200160048201548152602001600582015481526020016006820154815260200160078201548152602001600882015481525050828281518110611cc657611cc5614dcf565b5b60200260200101819052508080611cdc90614cf4565b915050611b1a565b508091505090565b6003602052806000526040600020600091509050806000015490806001018054611d15906147b8565b80601f0160208091040260200160405190810160405280929190818152602001828054611d41906147b8565b8015611d8e5780601f10611d6357610100808354040283529160200191611d8e565b820191906000526020600020905b815481529060010190602001808311611d7157829003601f168201915b5050505050908060020160009054906101000a900473ffffffffffffffffffffffffffffffffffffffff16908060020160149054906101000a900460ff16908060020160159054906101000a900460ff1690806003015490806004015490806005015490806006015490806007015490806008015490508b565b7fae4a0595970935aa5495afbbb72e5f1f6ff1062766b4a3028c0c9b7d5cf7e34581565b600080600084815260200190815260200160002060000160008373ffffffffffffffffffffffffffffffffffffffff1673ffffffffffffffffffffffffffffffffffffffff16815260200190815260200160002060009054906101000a900460ff16905092915050565b7f829b824e2329e205435d941c9f13baf578548505283d29261236d8e6596d4636611ec08161320e565b8160006003600083815260200190815260200160002090508060020160009054906101000a900473ffffffffffffffffffffffffffffffffffffffff1673ffffffffffffffffffffffffffffffffffffffff163373ffffffffffffffffffffffffffffffffffffffff1614611f6a576040517f08c379a0000000000000000000000000000000000000000000000000000000008152600401611f619061485c565b60405180910390fd5b6000600360008681526020019081526020016000209050600115158160020160149054906101000a900460ff16151514611fd9576040517f08c379a0000000000000000000000000000000000000000000000000000000008152600401611fd090614e4a565b60405180910390fd5b600015158160020160159054906101000a900460ff16151514612031576040517f08c379a000000000000000000000000000000000000000000000000000000000815260040161202890614934565b60405180910390fd5b60018160020160156101000a81548160ff0219169083151502179055505050505050565b7f829b824e2329e205435d941c9f13baf578548505283d29261236d8e6596d463681565b6000801b81565b600d5481565b7f829b824e2329e205435d941c9f13baf578548505283d29261236d8e6596d46366120b08161320e565b6000600360008481526020019081526020016000209050600015158160020160149054906101000a900460ff1615151461211f576040517f08c379a0000000000000000000000000000000000000000000000000000000008152600401612116906148c8565b60405180910390fd5b8060060154341015612166576040517f08c379a000000000000000000000000000000000000000000000000000000000815260040161215d90614edc565b60405180910390fd5b6000151561217384613455565b1515146121b5576040517f08c379a00000000000000000000000000000000000000000000000000000000081526004016121ac90614f48565b60405180910390fd5b6121df7f36a5c4aaacb6b388bbd448bf11096b7dafc5652bcc9046084fd0e95b1fb0b2cc33611e2c565b1561235157600015156121f2338561171e565b151514612234576040517f08c379a000000000000000000000000000000000000000000000000000000000815260040161222b90614fda565b60405180910390fd5b6001600460003373ffffffffffffffffffffffffffffffffffffffff1673ffffffffffffffffffffffffffffffffffffffff168152602001908152602001600020600101600085815260200190815260200160002060006101000a81548160ff021916908315150217905550600860003373ffffffffffffffffffffffffffffffffffffffff1673ffffffffffffffffffffffffffffffffffffffff168152602001908152602001600020839080600181540180825580915050600190039060005260206000200160009091909190915055346005600085815260200190815260200160002060008282546123299190614733565b9250508190555060018160050160008282546123459190614733565b92505081905550612434565b6000600460003373ffffffffffffffffffffffffffffffffffffffff1673ffffffffffffffffffffffffffffffffffffffff1681526020019081526020016000209050600181600101600086815260200190815260200160002060006101000a81548160ff021916908315150217905550346005600086815260200190815260200160002060008282546123e59190614733565b9250508190555060018260050160008282546124019190614733565b925050819055506124327f36a5c4aaacb6b388bbd448bf11096b7dafc5652bcc9046084fd0e95b1fb0b2cc3361328c565b505b505050565b7f36a5c4aaacb6b388bbd448bf11096b7dafc5652bcc9046084fd0e95b1fb0b2cc6124638161320e565b6000600660003373ffffffffffffffffffffffffffffffffffffffff1673ffffffffffffffffffffffffffffffffffffffff168152602001908152602001600020549050600081116124ea576040517f08c379a00000000000000000000000000000000000000000000000000000000081526004016124e190615046565b60405180910390fd5b6000600660003373ffffffffffffffffffffffffffffffffffffffff1673ffffffffffffffffffffffffffffffffffffffff1681526020019081526020016000208190555060003373ffffffffffffffffffffffffffffffffffffffff168260405161255590614be1565b60006040518083038185875af1925050503d8060008114612592576040519150601f19603f3d011682016040523d82523d6000602084013e612597565b606091505b50509050806125db576040517f08c379a00000000000000000000000000000000000000000000000000000000081526004016125d2906150d8565b60405180910390fd5b505050565b7f36a5c4aaacb6b388bbd448bf11096b7dafc5652bcc9046084fd0e95b1fb0b2cc61260a8161320e565b6001821015801561261c575060058211155b61265b576040517f08c379a000000000000000000000000000000000000000000000000000000000815260040161265290615144565b60405180910390fd5b60011515612669338561171e565b1515146126ab576040517f08c379a00000000000000000000000000000000000000000000000000000000081526004016126a2906151d6565b60405180910390fd5b6000600360008581526020019081526020016000209050600115158160020160159054906101000a900460ff1615151461271a576040517f08c379a000000000000000000000000000000000000000000000000000000000815260040161271190614a32565b60405180910390fd5b60001515600760003373ffffffffffffffffffffffffffffffffffffffff1673ffffffffffffffffffffffffffffffffffffffff168152602001908152602001600020600086815260200190815260200160002060009054906101000a900460ff161515146127be576040517f08c379a00000000000000000000000000000000000000000000000000000000081526004016127b590615268565b60405180910390fd5b8060050154600182600801546127d49190614733565b1115612815576040517f08c379a000000000000000000000000000000000000000000000000000000000815260040161280c906152fa565b60405180910390fd5b60008160070154905060008260080154905060006001826128369190614733565b60646128429190614aed565b90506000816064612853919061531a565b8461285e919061534e565b90506000828861286e919061534e565b90506000606482846128809190614733565b61288a9190614aed565b905060018760080160008282546128a19190614733565b925050819055508087600701819055506001600760003373ffffffffffffffffffffffffffffffffffffffff1673ffffffffffffffffffffffffffffffffffffffff16815260200190815260200160002060008c815260200190815260200160002060006101000a81548160ff02191690831515021790555050505050505050505050565b6000801b6129338161320e565b5050565b600f5481565b60606000600e5467ffffffffffffffff81111561295d5761295c613ccf565b5b60405190808252806020026020018201604052801561299657816020015b612983613854565b81526020019060019003908161297b5790505b50905060005b600e54811015612b35576001600082815260200190815260200160002060405180610120016040529081600082015481526020016001820180546129df906147b8565b80601f0160208091040260200160405190810160405280929190818152602001828054612a0b906147b8565b8015612a585780601f10612a2d57610100808354040283529160200191612a58565b820191906000526020600020905b815481529060010190602001808311612a3b57829003601f168201915b505050505081526020016002820160009054906101000a900473ffffffffffffffffffffffffffffffffffffffff1673ffffffffffffffffffffffffffffffffffffffff1673ffffffffffffffffffffffffffffffffffffffff16815260200160038201548152602001600482015481526020016005820154815260200160068201548152602001600782015481526020016008820160009054906101000a900460ff161515151581525050828281518110612b1757612b16614dcf565b5b60200260200101819052508080612b2d90614cf4565b91505061299c565b508091505090565b600b5481565b612b4c82611164565b612b558161320e565b612b5f8383613374565b505050565b60006001600d54612b759190614733565b90506040518061016001604052808281526020018781526020018673ffffffffffffffffffffffffffffffffffffffff1681526020016000151581526020016000151581526020018581526020018481526020016000815260200183815260200160008152602001600081525060036000838152602001908152602001600020600082015181600001556020820151816001019080519060200190612c1b92919061375a565b5060408201518160020160006101000a81548173ffffffffffffffffffffffffffffffffffffffff021916908373ffffffffffffffffffffffffffffffffffffffff16021790555060608201518160020160146101000a81548160ff02191690831515021790555060808201518160020160156101000a81548160ff02191690831515021790555060a0820151816003015560c0820151816004015560e0820151816005015561010082015181600601556101208201518160070155610140820151816008015590505080600d81905550505050505050565b60076020528160005260406000206020528060005260406000206000915091509054906101000a900460ff1681565b60056020528060005260406000206000915090505481565b600b54341015612d80576040517f08c379a0000000000000000000000000000000000000000000000000000000008152600401612d77906153f4565b60405180910390fd5b612daa7f829b824e2329e205435d941c9f13baf578548505283d29261236d8e6596d463633611e2c565b15612dea576040517f08c379a0000000000000000000000000000000000000000000000000000000008152600401612de190615460565b60405180910390fd5b612e147f829b824e2329e205435d941c9f13baf578548505283d29261236d8e6596d46363361328c565b6000600460003373ffffffffffffffffffffffffffffffffffffffff1673ffffffffffffffffffffffffffffffffffffffff1681526020019081526020016000209050338160000160006101000a81548173ffffffffffffffffffffffffffffffffffffffff021916908373ffffffffffffffffffffffffffffffffffffffff1602179055506001600c6000828254612ead9190614733565b9250508190555050565b7f36a5c4aaacb6b388bbd448bf11096b7dafc5652bcc9046084fd0e95b1fb0b2cc81565b7f36a5c4aaacb6b388bbd448bf11096b7dafc5652bcc9046084fd0e95b1fb0b2cc612f058161320e565b6000600360008481526020019081526020016000209050600015158160020160149054906101000a900460ff16151514612f74576040517f08c379a0000000000000000000000000000000000000000000000000000000008152600401612f6b906148c8565b60405180910390fd5b6000600460003373ffffffffffffffffffffffffffffffffffffffff1673ffffffffffffffffffffffffffffffffffffffff168152602001908152602001600020905060011515612fc5338661171e565b151514613007576040517f08c379a0000000000000000000000000000000000000000000000000000000008152600401612ffe906151d6565b60405180910390fd5b816006015460056000868152602001908152602001600020541015613061576040517f08c379a0000000000000000000000000000000000000000000000000000000008152600401613058906154f2565b60405180910390fd5b600081600101600086815260200190815260200160002060006101000a81548160ff021916908315150217905550816006015460056000868152602001908152602001600020546130b2919061531a565b60056000868152602001908152602001600020819055508160060154600660003373ffffffffffffffffffffffffffffffffffffffff1673ffffffffffffffffffffffffffffffffffffffff168152602001908152602001600020546131189190614733565b600660003373ffffffffffffffffffffffffffffffffffffffff1673ffffffffffffffffffffffffffffffffffffffff168152602001908152602001600020819055506001826005016000828254613170919061531a565b9250508190555050505050565b6000600260008473ffffffffffffffffffffffffffffffffffffffff1673ffffffffffffffffffffffffffffffffffffffff168152602001908152602001600020600083815260200190815260200160002060009054906101000a900460ff16905092915050565b60008151905060006a636f6e736f6c652e6c6f679050602083016000808483855afa5050505050565b61321f8161321a61336c565b613481565b50565b60007f01ffc9a7000000000000000000000000000000000000000000000000000000007bffffffffffffffffffffffffffffffffffffffffffffffffffffffff1916827bffffffffffffffffffffffffffffffffffffffffffffffffffffffff1916149050919050565b6132968282611e2c565b61336857600160008084815260200190815260200160002060000160008373ffffffffffffffffffffffffffffffffffffffff1673ffffffffffffffffffffffffffffffffffffffff16815260200190815260200160002060006101000a81548160ff02191690831515021790555061330d61336c565b73ffffffffffffffffffffffffffffffffffffffff168173ffffffffffffffffffffffffffffffffffffffff16837f2f8788117e7eff1d82e926ec794901d17c78024a50270940304540a733656f0d60405160405180910390a45b5050565b600033905090565b61337e8282611e2c565b1561345157600080600084815260200190815260200160002060000160008373ffffffffffffffffffffffffffffffffffffffff1673ffffffffffffffffffffffffffffffffffffffff16815260200190815260200160002060006101000a81548160ff0219169083151502179055506133f661336c565b73ffffffffffffffffffffffffffffffffffffffff168173ffffffffffffffffffffffffffffffffffffffff16837ff6391f5c32d9c69d2a47ea670b442974b53935d1edc7fd64eb21e047a839171b60405160405180910390a45b5050565b600080600360008481526020019081526020016000209050806004015481600501541015915050919050565b61348b8282611e2c565b61351a576134b08173ffffffffffffffffffffffffffffffffffffffff16601461351e565b6134be8360001c602061351e565b6040516020016134cf9291906155e6565b6040516020818303038152906040526040517f08c379a00000000000000000000000000000000000000000000000000000000081526004016135119190615620565b60405180910390fd5b5050565b606060006002836002613531919061534e565b61353b9190614733565b67ffffffffffffffff81111561355457613553613ccf565b5b6040519080825280601f01601f1916602001820160405280156135865781602001600182028036833780820191505090505b5090507f3000000000000000000000000000000000000000000000000000000000000000816000815181106135be576135bd614dcf565b5b60200101907effffffffffffffffffffffffffffffffffffffffffffffffffffffffffffff1916908160001a9053507f78000000000000000000000000000000000000000000000000000000000000008160018151811061362257613621614dcf565b5b60200101907effffffffffffffffffffffffffffffffffffffffffffffffffffffffffffff1916908160001a90535060006001846002613662919061534e565b61366c9190614733565b90505b600181111561370c577f3031323334353637383961626364656600000000000000000000000000000000600f8616601081106136ae576136ad614dcf565b5b1a60f81b8282815181106136c5576136c4614dcf565b5b60200101907effffffffffffffffffffffffffffffffffffffffffffffffffffffffffffff1916908160001a905350600485901c94508061370590615642565b905061366f565b5060008414613750576040517f08c379a0000000000000000000000000000000000000000000000000000000008152600401613747906156b8565b60405180910390fd5b8091505092915050565b828054613766906147b8565b90600052602060002090601f01602090048101928261378857600085556137cf565b82601f106137a157805160ff19168380011785556137cf565b828001600101855582156137cf579182015b828111156137ce5782518255916020019190600101906137b3565b5b5090506137dc91906138b8565b5090565b6040518061016001604052806000815260200160608152602001600073ffffffffffffffffffffffffffffffffffffffff1681526020016000151581526020016000151581526020016000815260200160008152602001600081526020016000815260200160008152602001600081525090565b6040518061012001604052806000815260200160608152602001600073ffffffffffffffffffffffffffffffffffffffff16815260200160008152602001600081526020016000815260200160008152602001600081526020016000151581525090565b5b808211156138d15760008160009055506001016138b9565b5090565b6000604051905090565b600080fd5b600080fd5b6000819050919050565b6138fc816138e9565b811461390757600080fd5b50565b600081359050613919816138f3565b92915050565b600060208284031215613935576139346138df565b5b60006139438482850161390a565b91505092915050565b613955816138e9565b82525050565b600081519050919050565b600082825260208201905092915050565b60005b8381101561399557808201518184015260208101905061397a565b838111156139a4576000848401525b50505050565b6000601f19601f8301169050919050565b60006139c68261395b565b6139d08185613966565b93506139e0818560208601613977565b6139e9816139aa565b840191505092915050565b600073ffffffffffffffffffffffffffffffffffffffff82169050919050565b6000613a1f826139f4565b9050919050565b613a2f81613a14565b82525050565b60008115159050919050565b613a4a81613a35565b82525050565b600061012082019050613a66600083018c61394c565b8181036020830152613a78818b6139bb565b9050613a87604083018a613a26565b613a94606083018961394c565b613aa1608083018861394c565b613aae60a083018761394c565b613abb60c083018661394c565b613ac860e083018561394c565b613ad6610100830184613a41565b9a9950505050505050505050565b60007fffffffff0000000000000000000000000000000000000000000000000000000082169050919050565b613b1981613ae4565b8114613b2457600080fd5b50565b600081359050613b3681613b10565b92915050565b600060208284031215613b5257613b516138df565b5b6000613b6084828501613b27565b91505092915050565b6000602082019050613b7e6000830184613a41565b92915050565b613b8d81613a14565b8114613b9857600080fd5b50565b600081359050613baa81613b84565b92915050565b600060208284031215613bc657613bc56138df565b5b6000613bd484828501613b9b565b91505092915050565b6000602082019050613bf2600083018461394c565b92915050565b6000819050919050565b613c0b81613bf8565b8114613c1657600080fd5b50565b600081359050613c2881613c02565b92915050565b600060208284031215613c4457613c436138df565b5b6000613c5284828501613c19565b91505092915050565b613c6481613bf8565b82525050565b6000602082019050613c7f6000830184613c5b565b92915050565b60008060408385031215613c9c57613c9b6138df565b5b6000613caa85828601613c19565b9250506020613cbb85828601613b9b565b9150509250929050565b600080fd5b600080fd5b7f4e487b7100000000000000000000000000000000000000000000000000000000600052604160045260246000fd5b613d07826139aa565b810181811067ffffffffffffffff82111715613d2657613d25613ccf565b5b80604052505050565b6000613d396138d5565b9050613d458282613cfe565b919050565b600067ffffffffffffffff821115613d6557613d64613ccf565b5b613d6e826139aa565b9050602081019050919050565b82818337600083830152505050565b6000613d9d613d9884613d4a565b613d2f565b905082815260208101848484011115613db957613db8613cca565b5b613dc4848285613d7b565b509392505050565b600082601f830112613de157613de0613cc5565b5b8135613df1848260208601613d8a565b91505092915050565b600080600080600060a08688031215613e1657613e156138df565b5b600086013567ffffffffffffffff811115613e3457613e336138e4565b5b613e4088828901613dcc565b955050602086013567ffffffffffffffff811115613e6157613e606138e4565b5b613e6d88828901613dcc565b9450506040613e7e8882890161390a565b9350506060613e8f8882890161390a565b9250506080613ea08882890161390a565b9150509295509295909350565b60008060408385031215613ec457613ec36138df565b5b6000613ed285828601613b9b565b9250506020613ee38582860161390a565b9150509250929050565b613ef6816138e9565b82525050565b600082825260208201905092915050565b6000613f188261395b565b613f228185613efc565b9350613f32818560208601613977565b613f3b816139aa565b840191505092915050565b6000613f51826139f4565b9050919050565b613f6181613f46565b82525050565b613f7081613a35565b82525050565b600061016083016000830151613f8f6000860182613eed565b5060208301518482036020860152613fa78282613f0d565b9150506040830151613fbc6040860182613f58565b506060830151613fcf6060860182613f67565b506080830151613fe26080860182613f67565b5060a0830151613ff560a0860182613eed565b5060c083015161400860c0860182613eed565b5060e083015161401b60e0860182613eed565b50610100830151614030610100860182613eed565b50610120830151614045610120860182613eed565b5061014083015161405a610140860182613eed565b508091505092915050565b6000602082019050818103600083015261407f8184613f76565b905092915050565b600081519050919050565b600082825260208201905092915050565b6000819050602082019050919050565b6000610160830160008301516140cc6000860182613eed565b50602083015184820360208601526140e48282613f0d565b91505060408301516140f96040860182613f58565b50606083015161410c6060860182613f67565b50608083015161411f6080860182613f67565b5060a083015161413260a0860182613eed565b5060c083015161414560c0860182613eed565b5060e083015161415860e0860182613eed565b5061010083015161416d610100860182613eed565b50610120830151614182610120860182613eed565b50610140830151614197610140860182613eed565b508091505092915050565b60006141ae83836140b3565b905092915050565b6000602082019050919050565b60006141ce82614087565b6141d88185614092565b9350836020820285016141ea856140a3565b8060005b85811015614226578484038952815161420785826141a2565b9450614212836141b6565b925060208a019950506001810190506141ee565b50829750879550505050505092915050565b6000602082019050818103600083015261425281846141c3565b905092915050565b61426381613f46565b82525050565b60006101608201905061427f600083018e61394c565b8181036020830152614291818d6139bb565b90506142a0604083018c61425a565b6142ad606083018b613a41565b6142ba608083018a613a41565b6142c760a083018961394c565b6142d460c083018861394c565b6142e160e083018761394c565b6142ef61010083018661394c565b6142fd61012083018561394c565b61430b61014083018461394c565b9c9b505050505050505050505050565b60008060408385031215614332576143316138df565b5b60006143408582860161390a565b92505060206143518582860161390a565b9150509250929050565b600081519050919050565b600082825260208201905092915050565b6000819050602082019050919050565b61439081613a14565b82525050565b6000610120830160008301516143af6000860182613eed565b50602083015184820360208601526143c78282613f0d565b91505060408301516143dc6040860182614387565b5060608301516143ef6060860182613eed565b5060808301516144026080860182613eed565b5060a083015161441560a0860182613eed565b5060c083015161442860c0860182613eed565b5060e083015161443b60e0860182613eed565b50610100830151614450610100860182613f67565b508091505092915050565b60006144678383614396565b905092915050565b6000602082019050919050565b60006144878261435b565b6144918185614366565b9350836020820285016144a385614377565b8060005b858110156144df57848403895281516144c0858261445b565b94506144cb8361446f565b925060208a019950506001810190506144a7565b50829750879550505050505092915050565b6000602082019050818103600083015261450b818461447c565b905092915050565b61451c81613f46565b811461452757600080fd5b50565b60008135905061453981614513565b92915050565b600080600080600060a0868803121561455b5761455a6138df565b5b600086013567ffffffffffffffff811115614579576145786138e4565b5b61458588828901613dcc565b95505060206145968882890161452a565b94505060406145a78882890161390a565b93505060606145b88882890161390a565b92505060806145c98882890161390a565b9150509295509295909350565b600060408201905081810360008301526145f081856139bb565b90506145ff602083018461394c565b9392505050565b7f557365722068617320616c726561647920766f74656420666f7220746869732060008201527f70726f706f73616c000000000000000000000000000000000000000000000000602082015250565b6000614662602883613966565b915061466d82614606565b604082019050919050565b6000602082019050818103600083015261469181614655565b9050919050565b7f566f74696e6720706572696f642068617320656e646564000000000000000000600082015250565b60006146ce601783613966565b91506146d982614698565b602082019050919050565b600060208201905081810360008301526146fd816146c1565b9050919050565b7f4e487b7100000000000000000000000000000000000000000000000000000000600052601160045260246000fd5b600061473e826138e9565b9150614749836138e9565b9250827fffffffffffffffffffffffffffffffffffffffffffffffffffffffffffffffff0382111561477e5761477d614704565b5b828201905092915050565b7f4e487b7100000000000000000000000000000000000000000000000000000000600052602260045260246000fd5b600060028204905060018216806147d057607f821691505b602082108114156147e4576147e3614789565b5b50919050565b7f4f6e6c792074686520696e7374727563746f722063616e20706572666f726d2060008201527f7468697320616374697669747900000000000000000000000000000000000000602082015250565b6000614846602d83613966565b9150614851826147ea565b604082019050919050565b6000602082019050818103600083015261487581614839565b9050919050565b7f5468697320636c6173732068617320616c726561647920737461727465640000600082015250565b60006148b2601e83613966565b91506148bd8261487c565b602082019050919050565b600060208201905081810360008301526148e1816148a5565b9050919050565b7f5468697320636c6173732068617320616c726561647920656e64656400000000600082015250565b600061491e601c83613966565b9150614929826148e8565b602082019050919050565b6000602082019050818103600083015261494d81614911565b9050919050565b7f4e6f7420656e6f7567682073747564656e747320656e726f6c6c656420746f2060008201527f73746172742074686520636c6173730000000000000000000000000000000000602082015250565b60006149b0602f83613966565b91506149bb82614954565b604082019050919050565b600060208201905081810360008301526149df816149a3565b9050919050565b7f436c61737320686173206e6f7420656e64656400000000000000000000000000600082015250565b6000614a1c601383613966565b9150614a27826149e6565b602082019050919050565b60006020820190508181036000830152614a4b81614a0f565b9050919050565b7f436c61737320686173206e6f2062616c616e6365000000000000000000000000600082015250565b6000614a88601483613966565b9150614a9382614a52565b602082019050919050565b60006020820190508181036000830152614ab781614a7b565b9050919050565b7f4e487b7100000000000000000000000000000000000000000000000000000000600052601260045260246000fd5b6000614af8826138e9565b9150614b03836138e9565b925082614b1357614b12614abe565b5b828204905092915050565b7f4e6f7420656e6f7567682073747564656e74732068617665207261746564207460008201527f686520636c617373000000000000000000000000000000000000000000000000602082015250565b6000614b7a602883613966565b9150614b8582614b1e565b604082019050919050565b60006020820190508181036000830152614ba981614b6d565b9050919050565b600081905092915050565b50565b6000614bcb600083614bb0565b9150614bd682614bbb565b600082019050919050565b6000614bec82614bbe565b9150819050919050565b7f676574506169643a20756e61626c6520746f2073656e642076616c75652c207260008201527f6563697069656e74206d61792068617665207265766572746564000000000000602082015250565b6000614c52603a83613966565b9150614c5d82614bf6565b604082019050919050565b60006020820190508181036000830152614c8181614c45565b9050919050565b7f43616c6c6572206973206e6f742061206d656d62657221000000000000000000600082015250565b6000614cbe601783613966565b9150614cc982614c88565b602082019050919050565b60006020820190508181036000830152614ced81614cb1565b9050919050565b6000614cff826138e9565b91507fffffffffffffffffffffffffffffffffffffffffffffffffffffffffffffffff821415614d3257614d31614704565b5b600182019050919050565b7f416363657373436f6e74726f6c3a2063616e206f6e6c792072656e6f756e636560008201527f20726f6c657320666f722073656c660000000000000000000000000000000000602082015250565b6000614d99602f83613966565b9150614da482614d3d565b604082019050919050565b60006020820190508181036000830152614dc881614d8c565b9050919050565b7f4e487b7100000000000000000000000000000000000000000000000000000000600052603260045260246000fd5b7f5468697320636c61737320686173206e6f742073746172746564000000000000600082015250565b6000614e34601a83613966565b9150614e3f82614dfe565b602082019050919050565b60006020820190508181036000830152614e6381614e27565b9050919050565b7f4e6f7420656e6f7567682045544820746f206a6f696e207468697320636c617360008201527f7300000000000000000000000000000000000000000000000000000000000000602082015250565b6000614ec6602183613966565b9150614ed182614e6a565b604082019050919050565b60006020820190508181036000830152614ef581614eb9565b9050919050565b7f436c6173732069732066756c6c00000000000000000000000000000000000000600082015250565b6000614f32600d83613966565b9150614f3d82614efc565b602082019050919050565b60006020820190508181036000830152614f6181614f25565b9050919050565b7f596f752061726520616c726561647920656e726f6c6c656420696e207468697360008201527f20636c6173730000000000000000000000000000000000000000000000000000602082015250565b6000614fc4602683613966565b9150614fcf82614f68565b604082019050919050565b60006020820190508181036000830152614ff381614fb7565b9050919050565b7f53747564656e7420686173206e6f2062616c616e636500000000000000000000600082015250565b6000615030601683613966565b915061503b82614ffa565b602082019050919050565b6000602082019050818103600083015261505f81615023565b9050919050565b7f476574526566756e643a20756e61626c6520746f2073656e642076616c75652c60008201527f20726563697069656e74206d6179206861766520726576657274656400000000602082015250565b60006150c2603c83613966565b91506150cd82615066565b604082019050919050565b600060208201905081810360008301526150f1816150b5565b9050919050565b7f53636f7265206d757374206265206265747765656e203120616e642035000000600082015250565b600061512e601d83613966565b9150615139826150f8565b602082019050919050565b6000602082019050818103600083015261515d81615121565b9050919050565b7f55736572206973206e6f7420656e726f6c6c656420696e207468697320636c6160008201527f7373000000000000000000000000000000000000000000000000000000000000602082015250565b60006151c0602283613966565b91506151cb82615164565b604082019050919050565b600060208201905081810360008301526151ef816151b3565b9050919050565b7f43616c6c657220686173207261746564207468697320636c617373206265666f60008201527f7265000000000000000000000000000000000000000000000000000000000000602082015250565b6000615252602283613966565b915061525d826151f6565b604082019050919050565b6000602082019050818103600083015261528181615245565b9050919050565b7f416c6c2073747564656e747320686176652072617465642074686520636c617360008201527f7300000000000000000000000000000000000000000000000000000000000000602082015250565b60006152e4602183613966565b91506152ef82615288565b604082019050919050565b60006020820190508181036000830152615313816152d7565b9050919050565b6000615325826138e9565b9150615330836138e9565b92508282101561534357615342614704565b5b828203905092915050565b6000615359826138e9565b9150615364836138e9565b9250817fffffffffffffffffffffffffffffffffffffffffffffffffffffffffffffffff048311821515161561539d5761539c614704565b5b828202905092915050565b7f4e6f7420656e6f7567682045544820746f206a6f696e207468652044414f0000600082015250565b60006153de601e83613966565b91506153e9826153a8565b602082019050919050565b6000602082019050818103600083015261540d816153d1565b9050919050565b7f43616c6c657220697320616c72656164792061206d656d626572210000000000600082015250565b600061544a601b83613966565b915061545582615414565b602082019050919050565b600060208201905081810360008301526154798161543d565b9050919050565b7f436c61737320646f6573206e6f74206861766520656e6f7567682062616c616e60008201527f6365000000000000000000000000000000000000000000000000000000000000602082015250565b60006154dc602283613966565b91506154e782615480565b604082019050919050565b6000602082019050818103600083015261550b816154cf565b9050919050565b600081905092915050565b7f416363657373436f6e74726f6c3a206163636f756e7420000000000000000000600082015250565b6000615553601783615512565b915061555e8261551d565b601782019050919050565b60006155748261395b565b61557e8185615512565b935061558e818560208601613977565b80840191505092915050565b7f206973206d697373696e6720726f6c6520000000000000000000000000000000600082015250565b60006155d0601183615512565b91506155db8261559a565b601182019050919050565b60006155f182615546565b91506155fd8285615569565b9150615608826155c3565b91506156148284615569565b91508190509392505050565b6000602082019050818103600083015261563a81846139bb565b905092915050565b600061564d826138e9565b9150600082141561566157615660614704565b5b600182039050919050565b7f537472696e67733a20686578206c656e67746820696e73756666696369656e74600082015250565b60006156a2602083613966565b91506156ad8261566c565b602082019050919050565b600060208201905081810360008301526156d181615695565b905091905056fea264697066735822122016cad5043656a076dd0c12f9e5b1928103c6b7511d42dc7de177ab8e6050149f64736f6c63430008090033",
  "linkReferences": {},
  "deployedLinkReferences": {}
}