{
  "_format": "hh-sol-artifact-1",
  "contractName": "EducationDAO",
  "sourceName": "contracts/EducationDAO.sol",
  "abi": [
    {
      "inputs": [
        {
          "internalType": "uint256",
          "name": "_memberFee",
          "type": "uint256"
        }
      ],
      "stateMutability": "nonpayable",
      "type": "constructor"
    },
    {
      "anonymous": false,
      "inputs": [
        {
          "indexed": false,
          "internalType": "uint256",
          "name": "classID",
          "type": "uint256"
        },
        {
          "indexed": false,
          "internalType": "address",
          "name": "InstructorId",
          "type": "address"
        },
        {
          "indexed": false,
          "internalType": "uint256",
          "name": "maxCapacity",
          "type": "uint256"
        },
        {
          "indexed": false,
          "internalType": "uint256",
          "name": "minStudentsRequired",
          "type": "uint256"
        }
      ],
      "name": "NewClassCreated",
      "type": "event"
    },
    {
      "anonymous": false,
      "inputs": [
        {
          "indexed": false,
          "internalType": "uint256",
          "name": "proposalId",
          "type": "uint256"
        },
        {
          "indexed": false,
          "internalType": "address",
          "name": "creatorAddress",
          "type": "address"
        },
        {
          "indexed": false,
          "internalType": "uint256",
          "name": "minVotesRequired",
          "type": "uint256"
        }
      ],
      "name": "NewProposalCreated",
      "type": "event"
    },
    {
      "anonymous": false,
      "inputs": [
        {
          "indexed": false,
          "internalType": "uint256",
          "name": "proposalId",
          "type": "uint256"
        },
        {
          "indexed": false,
          "internalType": "address",
          "name": "voterAddress",
          "type": "address"
        },
        {
          "indexed": false,
          "internalType": "uint256",
          "name": "voteCount",
          "type": "uint256"
        }
      ],
      "name": "NewVoteCount",
      "type": "event"
    },
    {
      "anonymous": false,
      "inputs": [
        {
          "indexed": true,
          "internalType": "bytes32",
          "name": "role",
          "type": "bytes32"
        },
        {
          "indexed": true,
          "internalType": "bytes32",
          "name": "previousAdminRole",
          "type": "bytes32"
        },
        {
          "indexed": true,
          "internalType": "bytes32",
          "name": "newAdminRole",
          "type": "bytes32"
        }
      ],
      "name": "RoleAdminChanged",
      "type": "event"
    },
    {
      "anonymous": false,
      "inputs": [
        {
          "indexed": true,
          "internalType": "bytes32",
          "name": "role",
          "type": "bytes32"
        },
        {
          "indexed": true,
          "internalType": "address",
          "name": "account",
          "type": "address"
        },
        {
          "indexed": true,
          "internalType": "address",
          "name": "sender",
          "type": "address"
        }
      ],
      "name": "RoleGranted",
      "type": "event"
    },
    {
      "anonymous": false,
      "inputs": [
        {
          "indexed": true,
          "internalType": "bytes32",
          "name": "role",
          "type": "bytes32"
        },
        {
          "indexed": true,
          "internalType": "address",
          "name": "account",
          "type": "address"
        },
        {
          "indexed": true,
          "internalType": "address",
          "name": "sender",
          "type": "address"
        }
      ],
      "name": "RoleRevoked",
      "type": "event"
    },
    {
      "stateMutability": "payable",
      "type": "fallback"
    },
    {
      "inputs": [],
      "name": "DEFAULT_ADMIN_ROLE",
      "outputs": [
        {
          "internalType": "bytes32",
          "name": "",
          "type": "bytes32"
        }
      ],
      "stateMutability": "view",
      "type": "function"
    },
    {
      "inputs": [],
      "name": "INSTRUCTOR_ROLE",
      "outputs": [
        {
          "internalType": "bytes32",
          "name": "",
          "type": "bytes32"
        }
      ],
      "stateMutability": "view",
      "type": "function"
    },
    {
      "inputs": [],
      "name": "MEMBER_ROLE",
      "outputs": [
        {
          "internalType": "bytes32",
          "name": "",
          "type": "bytes32"
        }
      ],
      "stateMutability": "view",
      "type": "function"
    },
    {
      "inputs": [],
      "name": "STUDENT_ROLE",
      "outputs": [
        {
          "internalType": "bytes32",
          "name": "",
          "type": "bytes32"
        }
      ],
      "stateMutability": "view",
      "type": "function"
    },
    {
      "inputs": [
        {
          "internalType": "address",
          "name": "instAddress",
          "type": "address"
        }
      ],
      "name": "addInstructor",
      "outputs": [],
      "stateMutability": "nonpayable",
      "type": "function"
    },
    {
      "inputs": [
        {
          "internalType": "uint256",
          "name": "",
          "type": "uint256"
        }
      ],
      "name": "classBalances",
      "outputs": [
        {
          "internalType": "uint256",
          "name": "",
          "type": "uint256"
        }
      ],
      "stateMutability": "view",
      "type": "function"
    },
    {
      "inputs": [],
      "name": "classCount",
      "outputs": [
        {
          "internalType": "uint256",
          "name": "",
          "type": "uint256"
        }
      ],
      "stateMutability": "view",
      "type": "function"
    },
    {
      "inputs": [
        {
          "internalType": "address",
          "name": "",
          "type": "address"
        },
        {
          "internalType": "uint256",
          "name": "",
          "type": "uint256"
        }
      ],
      "name": "classReviews",
      "outputs": [
        {
          "internalType": "bool",
          "name": "",
          "type": "bool"
        }
      ],
      "stateMutability": "view",
      "type": "function"
    },
    {
      "inputs": [
        {
          "internalType": "uint256",
          "name": "",
          "type": "uint256"
        }
      ],
      "name": "classes",
      "outputs": [
        {
          "internalType": "uint256",
          "name": "id",
          "type": "uint256"
        },
        {
          "internalType": "string",
          "name": "name",
          "type": "string"
        },
        {
          "internalType": "address payable",
          "name": "instructor",
          "type": "address"
        },
        {
          "internalType": "bool",
          "name": "started",
          "type": "bool"
        },
        {
          "internalType": "bool",
          "name": "ended",
          "type": "bool"
        },
        {
          "internalType": "uint256",
          "name": "minNumberOfStudents",
          "type": "uint256"
        },
        {
          "internalType": "uint256",
          "name": "maxNumberOfStudents",
          "type": "uint256"
        },
        {
          "internalType": "uint256",
          "name": "currentNumberOfStudents",
          "type": "uint256"
        },
        {
          "internalType": "uint256",
          "name": "price",
          "type": "uint256"
        },
        {
          "internalType": "uint256",
          "name": "reviewScore",
          "type": "uint256"
        },
        {
          "internalType": "uint256",
          "name": "numberOfReviews",
          "type": "uint256"
        }
      ],
      "stateMutability": "view",
      "type": "function"
    },
    {
      "inputs": [
        {
          "internalType": "string",
          "name": "_name",
          "type": "string"
        },
        {
          "internalType": "string",
          "name": "_data",
          "type": "string"
        },
        {
          "internalType": "uint256",
          "name": "_price",
          "type": "uint256"
        },
        {
          "internalType": "uint256",
          "name": "_minNumberOfStudents",
          "type": "uint256"
        },
        {
          "internalType": "uint256",
          "name": "_maxNumberOfStudents",
          "type": "uint256"
        }
      ],
      "name": "createProposal",
      "outputs": [],
      "stateMutability": "nonpayable",
      "type": "function"
    },
    {
      "inputs": [
        {
          "internalType": "address",
          "name": "_address",
          "type": "address"
        },
        {
          "internalType": "uint256",
          "name": "_proposalId",
          "type": "uint256"
        }
      ],
      "name": "didThisAddressVote",
      "outputs": [
        {
          "internalType": "bool",
          "name": "",
          "type": "bool"
        }
      ],
      "stateMutability": "view",
      "type": "function"
    },
    {
      "inputs": [
        {
          "internalType": "uint256",
          "name": "classId",
          "type": "uint256"
        }
      ],
      "name": "endClass",
      "outputs": [],
      "stateMutability": "nonpayable",
      "type": "function"
    },
    {
      "inputs": [],
      "name": "getAllClasses",
      "outputs": [
        {
          "components": [
            {
              "internalType": "uint256",
              "name": "id",
              "type": "uint256"
            },
            {
              "internalType": "string",
              "name": "name",
              "type": "string"
            },
            {
              "internalType": "address payable",
              "name": "instructor",
              "type": "address"
            },
            {
              "internalType": "bool",
              "name": "started",
              "type": "bool"
            },
            {
              "internalType": "bool",
              "name": "ended",
              "type": "bool"
            },
            {
              "internalType": "uint256",
              "name": "minNumberOfStudents",
              "type": "uint256"
            },
            {
              "internalType": "uint256",
              "name": "maxNumberOfStudents",
              "type": "uint256"
            },
            {
              "internalType": "uint256",
              "name": "currentNumberOfStudents",
              "type": "uint256"
            },
            {
              "internalType": "uint256",
              "name": "price",
              "type": "uint256"
            },
            {
              "internalType": "uint256",
              "name": "reviewScore",
              "type": "uint256"
            },
            {
              "internalType": "uint256",
              "name": "numberOfReviews",
              "type": "uint256"
            }
          ],
          "internalType": "struct EducationDAO.Class[]",
          "name": "",
          "type": "tuple[]"
        }
      ],
      "stateMutability": "view",
      "type": "function"
    },
    {
      "inputs": [],
      "name": "getAllProposals",
      "outputs": [
        {
          "components": [
            {
              "internalType": "uint256",
              "name": "id",
              "type": "uint256"
            },
            {
              "internalType": "string",
              "name": "name",
              "type": "string"
            },
            {
              "internalType": "address",
              "name": "instructor",
              "type": "address"
            },
            {
              "internalType": "uint256",
              "name": "voteCount",
              "type": "uint256"
            },
            {
              "internalType": "uint256",
              "name": "end",
              "type": "uint256"
            },
            {
              "internalType": "uint256",
              "name": "price",
              "type": "uint256"
            },
            {
              "internalType": "uint256",
              "name": "minimumVotes",
              "type": "uint256"
            },
            {
              "internalType": "uint256",
              "name": "maxNumberOfStudents",
              "type": "uint256"
            },
            {
              "internalType": "bool",
              "name": "executed",
              "type": "bool"
            }
          ],
          "internalType": "struct EducationDAO.TrainingProposal[]",
          "name": "",
          "type": "tuple[]"
        }
      ],
      "stateMutability": "view",
      "type": "function"
    },
    {
      "inputs": [
        {
          "internalType": "uint256",
          "name": "_classId",
          "type": "uint256"
        }
      ],
      "name": "getClass",
      "outputs": [
        {
          "components": [
            {
              "internalType": "uint256",
              "name": "id",
              "type": "uint256"
            },
            {
              "internalType": "string",
              "name": "name",
              "type": "string"
            },
            {
              "internalType": "address payable",
              "name": "instructor",
              "type": "address"
            },
            {
              "internalType": "bool",
              "name": "started",
              "type": "bool"
            },
            {
              "internalType": "bool",
              "name": "ended",
              "type": "bool"
            },
            {
              "internalType": "uint256",
              "name": "minNumberOfStudents",
              "type": "uint256"
            },
            {
              "internalType": "uint256",
              "name": "maxNumberOfStudents",
              "type": "uint256"
            },
            {
              "internalType": "uint256",
              "name": "currentNumberOfStudents",
              "type": "uint256"
            },
            {
              "internalType": "uint256",
              "name": "price",
              "type": "uint256"
            },
            {
              "internalType": "uint256",
              "name": "reviewScore",
              "type": "uint256"
            },
            {
              "internalType": "uint256",
              "name": "numberOfReviews",
              "type": "uint256"
            }
          ],
          "internalType": "struct EducationDAO.Class",
          "name": "",
          "type": "tuple"
        }
      ],
      "stateMutability": "view",
      "type": "function"
    },
    {
      "inputs": [
        {
          "internalType": "uint256",
          "name": "_classId",
          "type": "uint256"
        }
      ],
      "name": "getClassBalance",
      "outputs": [
        {
          "internalType": "uint256",
          "name": "",
          "type": "uint256"
        }
      ],
      "stateMutability": "view",
      "type": "function"
    },
    {
      "inputs": [
        {
          "internalType": "address",
          "name": "_member",
          "type": "address"
        }
      ],
      "name": "getClassesForStudent",
      "outputs": [
        {
          "components": [
            {
              "internalType": "uint256",
              "name": "id",
              "type": "uint256"
            },
            {
              "internalType": "string",
              "name": "name",
              "type": "string"
            },
            {
              "internalType": "address payable",
              "name": "instructor",
              "type": "address"
            },
            {
              "internalType": "bool",
              "name": "started",
              "type": "bool"
            },
            {
              "internalType": "bool",
              "name": "ended",
              "type": "bool"
            },
            {
              "internalType": "uint256",
              "name": "minNumberOfStudents",
              "type": "uint256"
            },
            {
              "internalType": "uint256",
              "name": "maxNumberOfStudents",
              "type": "uint256"
            },
            {
              "internalType": "uint256",
              "name": "currentNumberOfStudents",
              "type": "uint256"
            },
            {
              "internalType": "uint256",
              "name": "price",
              "type": "uint256"
            },
            {
              "internalType": "uint256",
              "name": "reviewScore",
              "type": "uint256"
            },
            {
              "internalType": "uint256",
              "name": "numberOfReviews",
              "type": "uint256"
            }
          ],
          "internalType": "struct EducationDAO.Class[]",
          "name": "",
          "type": "tuple[]"
        }
      ],
      "stateMutability": "view",
      "type": "function"
    },
    {
      "inputs": [
        {
          "internalType": "uint256",
          "name": "classId",
          "type": "uint256"
        }
      ],
      "name": "getPaid",
      "outputs": [],
      "stateMutability": "nonpayable",
      "type": "function"
    },
    {
      "inputs": [],
      "name": "getRefund",
      "outputs": [],
      "stateMutability": "nonpayable",
      "type": "function"
    },
    {
      "inputs": [
        {
          "internalType": "bytes32",
          "name": "role",
          "type": "bytes32"
        }
      ],
      "name": "getRoleAdmin",
      "outputs": [
        {
          "internalType": "bytes32",
          "name": "",
          "type": "bytes32"
        }
      ],
      "stateMutability": "view",
      "type": "function"
    },
    {
      "inputs": [
        {
          "internalType": "address",
          "name": "_student",
          "type": "address"
        }
      ],
      "name": "getStudentBalance",
      "outputs": [
        {
          "internalType": "uint256",
          "name": "",
          "type": "uint256"
        }
      ],
      "stateMutability": "view",
      "type": "function"
    },
    {
      "inputs": [
        {
          "internalType": "bytes32",
          "name": "role",
          "type": "bytes32"
        },
        {
          "internalType": "address",
          "name": "account",
          "type": "address"
        }
      ],
      "name": "grantRole",
      "outputs": [],
      "stateMutability": "nonpayable",
      "type": "function"
    },
    {
      "inputs": [
        {
          "internalType": "bytes32",
          "name": "role",
          "type": "bytes32"
        },
        {
          "internalType": "address",
          "name": "account",
          "type": "address"
        }
      ],
      "name": "hasRole",
      "outputs": [
        {
          "internalType": "bool",
          "name": "",
          "type": "bool"
        }
      ],
      "stateMutability": "view",
      "type": "function"
    },
    {
      "inputs": [
        {
          "internalType": "address",
          "name": "_member",
          "type": "address"
        },
        {
          "internalType": "uint256",
          "name": "classId",
          "type": "uint256"
        }
      ],
      "name": "isMemberEnrolledInClass",
      "outputs": [
        {
          "internalType": "bool",
          "name": "",
          "type": "bool"
        }
      ],
      "stateMutability": "view",
      "type": "function"
    },
    {
      "inputs": [
        {
          "internalType": "uint256",
          "name": "classId",
          "type": "uint256"
        }
      ],
      "name": "joinClass",
      "outputs": [],
      "stateMutability": "payable",
      "type": "function"
    },
    {
      "inputs": [],
      "name": "joinDAO",
      "outputs": [],
      "stateMutability": "payable",
      "type": "function"
    },
    {
      "inputs": [],
      "name": "memberCount",
      "outputs": [
        {
          "internalType": "uint256",
          "name": "",
          "type": "uint256"
        }
      ],
      "stateMutability": "view",
      "type": "function"
    },
    {
      "inputs": [],
      "name": "memberFee",
      "outputs": [
        {
          "internalType": "uint256",
          "name": "",
          "type": "uint256"
        }
      ],
      "stateMutability": "view",
      "type": "function"
    },
    {
      "inputs": [],
      "name": "nextProposalId",
      "outputs": [
        {
          "internalType": "uint256",
          "name": "",
          "type": "uint256"
        }
      ],
      "stateMutability": "view",
      "type": "function"
    },
    {
      "inputs": [
        {
          "internalType": "uint256",
          "name": "",
          "type": "uint256"
        }
      ],
      "name": "proposals",
      "outputs": [
        {
          "internalType": "uint256",
          "name": "id",
          "type": "uint256"
        },
        {
          "internalType": "string",
          "name": "name",
          "type": "string"
        },
        {
          "internalType": "address",
          "name": "instructor",
          "type": "address"
        },
        {
          "internalType": "uint256",
          "name": "voteCount",
          "type": "uint256"
        },
        {
          "internalType": "uint256",
          "name": "end",
          "type": "uint256"
        },
        {
          "internalType": "uint256",
          "name": "price",
          "type": "uint256"
        },
        {
          "internalType": "uint256",
          "name": "minimumVotes",
          "type": "uint256"
        },
        {
          "internalType": "uint256",
          "name": "maxNumberOfStudents",
          "type": "uint256"
        },
        {
          "internalType": "bool",
          "name": "executed",
          "type": "bool"
        }
      ],
      "stateMutability": "view",
      "type": "function"
    },
    {
      "inputs": [
        {
          "internalType": "uint256",
          "name": "classId",
          "type": "uint256"
        },
        {
          "internalType": "uint256",
          "name": "_score",
          "type": "uint256"
        }
      ],
      "name": "rateClass",
      "outputs": [],
      "stateMutability": "nonpayable",
      "type": "function"
    },
    {
      "inputs": [
        {
          "internalType": "bytes32",
          "name": "role",
          "type": "bytes32"
        },
        {
          "internalType": "address",
          "name": "account",
          "type": "address"
        }
      ],
      "name": "renounceRole",
      "outputs": [],
      "stateMutability": "nonpayable",
      "type": "function"
    },
    {
      "inputs": [
        {
          "internalType": "bytes32",
          "name": "role",
          "type": "bytes32"
        },
        {
          "internalType": "address",
          "name": "account",
          "type": "address"
        }
      ],
      "name": "revokeRole",
      "outputs": [],
      "stateMutability": "nonpayable",
      "type": "function"
    },
    {
      "inputs": [
        {
          "internalType": "uint256",
          "name": "newMemberFee",
          "type": "uint256"
        }
      ],
      "name": "setMemberFee",
      "outputs": [],
      "stateMutability": "nonpayable",
      "type": "function"
    },
    {
      "inputs": [
        {
          "internalType": "uint256",
          "name": "classId",
          "type": "uint256"
        }
      ],
      "name": "startClass",
      "outputs": [],
      "stateMutability": "nonpayable",
      "type": "function"
    },
    {
      "inputs": [
        {
          "internalType": "bytes4",
          "name": "interfaceId",
          "type": "bytes4"
        }
      ],
      "name": "supportsInterface",
      "outputs": [
        {
          "internalType": "bool",
          "name": "",
          "type": "bool"
        }
      ],
      "stateMutability": "view",
      "type": "function"
    },
    {
      "inputs": [
        {
          "internalType": "uint256",
          "name": "proposalId",
          "type": "uint256"
        }
      ],
      "name": "vote",
      "outputs": [],
      "stateMutability": "nonpayable",
      "type": "function"
    },
    {
      "inputs": [],
      "name": "voteTime",
      "outputs": [
        {
          "internalType": "uint256",
          "name": "",
          "type": "uint256"
        }
      ],
      "stateMutability": "view",
      "type": "function"
    },
    {
      "inputs": [
        {
          "internalType": "uint256",
          "name": "classId",
          "type": "uint256"
        }
      ],
      "name": "withdrawFromClass",
      "outputs": [],
      "stateMutability": "nonpayable",
      "type": "function"
    },
    {
      "stateMutability": "payable",
      "type": "receive"
    }
  ],
  "bytecode": "0x60806040523480156200001157600080fd5b5060405162005a6f38038062005a6f833981810160405281019062000037919062000265565b33600960006101000a81548173ffffffffffffffffffffffffffffffffffffffff021916908373ffffffffffffffffffffffffffffffffffffffff1602179055506200008d6000801b30620000ac60201b60201c565b80600b819055506000600c81905550610e10600f819055505062000297565b620000be8282620000c260201b60201c565b5050565b620000d48282620001b360201b60201c565b620001af57600160008084815260200190815260200160002060000160008373ffffffffffffffffffffffffffffffffffffffff1673ffffffffffffffffffffffffffffffffffffffff16815260200190815260200160002060006101000a81548160ff021916908315150217905550620001546200021d60201b60201c565b73ffffffffffffffffffffffffffffffffffffffff168173ffffffffffffffffffffffffffffffffffffffff16837f2f8788117e7eff1d82e926ec794901d17c78024a50270940304540a733656f0d60405160405180910390a45b5050565b600080600084815260200190815260200160002060000160008373ffffffffffffffffffffffffffffffffffffffff1673ffffffffffffffffffffffffffffffffffffffff16815260200190815260200160002060009054906101000a900460ff16905092915050565b600033905090565b600080fd5b6000819050919050565b6200023f816200022a565b81146200024b57600080fd5b50565b6000815190506200025f8162000234565b92915050565b6000602082840312156200027e576200027d62000225565b5b60006200028e848285016200024e565b91505092915050565b6157c880620002a76000396000f3fe6080604052600436106102345760003560e01c80638bcf979c1161012e578063bcf93dd6116100ab578063eda47aeb1161006f578063eda47aeb14610910578063f63d13d71461094d578063f7be43fb14610957578063fc063f8814610982578063fce3f379146109ab5761027a565b8063bcf93dd614610829578063cceb68f514610854578063d30988831461087f578063d547741f146108aa578063ec5f59f7146108d35761027a565b8063ab996317116100f2578063ab99631714610779578063af70377c146107a4578063b2d5ae44146107c0578063b3a6da75146107d7578063b9399e13146108005761027a565b80638bcf979c1461069257806391d14854146106bd5780639a9a3ed9146106fa578063a10f469e14610723578063a217fddf1461074e5761027a565b80632ab09d14116101bc578063512d62df11610180578063512d62df1461057d5780635a5945d1146105ba5780635f6fe4fd146105f75780636bda75dd14610620578063817dbe9f1461064b5761027a565b80632ab09d141461049a5780632f2ff15d146104c557806333423c06146104ee57806336568abe1461051757806349dd4bd7146105405761027a565b80630a7e8932116102035780630a7e8932146103a357806311aee380146103e05780631f8e11341461040b578063248a9ca3146104345780632a92362c146104715761027a565b80630121b93f146102bb578063013cf08b146102e457806301ffc9a71461032957806308b9ddd8146103665761027a565b3661027a576102786040518060400160405280600e81526020017f2d2d2d2d2d20726563656976653a000000000000000000000000000000000000815250346109e8565b005b6102b96040518060400160405280600f81526020017f2d2d2d2d2d2066616c6c6261636b3a0000000000000000000000000000000000815250346109e8565b005b3480156102c757600080fd5b506102e260048036038101906102dd91906139c1565b610a84565b005b3480156102f057600080fd5b5061030b600480360381019061030691906139c1565b610d52565b60405161032099989796959493929190613af2565b60405180910390f35b34801561033557600080fd5b50610350600480360381019061034b9190613bde565b610e55565b60405161035d9190613c0b565b60405180910390f35b34801561037257600080fd5b5061038d60048036038101906103889190613c52565b610ecf565b60405161039a9190613c7f565b60405180910390f35b3480156103af57600080fd5b506103ca60048036038101906103c591906139c1565b610f18565b6040516103d79190613c7f565b60405180910390f35b3480156103ec57600080fd5b506103f5610f35565b6040516104029190613c7f565b60405180910390f35b34801561041757600080fd5b50610432600480360381019061042d91906139c1565b610f3b565b005b34801561044057600080fd5b5061045b60048036038101906104569190613cd0565b61116f565b6040516104689190613d0c565b60405180910390f35b34801561047d57600080fd5b50610498600480360381019061049391906139c1565b61118e565b005b3480156104a657600080fd5b506104af611488565b6040516104bc9190613c7f565b60405180910390f35b3480156104d157600080fd5b506104ec60048036038101906104e79190613d27565b61148e565b005b3480156104fa57600080fd5b5061051560048036038101906105109190613e9c565b6114af565b005b34801561052357600080fd5b5061053e60048036038101906105399190613d27565b6116e3565b005b34801561054c57600080fd5b5061056760048036038101906105629190613f4f565b611766565b6040516105749190613c0b565b60405180910390f35b34801561058957600080fd5b506105a4600480360381019061059f91906139c1565b6117d1565b6040516105b19190614107565b60405180910390f35b3480156105c657600080fd5b506105e160048036038101906105dc9190613c52565b611963565b6040516105ee91906142da565b60405180910390f35b34801561060357600080fd5b5061061e600480360381019061061991906139c1565b611aeb565b005b34801561062c57600080fd5b50610635611b03565b60405161064291906142da565b60405180910390f35b34801561065757600080fd5b50610672600480360381019061066d91906139c1565b611d34565b6040516106899b9a9998979695949392919061430b565b60405180910390f35b34801561069e57600080fd5b506106a7611e50565b6040516106b49190613d0c565b60405180910390f35b3480156106c957600080fd5b506106e460048036038101906106df9190613d27565b611e74565b6040516106f19190613c0b565b60405180910390f35b34801561070657600080fd5b50610721600480360381019061071c91906139c1565b611ede565b005b34801561072f57600080fd5b506107386120ba565b6040516107459190613d0c565b60405180910390f35b34801561075a57600080fd5b506107636120de565b6040516107709190613d0c565b60405180910390f35b34801561078557600080fd5b5061078e6120e5565b60405161079b9190613c7f565b60405180910390f35b6107be60048036038101906107b991906139c1565b6120eb565b005b3480156107cc57600080fd5b506107d561249e565b005b3480156107e357600080fd5b506107fe60048036038101906107f991906143bd565b612645565b005b34801561080c57600080fd5b5061082760048036038101906108229190613c52565b61298b565b005b34801561083557600080fd5b5061083e61299c565b60405161084b9190613c7f565b60405180910390f35b34801561086057600080fd5b506108696129a2565b6040516108769190614593565b60405180910390f35b34801561088b57600080fd5b50610894612ba2565b6040516108a19190613c7f565b60405180910390f35b3480156108b657600080fd5b506108d160048036038101906108cc9190613d27565b612ba8565b005b3480156108df57600080fd5b506108fa60048036038101906108f59190613f4f565b612bc9565b6040516109079190613c0b565b60405180910390f35b34801561091c57600080fd5b50610937600480360381019061093291906139c1565b612bf8565b6040516109449190613c7f565b60405180910390f35b610955612c10565b005b34801561096357600080fd5b5061096c612d8c565b6040516109799190613d0c565b60405180910390f35b34801561098e57600080fd5b506109a960048036038101906109a491906139c1565b612db0565b005b3480156109b757600080fd5b506109d260048036038101906109cd9190613f4f565b613052565b6040516109df9190613c0b565b60405180910390f35b610a8082826040516024016109fe9291906145b5565b6040516020818303038152906040527f9710a9d0000000000000000000000000000000000000000000000000000000007bffffffffffffffffffffffffffffffffffffffffffffffffffffffff19166020820180517bffffffffffffffffffffffffffffffffffffffffffffffffffffffff83818316178352505050506130ba565b5050565b7f829b824e2329e205435d941c9f13baf578548505283d29261236d8e6596d4636610aae816130e3565b600060016000848152602001908152602001600020905060001515600260003373ffffffffffffffffffffffffffffffffffffffff1673ffffffffffffffffffffffffffffffffffffffff168152602001908152602001600020600085815260200190815260200160002060009054906101000a900460ff16151514610b69576040517f08c379a0000000000000000000000000000000000000000000000000000000008152600401610b6090614657565b60405180910390fd5b80600401544210610baf576040517f08c379a0000000000000000000000000000000000000000000000000000000008152600401610ba6906146c3565b60405180910390fd5b6001600260003373ffffffffffffffffffffffffffffffffffffffff1673ffffffffffffffffffffffffffffffffffffffff168152602001908152602001600020600085815260200190815260200160002060006101000a81548160ff0219169083151502179055506001816003016000828254610c2d9190614712565b925050819055507f592e110d8f3a029cc8e79518590c11a4ba24bc92cec780cdaa991f9faf3f9b2b83338360030154604051610c6b93929190614768565b60405180910390a1806006015481600301541415610d4d57610d4c816001018054610c95906147ce565b80601f0160208091040260200160405190810160405280929190818152602001828054610cc1906147ce565b8015610d0e5780601f10610ce357610100808354040283529160200191610d0e565b820191906000526020600020905b815481529060010190602001808311610cf157829003601f168201915b50505050508260020160009054906101000a900473ffffffffffffffffffffffffffffffffffffffff168360060154846007015485600501546130f7565b5b505050565b6001602052806000526040600020600091509050806000015490806001018054610d7b906147ce565b80601f0160208091040260200160405190810160405280929190818152602001828054610da7906147ce565b8015610df45780601f10610dc957610100808354040283529160200191610df4565b820191906000526020600020905b815481529060010190602001808311610dd757829003601f168201915b5050505050908060020160009054906101000a900473ffffffffffffffffffffffffffffffffffffffff16908060030154908060040154908060050154908060060154908060070154908060080160009054906101000a900460ff16905089565b60007f7965db0b000000000000000000000000000000000000000000000000000000007bffffffffffffffffffffffffffffffffffffffffffffffffffffffff1916827bffffffffffffffffffffffffffffffffffffffffffffffffffffffff19161480610ec85750610ec7826132c4565b5b9050919050565b6000600660008373ffffffffffffffffffffffffffffffffffffffff1673ffffffffffffffffffffffffffffffffffffffff168152602001908152602001600020549050919050565b600060056000838152602001908152602001600020549050919050565b600c5481565b7f829b824e2329e205435d941c9f13baf578548505283d29261236d8e6596d4636610f65816130e3565b8160006003600083815260200190815260200160002090508060020160009054906101000a900473ffffffffffffffffffffffffffffffffffffffff1673ffffffffffffffffffffffffffffffffffffffff163373ffffffffffffffffffffffffffffffffffffffff161461100f576040517f08c379a000000000000000000000000000000000000000000000000000000000815260040161100690614872565b60405180910390fd5b6000600360008681526020019081526020016000209050600015158160020160149054906101000a900460ff1615151461107e576040517f08c379a0000000000000000000000000000000000000000000000000000000008152600401611075906148de565b60405180910390fd5b600015158160020160159054906101000a900460ff161515146110d6576040517f08c379a00000000000000000000000000000000000000000000000000000000081526004016110cd9061494a565b60405180910390fd5b806003015481600501541015611121576040517f08c379a0000000000000000000000000000000000000000000000000000000008152600401611118906149dc565b60405180910390fd5b60018160020160146101000a81548160ff0219169083151502179055506111687fae4a0595970935aa5495afbbb72e5f1f6ff1062766b4a3028c0c9b7d5cf7e3453361332e565b5050505050565b6000806000838152602001908152602001600020600101549050919050565b7fae4a0595970935aa5495afbbb72e5f1f6ff1062766b4a3028c0c9b7d5cf7e3456111b8816130e3565b8160006003600083815260200190815260200160002090508060020160009054906101000a900473ffffffffffffffffffffffffffffffffffffffff1673ffffffffffffffffffffffffffffffffffffffff163373ffffffffffffffffffffffffffffffffffffffff1614611262576040517f08c379a000000000000000000000000000000000000000000000000000000000815260040161125990614872565b60405180910390fd5b6000600360008681526020019081526020016000209050600115158160020160159054906101000a900460ff161515146112d1576040517f08c379a00000000000000000000000000000000000000000000000000000000081526004016112c890614a48565b60405180910390fd5b6000600560008781526020019081526020016000205411611327576040517f08c379a000000000000000000000000000000000000000000000000000000000815260040161131e90614ab4565b60405180910390fd5b600281600501546113389190614b03565b8160080154101561137e576040517f08c379a000000000000000000000000000000000000000000000000000000000815260040161137590614ba6565b60405180910390fd5b6000600560008781526020019081526020016000205490506000600560008881526020019081526020016000208190555060008260020160009054906101000a900473ffffffffffffffffffffffffffffffffffffffff1673ffffffffffffffffffffffffffffffffffffffff16826040516113f990614bf7565b60006040518083038185875af1925050503d8060008114611436576040519150601f19603f3d011682016040523d82523d6000602084013e61143b565b606091505b505090508061147f576040517f08c379a000000000000000000000000000000000000000000000000000000000815260040161147690614c7e565b60405180910390fd5b50505050505050565b600e5481565b6114978261116f565b6114a0816130e3565b6114aa838361332e565b505050565b7f829b824e2329e205435d941c9f13baf578548505283d29261236d8e6596d46366114d9816130e3565b6115037f829b824e2329e205435d941c9f13baf578548505283d29261236d8e6596d463633611e74565b611542576040517f08c379a000000000000000000000000000000000000000000000000000000000815260040161153990614cea565b60405180910390fd5b6000604051806101200160405280600e5481526020018881526020013373ffffffffffffffffffffffffffffffffffffffff168152602001828152602001600f544261158e9190614712565b81526020018681526020018581526020018481526020016000151581525060016000600e5481526020019081526020016000206000820151816000015560208201518160010190805190602001906115e79291906137fc565b5060408201518160020160006101000a81548173ffffffffffffffffffffffffffffffffffffffff021916908373ffffffffffffffffffffffffffffffffffffffff160217905550606082015181600301556080820151816004015560a0820151816005015560c0820151816006015560e082015181600701556101008201518160080160006101000a81548160ff0219169083151502179055509050507f408454690096a221ed51b3eb447e3423d2ad8d32e7894370fa9daa0a59832ffd600e5433866040516116ba93929190614768565b60405180910390a1600e60008154809291906116d590614d0a565b919050555050505050505050565b6116eb61340e565b73ffffffffffffffffffffffffffffffffffffffff168173ffffffffffffffffffffffffffffffffffffffff1614611758576040517f08c379a000000000000000000000000000000000000000000000000000000000815260040161174f90614dc5565b60405180910390fd5b6117628282613416565b5050565b6000600460008473ffffffffffffffffffffffffffffffffffffffff1673ffffffffffffffffffffffffffffffffffffffff168152602001908152602001600020600101600083815260200190815260200160002060009054906101000a900460ff16905092915050565b6117d9613882565b600360008381526020019081526020016000206040518061016001604052908160008201548152602001600182018054611812906147ce565b80601f016020809104026020016040519081016040528092919081815260200182805461183e906147ce565b801561188b5780601f106118605761010080835404028352916020019161188b565b820191906000526020600020905b81548152906001019060200180831161186e57829003601f168201915b505050505081526020016002820160009054906101000a900473ffffffffffffffffffffffffffffffffffffffff1673ffffffffffffffffffffffffffffffffffffffff1673ffffffffffffffffffffffffffffffffffffffff1681526020016002820160149054906101000a900460ff161515151581526020016002820160159054906101000a900460ff1615151515815260200160038201548152602001600482015481526020016005820154815260200160068201548152602001600782015481526020016008820154815250509050919050565b60606000600860008473ffffffffffffffffffffffffffffffffffffffff1673ffffffffffffffffffffffffffffffffffffffff1681526020019081526020016000208054905067ffffffffffffffff8111156119c3576119c2613d71565b5b6040519080825280602002602001820160405280156119fc57816020015b6119e9613882565b8152602001906001900390816119e15790505b50905060005b600860008573ffffffffffffffffffffffffffffffffffffffff1673ffffffffffffffffffffffffffffffffffffffff16815260200190815260200160002080549050811015611ae157611ab0600860008673ffffffffffffffffffffffffffffffffffffffff1673ffffffffffffffffffffffffffffffffffffffff1681526020019081526020016000208281548110611aa057611a9f614de5565b5b90600052602060002001546117d1565b828281518110611ac357611ac2614de5565b5b60200260200101819052508080611ad990614d0a565b915050611a02565b5080915050919050565b6000801b611af8816130e3565b81600b819055505050565b60606000600d5467ffffffffffffffff811115611b2357611b22613d71565b5b604051908082528060200260200182016040528015611b5c57816020015b611b49613882565b815260200190600190039081611b415790505b50905060005b600d54811015611d2c5760036000600183611b7d9190614712565b81526020019081526020016000206040518061016001604052908160008201548152602001600182018054611bb1906147ce565b80601f0160208091040260200160405190810160405280929190818152602001828054611bdd906147ce565b8015611c2a5780601f10611bff57610100808354040283529160200191611c2a565b820191906000526020600020905b815481529060010190602001808311611c0d57829003601f168201915b505050505081526020016002820160009054906101000a900473ffffffffffffffffffffffffffffffffffffffff1673ffffffffffffffffffffffffffffffffffffffff1673ffffffffffffffffffffffffffffffffffffffff1681526020016002820160149054906101000a900460ff161515151581526020016002820160159054906101000a900460ff161515151581526020016003820154815260200160048201548152602001600582015481526020016006820154815260200160078201548152602001600882015481525050828281518110611d0e57611d0d614de5565b5b60200260200101819052508080611d2490614d0a565b915050611b62565b508091505090565b6003602052806000526040600020600091509050806000015490806001018054611d5d906147ce565b80601f0160208091040260200160405190810160405280929190818152602001828054611d89906147ce565b8015611dd65780601f10611dab57610100808354040283529160200191611dd6565b820191906000526020600020905b815481529060010190602001808311611db957829003601f168201915b5050505050908060020160009054906101000a900473ffffffffffffffffffffffffffffffffffffffff16908060020160149054906101000a900460ff16908060020160159054906101000a900460ff1690806003015490806004015490806005015490806006015490806007015490806008015490508b565b7fae4a0595970935aa5495afbbb72e5f1f6ff1062766b4a3028c0c9b7d5cf7e34581565b600080600084815260200190815260200160002060000160008373ffffffffffffffffffffffffffffffffffffffff1673ffffffffffffffffffffffffffffffffffffffff16815260200190815260200160002060009054906101000a900460ff16905092915050565b7f829b824e2329e205435d941c9f13baf578548505283d29261236d8e6596d4636611f08816130e3565b8160006003600083815260200190815260200160002090508060020160009054906101000a900473ffffffffffffffffffffffffffffffffffffffff1673ffffffffffffffffffffffffffffffffffffffff163373ffffffffffffffffffffffffffffffffffffffff1614611fb2576040517f08c379a0000000000000000000000000000000000000000000000000000000008152600401611fa990614872565b60405180910390fd5b6000600360008681526020019081526020016000209050600115158160020160149054906101000a900460ff16151514612021576040517f08c379a000000000000000000000000000000000000000000000000000000000815260040161201890614e60565b60405180910390fd5b600015158160020160159054906101000a900460ff16151514612079576040517f08c379a00000000000000000000000000000000000000000000000000000000081526004016120709061494a565b60405180910390fd5b60018160020160156101000a81548160ff02191690831515021790555060008160020160146101000a81548160ff0219169083151502179055505050505050565b7f829b824e2329e205435d941c9f13baf578548505283d29261236d8e6596d463681565b6000801b81565b600d5481565b7f829b824e2329e205435d941c9f13baf578548505283d29261236d8e6596d4636612115816130e3565b6000600360008481526020019081526020016000209050600015158160020160149054906101000a900460ff16151514612184576040517f08c379a000000000000000000000000000000000000000000000000000000000815260040161217b906148de565b60405180910390fd5b80600601543410156121cb576040517f08c379a00000000000000000000000000000000000000000000000000000000081526004016121c290614ef2565b60405180910390fd5b600015156121d8846134f7565b15151461221a576040517f08c379a000000000000000000000000000000000000000000000000000000000815260040161221190614f5e565b60405180910390fd5b6122447f36a5c4aaacb6b388bbd448bf11096b7dafc5652bcc9046084fd0e95b1fb0b2cc33611e74565b156123b657600015156122573385611766565b151514612299576040517f08c379a000000000000000000000000000000000000000000000000000000000815260040161229090614ff0565b60405180910390fd5b6001600460003373ffffffffffffffffffffffffffffffffffffffff1673ffffffffffffffffffffffffffffffffffffffff168152602001908152602001600020600101600085815260200190815260200160002060006101000a81548160ff021916908315150217905550600860003373ffffffffffffffffffffffffffffffffffffffff1673ffffffffffffffffffffffffffffffffffffffff1681526020019081526020016000208390806001815401808255809150506001900390600052602060002001600090919091909150553460056000858152602001908152602001600020600082825461238e9190614712565b9250508190555060018160050160008282546123aa9190614712565b92505081905550612499565b6000600460003373ffffffffffffffffffffffffffffffffffffffff1673ffffffffffffffffffffffffffffffffffffffff1681526020019081526020016000209050600181600101600086815260200190815260200160002060006101000a81548160ff0219169083151502179055503460056000868152602001908152602001600020600082825461244a9190614712565b9250508190555060018260050160008282546124669190614712565b925050819055506124977f36a5c4aaacb6b388bbd448bf11096b7dafc5652bcc9046084fd0e95b1fb0b2cc3361332e565b505b505050565b7f36a5c4aaacb6b388bbd448bf11096b7dafc5652bcc9046084fd0e95b1fb0b2cc6124c8816130e3565b6000600660003373ffffffffffffffffffffffffffffffffffffffff1673ffffffffffffffffffffffffffffffffffffffff1681526020019081526020016000205490506000811161254f576040517f08c379a00000000000000000000000000000000000000000000000000000000081526004016125469061505c565b60405180910390fd5b6000600660003373ffffffffffffffffffffffffffffffffffffffff1673ffffffffffffffffffffffffffffffffffffffff1681526020019081526020016000208190555060003373ffffffffffffffffffffffffffffffffffffffff16826040516125ba90614bf7565b60006040518083038185875af1925050503d80600081146125f7576040519150601f19603f3d011682016040523d82523d6000602084013e6125fc565b606091505b5050905080612640576040517f08c379a0000000000000000000000000000000000000000000000000000000008152600401612637906150ee565b60405180910390fd5b505050565b7f36a5c4aaacb6b388bbd448bf11096b7dafc5652bcc9046084fd0e95b1fb0b2cc61266f816130e3565b60018210158015612681575060058211155b6126c0576040517f08c379a00000000000000000000000000000000000000000000000000000000081526004016126b79061515a565b60405180910390fd5b600115156126ce3385611766565b151514612710576040517f08c379a0000000000000000000000000000000000000000000000000000000008152600401612707906151ec565b60405180910390fd5b6000600360008581526020019081526020016000209050600115158160020160159054906101000a900460ff1615151461277f576040517f08c379a000000000000000000000000000000000000000000000000000000000815260040161277690614a48565b60405180910390fd5b60001515600760003373ffffffffffffffffffffffffffffffffffffffff1673ffffffffffffffffffffffffffffffffffffffff168152602001908152602001600020600086815260200190815260200160002060009054906101000a900460ff16151514612823576040517f08c379a000000000000000000000000000000000000000000000000000000000815260040161281a9061527e565b60405180910390fd5b8060050154600182600801546128399190614712565b111561287a576040517f08c379a000000000000000000000000000000000000000000000000000000000815260040161287190615310565b60405180910390fd5b600081600701549050600082600801549050600060018261289b9190614712565b60646128a79190614b03565b905060008160646128b89190615330565b846128c39190615364565b9050600082886128d39190615364565b90506000606482846128e59190614712565b6128ef9190614b03565b905060018760080160008282546129069190614712565b925050819055508087600701819055506001600760003373ffffffffffffffffffffffffffffffffffffffff1673ffffffffffffffffffffffffffffffffffffffff16815260200190815260200160002060008c815260200190815260200160002060006101000a81548160ff02191690831515021790555050505050505050505050565b6000801b612998816130e3565b5050565b600f5481565b60606000600e5467ffffffffffffffff8111156129c2576129c1613d71565b5b6040519080825280602002602001820160405280156129fb57816020015b6129e86138f6565b8152602001906001900390816129e05790505b50905060005b600e54811015612b9a57600160008281526020019081526020016000206040518061012001604052908160008201548152602001600182018054612a44906147ce565b80601f0160208091040260200160405190810160405280929190818152602001828054612a70906147ce565b8015612abd5780601f10612a9257610100808354040283529160200191612abd565b820191906000526020600020905b815481529060010190602001808311612aa057829003601f168201915b505050505081526020016002820160009054906101000a900473ffffffffffffffffffffffffffffffffffffffff1673ffffffffffffffffffffffffffffffffffffffff1673ffffffffffffffffffffffffffffffffffffffff16815260200160038201548152602001600482015481526020016005820154815260200160068201548152602001600782015481526020016008820160009054906101000a900460ff161515151581525050828281518110612b7c57612b7b614de5565b5b60200260200101819052508080612b9290614d0a565b915050612a01565b508091505090565b600b5481565b612bb18261116f565b612bba816130e3565b612bc48383613416565b505050565b60076020528160005260406000206020528060005260406000206000915091509054906101000a900460ff1681565b60056020528060005260406000206000915090505481565b600b54341015612c55576040517f08c379a0000000000000000000000000000000000000000000000000000000008152600401612c4c9061540a565b60405180910390fd5b612c7f7f829b824e2329e205435d941c9f13baf578548505283d29261236d8e6596d463633611e74565b15612cbf576040517f08c379a0000000000000000000000000000000000000000000000000000000008152600401612cb690615476565b60405180910390fd5b612ce97f829b824e2329e205435d941c9f13baf578548505283d29261236d8e6596d46363361332e565b6000600460003373ffffffffffffffffffffffffffffffffffffffff1673ffffffffffffffffffffffffffffffffffffffff1681526020019081526020016000209050338160000160006101000a81548173ffffffffffffffffffffffffffffffffffffffff021916908373ffffffffffffffffffffffffffffffffffffffff1602179055506001600c6000828254612d829190614712565b9250508190555050565b7f36a5c4aaacb6b388bbd448bf11096b7dafc5652bcc9046084fd0e95b1fb0b2cc81565b7f36a5c4aaacb6b388bbd448bf11096b7dafc5652bcc9046084fd0e95b1fb0b2cc612dda816130e3565b6000600360008481526020019081526020016000209050600015158160020160149054906101000a900460ff16151514612e49576040517f08c379a0000000000000000000000000000000000000000000000000000000008152600401612e40906148de565b60405180910390fd5b6000600460003373ffffffffffffffffffffffffffffffffffffffff1673ffffffffffffffffffffffffffffffffffffffff168152602001908152602001600020905060011515612e9a3386611766565b151514612edc576040517f08c379a0000000000000000000000000000000000000000000000000000000008152600401612ed3906151ec565b60405180910390fd5b816006015460056000868152602001908152602001600020541015612f36576040517f08c379a0000000000000000000000000000000000000000000000000000000008152600401612f2d90615508565b60405180910390fd5b600081600101600086815260200190815260200160002060006101000a81548160ff02191690831515021790555081600601546005600086815260200190815260200160002054612f879190615330565b60056000868152602001908152602001600020819055508160060154600660003373ffffffffffffffffffffffffffffffffffffffff1673ffffffffffffffffffffffffffffffffffffffff16815260200190815260200160002054612fed9190614712565b600660003373ffffffffffffffffffffffffffffffffffffffff1673ffffffffffffffffffffffffffffffffffffffff1681526020019081526020016000208190555060018260050160008282546130459190615330565b9250508190555050505050565b6000600260008473ffffffffffffffffffffffffffffffffffffffff1673ffffffffffffffffffffffffffffffffffffffff168152602001908152602001600020600083815260200190815260200160002060009054906101000a900460ff16905092915050565b60008151905060006a636f6e736f6c652e6c6f679050602083016000808483855afa5050505050565b6130f4816130ef61340e565b613523565b50565b60006001600d546131089190614712565b90506040518061016001604052808281526020018781526020018673ffffffffffffffffffffffffffffffffffffffff16815260200160001515815260200160001515815260200185815260200184815260200160008152602001838152602001600081526020016000815250600360008381526020019081526020016000206000820151816000015560208201518160010190805190602001906131ae9291906137fc565b5060408201518160020160006101000a81548173ffffffffffffffffffffffffffffffffffffffff021916908373ffffffffffffffffffffffffffffffffffffffff16021790555060608201518160020160146101000a81548160ff02191690831515021790555060808201518160020160156101000a81548160ff02191690831515021790555060a0820151816003015560c0820151816004015560e0820151816005015561010082015181600601556101208201518160070155610140820151816008015590505080600d819055507fe800cdb45585e2bd4e3e341253d03f39a040eadd8f925df8d55aba8352090727818685876040516132b49493929190615587565b60405180910390a1505050505050565b60007f01ffc9a7000000000000000000000000000000000000000000000000000000007bffffffffffffffffffffffffffffffffffffffffffffffffffffffff1916827bffffffffffffffffffffffffffffffffffffffffffffffffffffffff1916149050919050565b6133388282611e74565b61340a57600160008084815260200190815260200160002060000160008373ffffffffffffffffffffffffffffffffffffffff1673ffffffffffffffffffffffffffffffffffffffff16815260200190815260200160002060006101000a81548160ff0219169083151502179055506133af61340e565b73ffffffffffffffffffffffffffffffffffffffff168173ffffffffffffffffffffffffffffffffffffffff16837f2f8788117e7eff1d82e926ec794901d17c78024a50270940304540a733656f0d60405160405180910390a45b5050565b600033905090565b6134208282611e74565b156134f357600080600084815260200190815260200160002060000160008373ffffffffffffffffffffffffffffffffffffffff1673ffffffffffffffffffffffffffffffffffffffff16815260200190815260200160002060006101000a81548160ff02191690831515021790555061349861340e565b73ffffffffffffffffffffffffffffffffffffffff168173ffffffffffffffffffffffffffffffffffffffff16837ff6391f5c32d9c69d2a47ea670b442974b53935d1edc7fd64eb21e047a839171b60405160405180910390a45b5050565b600080600360008481526020019081526020016000209050806004015481600501541015915050919050565b61352d8282611e74565b6135bc576135528173ffffffffffffffffffffffffffffffffffffffff1660146135c0565b6135608360001c60206135c0565b6040516020016135719291906156a0565b6040516020818303038152906040526040517f08c379a00000000000000000000000000000000000000000000000000000000081526004016135b391906156da565b60405180910390fd5b5050565b6060600060028360026135d39190615364565b6135dd9190614712565b67ffffffffffffffff8111156135f6576135f5613d71565b5b6040519080825280601f01601f1916602001820160405280156136285781602001600182028036833780820191505090505b5090507f3000000000000000000000000000000000000000000000000000000000000000816000815181106136605761365f614de5565b5b60200101907effffffffffffffffffffffffffffffffffffffffffffffffffffffffffffff1916908160001a9053507f7800000000000000000000000000000000000000000000000000000000000000816001815181106136c4576136c3614de5565b5b60200101907effffffffffffffffffffffffffffffffffffffffffffffffffffffffffffff1916908160001a905350600060018460026137049190615364565b61370e9190614712565b90505b60018111156137ae577f3031323334353637383961626364656600000000000000000000000000000000600f8616601081106137505761374f614de5565b5b1a60f81b82828151811061376757613766614de5565b5b60200101907effffffffffffffffffffffffffffffffffffffffffffffffffffffffffffff1916908160001a905350600485901c9450806137a7906156fc565b9050613711565b50600084146137f2576040517f08c379a00000000000000000000000000000000000000000000000000000000081526004016137e990615772565b60405180910390fd5b8091505092915050565b828054613808906147ce565b90600052602060002090601f01602090048101928261382a5760008555613871565b82601f1061384357805160ff1916838001178555613871565b82800160010185558215613871579182015b82811115613870578251825591602001919060010190613855565b5b50905061387e919061395a565b5090565b6040518061016001604052806000815260200160608152602001600073ffffffffffffffffffffffffffffffffffffffff1681526020016000151581526020016000151581526020016000815260200160008152602001600081526020016000815260200160008152602001600081525090565b6040518061012001604052806000815260200160608152602001600073ffffffffffffffffffffffffffffffffffffffff16815260200160008152602001600081526020016000815260200160008152602001600081526020016000151581525090565b5b8082111561397357600081600090555060010161395b565b5090565b6000604051905090565b600080fd5b600080fd5b6000819050919050565b61399e8161398b565b81146139a957600080fd5b50565b6000813590506139bb81613995565b92915050565b6000602082840312156139d7576139d6613981565b5b60006139e5848285016139ac565b91505092915050565b6139f78161398b565b82525050565b600081519050919050565b600082825260208201905092915050565b60005b83811015613a37578082015181840152602081019050613a1c565b83811115613a46576000848401525b50505050565b6000601f19601f8301169050919050565b6000613a68826139fd565b613a728185613a08565b9350613a82818560208601613a19565b613a8b81613a4c565b840191505092915050565b600073ffffffffffffffffffffffffffffffffffffffff82169050919050565b6000613ac182613a96565b9050919050565b613ad181613ab6565b82525050565b60008115159050919050565b613aec81613ad7565b82525050565b600061012082019050613b08600083018c6139ee565b8181036020830152613b1a818b613a5d565b9050613b29604083018a613ac8565b613b3660608301896139ee565b613b4360808301886139ee565b613b5060a08301876139ee565b613b5d60c08301866139ee565b613b6a60e08301856139ee565b613b78610100830184613ae3565b9a9950505050505050505050565b60007fffffffff0000000000000000000000000000000000000000000000000000000082169050919050565b613bbb81613b86565b8114613bc657600080fd5b50565b600081359050613bd881613bb2565b92915050565b600060208284031215613bf457613bf3613981565b5b6000613c0284828501613bc9565b91505092915050565b6000602082019050613c206000830184613ae3565b92915050565b613c2f81613ab6565b8114613c3a57600080fd5b50565b600081359050613c4c81613c26565b92915050565b600060208284031215613c6857613c67613981565b5b6000613c7684828501613c3d565b91505092915050565b6000602082019050613c9460008301846139ee565b92915050565b6000819050919050565b613cad81613c9a565b8114613cb857600080fd5b50565b600081359050613cca81613ca4565b92915050565b600060208284031215613ce657613ce5613981565b5b6000613cf484828501613cbb565b91505092915050565b613d0681613c9a565b82525050565b6000602082019050613d216000830184613cfd565b92915050565b60008060408385031215613d3e57613d3d613981565b5b6000613d4c85828601613cbb565b9250506020613d5d85828601613c3d565b9150509250929050565b600080fd5b600080fd5b7f4e487b7100000000000000000000000000000000000000000000000000000000600052604160045260246000fd5b613da982613a4c565b810181811067ffffffffffffffff82111715613dc857613dc7613d71565b5b80604052505050565b6000613ddb613977565b9050613de78282613da0565b919050565b600067ffffffffffffffff821115613e0757613e06613d71565b5b613e1082613a4c565b9050602081019050919050565b82818337600083830152505050565b6000613e3f613e3a84613dec565b613dd1565b905082815260208101848484011115613e5b57613e5a613d6c565b5b613e66848285613e1d565b509392505050565b600082601f830112613e8357613e82613d67565b5b8135613e93848260208601613e2c565b91505092915050565b600080600080600060a08688031215613eb857613eb7613981565b5b600086013567ffffffffffffffff811115613ed657613ed5613986565b5b613ee288828901613e6e565b955050602086013567ffffffffffffffff811115613f0357613f02613986565b5b613f0f88828901613e6e565b9450506040613f20888289016139ac565b9350506060613f31888289016139ac565b9250506080613f42888289016139ac565b9150509295509295909350565b60008060408385031215613f6657613f65613981565b5b6000613f7485828601613c3d565b9250506020613f85858286016139ac565b9150509250929050565b613f988161398b565b82525050565b600082825260208201905092915050565b6000613fba826139fd565b613fc48185613f9e565b9350613fd4818560208601613a19565b613fdd81613a4c565b840191505092915050565b6000613ff382613a96565b9050919050565b61400381613fe8565b82525050565b61401281613ad7565b82525050565b6000610160830160008301516140316000860182613f8f565b50602083015184820360208601526140498282613faf565b915050604083015161405e6040860182613ffa565b5060608301516140716060860182614009565b5060808301516140846080860182614009565b5060a083015161409760a0860182613f8f565b5060c08301516140aa60c0860182613f8f565b5060e08301516140bd60e0860182613f8f565b506101008301516140d2610100860182613f8f565b506101208301516140e7610120860182613f8f565b506101408301516140fc610140860182613f8f565b508091505092915050565b600060208201905081810360008301526141218184614018565b905092915050565b600081519050919050565b600082825260208201905092915050565b6000819050602082019050919050565b60006101608301600083015161416e6000860182613f8f565b50602083015184820360208601526141868282613faf565b915050604083015161419b6040860182613ffa565b5060608301516141ae6060860182614009565b5060808301516141c16080860182614009565b5060a08301516141d460a0860182613f8f565b5060c08301516141e760c0860182613f8f565b5060e08301516141fa60e0860182613f8f565b5061010083015161420f610100860182613f8f565b50610120830151614224610120860182613f8f565b50610140830151614239610140860182613f8f565b508091505092915050565b60006142508383614155565b905092915050565b6000602082019050919050565b600061427082614129565b61427a8185614134565b93508360208202850161428c85614145565b8060005b858110156142c857848403895281516142a98582614244565b94506142b483614258565b925060208a01995050600181019050614290565b50829750879550505050505092915050565b600060208201905081810360008301526142f48184614265565b905092915050565b61430581613fe8565b82525050565b600061016082019050614321600083018e6139ee565b8181036020830152614333818d613a5d565b9050614342604083018c6142fc565b61434f606083018b613ae3565b61435c608083018a613ae3565b61436960a08301896139ee565b61437660c08301886139ee565b61438360e08301876139ee565b6143916101008301866139ee565b61439f6101208301856139ee565b6143ad6101408301846139ee565b9c9b505050505050505050505050565b600080604083850312156143d4576143d3613981565b5b60006143e2858286016139ac565b92505060206143f3858286016139ac565b9150509250929050565b600081519050919050565b600082825260208201905092915050565b6000819050602082019050919050565b61443281613ab6565b82525050565b6000610120830160008301516144516000860182613f8f565b50602083015184820360208601526144698282613faf565b915050604083015161447e6040860182614429565b5060608301516144916060860182613f8f565b5060808301516144a46080860182613f8f565b5060a08301516144b760a0860182613f8f565b5060c08301516144ca60c0860182613f8f565b5060e08301516144dd60e0860182613f8f565b506101008301516144f2610100860182614009565b508091505092915050565b60006145098383614438565b905092915050565b6000602082019050919050565b6000614529826143fd565b6145338185614408565b93508360208202850161454585614419565b8060005b85811015614581578484038952815161456285826144fd565b945061456d83614511565b925060208a01995050600181019050614549565b50829750879550505050505092915050565b600060208201905081810360008301526145ad818461451e565b905092915050565b600060408201905081810360008301526145cf8185613a5d565b90506145de60208301846139ee565b9392505050565b7f557365722068617320616c726561647920766f74656420666f7220746869732060008201527f70726f706f73616c000000000000000000000000000000000000000000000000602082015250565b6000614641602883613a08565b915061464c826145e5565b604082019050919050565b6000602082019050818103600083015261467081614634565b9050919050565b7f566f74696e6720706572696f642068617320656e646564000000000000000000600082015250565b60006146ad601783613a08565b91506146b882614677565b602082019050919050565b600060208201905081810360008301526146dc816146a0565b9050919050565b7f4e487b7100000000000000000000000000000000000000000000000000000000600052601160045260246000fd5b600061471d8261398b565b91506147288361398b565b9250827fffffffffffffffffffffffffffffffffffffffffffffffffffffffffffffffff0382111561475d5761475c6146e3565b5b828201905092915050565b600060608201905061477d60008301866139ee565b61478a6020830185613ac8565b61479760408301846139ee565b949350505050565b7f4e487b7100000000000000000000000000000000000000000000000000000000600052602260045260246000fd5b600060028204905060018216806147e657607f821691505b602082108114156147fa576147f961479f565b5b50919050565b7f4f6e6c792074686520696e7374727563746f722063616e20706572666f726d2060008201527f7468697320616374697669747900000000000000000000000000000000000000602082015250565b600061485c602d83613a08565b915061486782614800565b604082019050919050565b6000602082019050818103600083015261488b8161484f565b9050919050565b7f5468697320636c6173732068617320616c726561647920737461727465640000600082015250565b60006148c8601e83613a08565b91506148d382614892565b602082019050919050565b600060208201905081810360008301526148f7816148bb565b9050919050565b7f5468697320636c6173732068617320616c726561647920656e64656400000000600082015250565b6000614934601c83613a08565b915061493f826148fe565b602082019050919050565b6000602082019050818103600083015261496381614927565b9050919050565b7f4e6f7420656e6f7567682073747564656e747320656e726f6c6c656420746f2060008201527f73746172742074686520636c6173730000000000000000000000000000000000602082015250565b60006149c6602f83613a08565b91506149d18261496a565b604082019050919050565b600060208201905081810360008301526149f5816149b9565b9050919050565b7f436c61737320686173206e6f7420656e64656400000000000000000000000000600082015250565b6000614a32601383613a08565b9150614a3d826149fc565b602082019050919050565b60006020820190508181036000830152614a6181614a25565b9050919050565b7f436c61737320686173206e6f2062616c616e6365000000000000000000000000600082015250565b6000614a9e601483613a08565b9150614aa982614a68565b602082019050919050565b60006020820190508181036000830152614acd81614a91565b9050919050565b7f4e487b7100000000000000000000000000000000000000000000000000000000600052601260045260246000fd5b6000614b0e8261398b565b9150614b198361398b565b925082614b2957614b28614ad4565b5b828204905092915050565b7f4e6f7420656e6f7567682073747564656e74732068617665207261746564207460008201527f686520636c617373000000000000000000000000000000000000000000000000602082015250565b6000614b90602883613a08565b9150614b9b82614b34565b604082019050919050565b60006020820190508181036000830152614bbf81614b83565b9050919050565b600081905092915050565b50565b6000614be1600083614bc6565b9150614bec82614bd1565b600082019050919050565b6000614c0282614bd4565b9150819050919050565b7f676574506169643a20756e61626c6520746f2073656e642076616c75652c207260008201527f6563697069656e74206d61792068617665207265766572746564000000000000602082015250565b6000614c68603a83613a08565b9150614c7382614c0c565b604082019050919050565b60006020820190508181036000830152614c9781614c5b565b9050919050565b7f43616c6c6572206973206e6f742061206d656d62657221000000000000000000600082015250565b6000614cd4601783613a08565b9150614cdf82614c9e565b602082019050919050565b60006020820190508181036000830152614d0381614cc7565b9050919050565b6000614d158261398b565b91507fffffffffffffffffffffffffffffffffffffffffffffffffffffffffffffffff821415614d4857614d476146e3565b5b600182019050919050565b7f416363657373436f6e74726f6c3a2063616e206f6e6c792072656e6f756e636560008201527f20726f6c657320666f722073656c660000000000000000000000000000000000602082015250565b6000614daf602f83613a08565b9150614dba82614d53565b604082019050919050565b60006020820190508181036000830152614dde81614da2565b9050919050565b7f4e487b7100000000000000000000000000000000000000000000000000000000600052603260045260246000fd5b7f5468697320636c61737320686173206e6f742073746172746564000000000000600082015250565b6000614e4a601a83613a08565b9150614e5582614e14565b602082019050919050565b60006020820190508181036000830152614e7981614e3d565b9050919050565b7f4e6f7420656e6f7567682045544820746f206a6f696e207468697320636c617360008201527f7300000000000000000000000000000000000000000000000000000000000000602082015250565b6000614edc602183613a08565b9150614ee782614e80565b604082019050919050565b60006020820190508181036000830152614f0b81614ecf565b9050919050565b7f436c6173732069732066756c6c00000000000000000000000000000000000000600082015250565b6000614f48600d83613a08565b9150614f5382614f12565b602082019050919050565b60006020820190508181036000830152614f7781614f3b565b9050919050565b7f596f752061726520616c726561647920656e726f6c6c656420696e207468697360008201527f20636c6173730000000000000000000000000000000000000000000000000000602082015250565b6000614fda602683613a08565b9150614fe582614f7e565b604082019050919050565b6000602082019050818103600083015261500981614fcd565b9050919050565b7f53747564656e7420686173206e6f2062616c616e636500000000000000000000600082015250565b6000615046601683613a08565b915061505182615010565b602082019050919050565b6000602082019050818103600083015261507581615039565b9050919050565b7f476574526566756e643a20756e61626c6520746f2073656e642076616c75652c60008201527f20726563697069656e74206d6179206861766520726576657274656400000000602082015250565b60006150d8603c83613a08565b91506150e38261507c565b604082019050919050565b60006020820190508181036000830152615107816150cb565b9050919050565b7f53636f7265206d757374206265206265747765656e203120616e642035000000600082015250565b6000615144601d83613a08565b915061514f8261510e565b602082019050919050565b6000602082019050818103600083015261517381615137565b9050919050565b7f55736572206973206e6f7420656e726f6c6c656420696e207468697320636c6160008201527f7373000000000000000000000000000000000000000000000000000000000000602082015250565b60006151d6602283613a08565b91506151e18261517a565b604082019050919050565b60006020820190508181036000830152615205816151c9565b9050919050565b7f43616c6c657220686173207261746564207468697320636c617373206265666f60008201527f7265000000000000000000000000000000000000000000000000000000000000602082015250565b6000615268602283613a08565b91506152738261520c565b604082019050919050565b600060208201905081810360008301526152978161525b565b9050919050565b7f416c6c2073747564656e747320686176652072617465642074686520636c617360008201527f7300000000000000000000000000000000000000000000000000000000000000602082015250565b60006152fa602183613a08565b91506153058261529e565b604082019050919050565b60006020820190508181036000830152615329816152ed565b9050919050565b600061533b8261398b565b91506153468361398b565b925082821015615359576153586146e3565b5b828203905092915050565b600061536f8261398b565b915061537a8361398b565b9250817fffffffffffffffffffffffffffffffffffffffffffffffffffffffffffffffff04831182151516156153b3576153b26146e3565b5b828202905092915050565b7f4e6f7420656e6f7567682045544820746f206a6f696e207468652044414f0000600082015250565b60006153f4601e83613a08565b91506153ff826153be565b602082019050919050565b60006020820190508181036000830152615423816153e7565b9050919050565b7f43616c6c657220697320616c72656164792061206d656d626572210000000000600082015250565b6000615460601b83613a08565b915061546b8261542a565b602082019050919050565b6000602082019050818103600083015261548f81615453565b9050919050565b7f436c61737320646f6573206e6f74206861766520656e6f7567682062616c616e60008201527f6365000000000000000000000000000000000000000000000000000000000000602082015250565b60006154f2602283613a08565b91506154fd82615496565b604082019050919050565b60006020820190508181036000830152615521816154e5565b9050919050565b6000819050919050565b600061554d61554861554384613a96565b615528565b613a96565b9050919050565b600061555f82615532565b9050919050565b600061557182615554565b9050919050565b61558181615566565b82525050565b600060808201905061559c60008301876139ee565b6155a96020830186615578565b6155b660408301856139ee565b6155c360608301846139ee565b95945050505050565b600081905092915050565b7f416363657373436f6e74726f6c3a206163636f756e7420000000000000000000600082015250565b600061560d6017836155cc565b9150615618826155d7565b601782019050919050565b600061562e826139fd565b61563881856155cc565b9350615648818560208601613a19565b80840191505092915050565b7f206973206d697373696e6720726f6c6520000000000000000000000000000000600082015250565b600061568a6011836155cc565b915061569582615654565b601182019050919050565b60006156ab82615600565b91506156b78285615623565b91506156c28261567d565b91506156ce8284615623565b91508190509392505050565b600060208201905081810360008301526156f48184613a5d565b905092915050565b60006157078261398b565b9150600082141561571b5761571a6146e3565b5b600182039050919050565b7f537472696e67733a20686578206c656e67746820696e73756666696369656e74600082015250565b600061575c602083613a08565b915061576782615726565b602082019050919050565b6000602082019050818103600083015261578b8161574f565b905091905056fea26469706673582212201a407043db395c071b71e8dca26c8a9a5226cd7936d684ee7d7b5e98d45d1c8464736f6c63430008090033",
  "linkReferences": {},
  "deployedLinkReferences": {}
}