{
  "_format": "hh-sol-artifact-1",
  "contractName": "EducationDAO",
  "sourceName": "contracts/EducationDAO.sol",
  "abi": [
    {
      "inputs": [
        {
          "internalType": "uint256",
          "name": "_memberFee",
          "type": "uint256"
        }
      ],
      "stateMutability": "nonpayable",
      "type": "constructor"
    },
    {
      "anonymous": false,
      "inputs": [
        {
          "indexed": false,
          "internalType": "uint256",
          "name": "proposalId",
          "type": "uint256"
        },
        {
          "indexed": false,
          "internalType": "address",
          "name": "creatorAddress",
          "type": "address"
        },
        {
          "indexed": false,
          "internalType": "uint256",
          "name": "minVotesRequired",
          "type": "uint256"
        },
        {
          "indexed": false,
          "internalType": "uint256",
          "name": "voteCount",
          "type": "uint256"
        }
      ],
      "name": "NewProposalCreated",
      "type": "event"
    },
    {
      "anonymous": false,
      "inputs": [
        {
          "indexed": true,
          "internalType": "bytes32",
          "name": "role",
          "type": "bytes32"
        },
        {
          "indexed": true,
          "internalType": "bytes32",
          "name": "previousAdminRole",
          "type": "bytes32"
        },
        {
          "indexed": true,
          "internalType": "bytes32",
          "name": "newAdminRole",
          "type": "bytes32"
        }
      ],
      "name": "RoleAdminChanged",
      "type": "event"
    },
    {
      "anonymous": false,
      "inputs": [
        {
          "indexed": true,
          "internalType": "bytes32",
          "name": "role",
          "type": "bytes32"
        },
        {
          "indexed": true,
          "internalType": "address",
          "name": "account",
          "type": "address"
        },
        {
          "indexed": true,
          "internalType": "address",
          "name": "sender",
          "type": "address"
        }
      ],
      "name": "RoleGranted",
      "type": "event"
    },
    {
      "anonymous": false,
      "inputs": [
        {
          "indexed": true,
          "internalType": "bytes32",
          "name": "role",
          "type": "bytes32"
        },
        {
          "indexed": true,
          "internalType": "address",
          "name": "account",
          "type": "address"
        },
        {
          "indexed": true,
          "internalType": "address",
          "name": "sender",
          "type": "address"
        }
      ],
      "name": "RoleRevoked",
      "type": "event"
    },
    {
      "stateMutability": "payable",
      "type": "fallback"
    },
    {
      "inputs": [],
      "name": "DEFAULT_ADMIN_ROLE",
      "outputs": [
        {
          "internalType": "bytes32",
          "name": "",
          "type": "bytes32"
        }
      ],
      "stateMutability": "view",
      "type": "function"
    },
    {
      "inputs": [],
      "name": "INSTRUCTOR_ROLE",
      "outputs": [
        {
          "internalType": "bytes32",
          "name": "",
          "type": "bytes32"
        }
      ],
      "stateMutability": "view",
      "type": "function"
    },
    {
      "inputs": [],
      "name": "MEMBER_ROLE",
      "outputs": [
        {
          "internalType": "bytes32",
          "name": "",
          "type": "bytes32"
        }
      ],
      "stateMutability": "view",
      "type": "function"
    },
    {
      "inputs": [],
      "name": "STUDENT_ROLE",
      "outputs": [
        {
          "internalType": "bytes32",
          "name": "",
          "type": "bytes32"
        }
      ],
      "stateMutability": "view",
      "type": "function"
    },
    {
      "inputs": [
        {
          "internalType": "address",
          "name": "instAddress",
          "type": "address"
        }
      ],
      "name": "addInstructor",
      "outputs": [],
      "stateMutability": "nonpayable",
      "type": "function"
    },
    {
      "inputs": [
        {
          "internalType": "uint256",
          "name": "",
          "type": "uint256"
        }
      ],
      "name": "classBalances",
      "outputs": [
        {
          "internalType": "uint256",
          "name": "",
          "type": "uint256"
        }
      ],
      "stateMutability": "view",
      "type": "function"
    },
    {
      "inputs": [],
      "name": "classCount",
      "outputs": [
        {
          "internalType": "uint256",
          "name": "",
          "type": "uint256"
        }
      ],
      "stateMutability": "view",
      "type": "function"
    },
    {
      "inputs": [
        {
          "internalType": "address",
          "name": "",
          "type": "address"
        },
        {
          "internalType": "uint256",
          "name": "",
          "type": "uint256"
        }
      ],
      "name": "classReviews",
      "outputs": [
        {
          "internalType": "bool",
          "name": "",
          "type": "bool"
        }
      ],
      "stateMutability": "view",
      "type": "function"
    },
    {
      "inputs": [
        {
          "internalType": "uint256",
          "name": "",
          "type": "uint256"
        }
      ],
      "name": "classes",
      "outputs": [
        {
          "internalType": "uint256",
          "name": "id",
          "type": "uint256"
        },
        {
          "internalType": "string",
          "name": "name",
          "type": "string"
        },
        {
          "internalType": "address payable",
          "name": "instructor",
          "type": "address"
        },
        {
          "internalType": "bool",
          "name": "started",
          "type": "bool"
        },
        {
          "internalType": "bool",
          "name": "ended",
          "type": "bool"
        },
        {
          "internalType": "uint256",
          "name": "minNumberOfStudents",
          "type": "uint256"
        },
        {
          "internalType": "uint256",
          "name": "maxNumberOfStudents",
          "type": "uint256"
        },
        {
          "internalType": "uint256",
          "name": "currentNumberOfStudents",
          "type": "uint256"
        },
        {
          "internalType": "uint256",
          "name": "price",
          "type": "uint256"
        },
        {
          "internalType": "uint256",
          "name": "reviewScore",
          "type": "uint256"
        },
        {
          "internalType": "uint256",
          "name": "numberOfReviews",
          "type": "uint256"
        }
      ],
      "stateMutability": "view",
      "type": "function"
    },
    {
      "inputs": [
        {
          "internalType": "string",
          "name": "className",
          "type": "string"
        },
        {
          "internalType": "address payable",
          "name": "_instructor",
          "type": "address"
        },
        {
          "internalType": "uint256",
          "name": "_minNumberOfStudents",
          "type": "uint256"
        },
        {
          "internalType": "uint256",
          "name": "_maxNumberOfStudents",
          "type": "uint256"
        },
        {
          "internalType": "uint256",
          "name": "_price",
          "type": "uint256"
        }
      ],
      "name": "createClass",
      "outputs": [],
      "stateMutability": "nonpayable",
      "type": "function"
    },
    {
      "inputs": [
        {
          "internalType": "string",
          "name": "_name",
          "type": "string"
        },
        {
          "internalType": "string",
          "name": "_data",
          "type": "string"
        },
        {
          "internalType": "uint256",
          "name": "_price",
          "type": "uint256"
        },
        {
          "internalType": "uint256",
          "name": "_minNumberOfStudents",
          "type": "uint256"
        },
        {
          "internalType": "uint256",
          "name": "_maxNumberOfStudents",
          "type": "uint256"
        }
      ],
      "name": "createProposal",
      "outputs": [],
      "stateMutability": "nonpayable",
      "type": "function"
    },
    {
      "inputs": [
        {
          "internalType": "address",
          "name": "_address",
          "type": "address"
        },
        {
          "internalType": "uint256",
          "name": "_proposalId",
          "type": "uint256"
        }
      ],
      "name": "didThisAddressVote",
      "outputs": [
        {
          "internalType": "bool",
          "name": "",
          "type": "bool"
        }
      ],
      "stateMutability": "view",
      "type": "function"
    },
    {
      "inputs": [
        {
          "internalType": "uint256",
          "name": "classId",
          "type": "uint256"
        }
      ],
      "name": "endClass",
      "outputs": [],
      "stateMutability": "nonpayable",
      "type": "function"
    },
    {
      "inputs": [],
      "name": "getAllClasses",
      "outputs": [
        {
          "components": [
            {
              "internalType": "uint256",
              "name": "id",
              "type": "uint256"
            },
            {
              "internalType": "string",
              "name": "name",
              "type": "string"
            },
            {
              "internalType": "address payable",
              "name": "instructor",
              "type": "address"
            },
            {
              "internalType": "bool",
              "name": "started",
              "type": "bool"
            },
            {
              "internalType": "bool",
              "name": "ended",
              "type": "bool"
            },
            {
              "internalType": "uint256",
              "name": "minNumberOfStudents",
              "type": "uint256"
            },
            {
              "internalType": "uint256",
              "name": "maxNumberOfStudents",
              "type": "uint256"
            },
            {
              "internalType": "uint256",
              "name": "currentNumberOfStudents",
              "type": "uint256"
            },
            {
              "internalType": "uint256",
              "name": "price",
              "type": "uint256"
            },
            {
              "internalType": "uint256",
              "name": "reviewScore",
              "type": "uint256"
            },
            {
              "internalType": "uint256",
              "name": "numberOfReviews",
              "type": "uint256"
            }
          ],
          "internalType": "struct EducationDAO.Class[]",
          "name": "",
          "type": "tuple[]"
        }
      ],
      "stateMutability": "view",
      "type": "function"
    },
    {
      "inputs": [],
      "name": "getAllProposals",
      "outputs": [
        {
          "components": [
            {
              "internalType": "uint256",
              "name": "id",
              "type": "uint256"
            },
            {
              "internalType": "string",
              "name": "name",
              "type": "string"
            },
            {
              "internalType": "address",
              "name": "instructor",
              "type": "address"
            },
            {
              "internalType": "uint256",
              "name": "voteCount",
              "type": "uint256"
            },
            {
              "internalType": "uint256",
              "name": "end",
              "type": "uint256"
            },
            {
              "internalType": "uint256",
              "name": "price",
              "type": "uint256"
            },
            {
              "internalType": "uint256",
              "name": "minimumVotes",
              "type": "uint256"
            },
            {
              "internalType": "uint256",
              "name": "maxNumberOfStudents",
              "type": "uint256"
            },
            {
              "internalType": "bool",
              "name": "executed",
              "type": "bool"
            }
          ],
          "internalType": "struct EducationDAO.TrainingProposal[]",
          "name": "",
          "type": "tuple[]"
        }
      ],
      "stateMutability": "view",
      "type": "function"
    },
    {
      "inputs": [
        {
          "internalType": "uint256",
          "name": "_classId",
          "type": "uint256"
        }
      ],
      "name": "getClass",
      "outputs": [
        {
          "components": [
            {
              "internalType": "uint256",
              "name": "id",
              "type": "uint256"
            },
            {
              "internalType": "string",
              "name": "name",
              "type": "string"
            },
            {
              "internalType": "address payable",
              "name": "instructor",
              "type": "address"
            },
            {
              "internalType": "bool",
              "name": "started",
              "type": "bool"
            },
            {
              "internalType": "bool",
              "name": "ended",
              "type": "bool"
            },
            {
              "internalType": "uint256",
              "name": "minNumberOfStudents",
              "type": "uint256"
            },
            {
              "internalType": "uint256",
              "name": "maxNumberOfStudents",
              "type": "uint256"
            },
            {
              "internalType": "uint256",
              "name": "currentNumberOfStudents",
              "type": "uint256"
            },
            {
              "internalType": "uint256",
              "name": "price",
              "type": "uint256"
            },
            {
              "internalType": "uint256",
              "name": "reviewScore",
              "type": "uint256"
            },
            {
              "internalType": "uint256",
              "name": "numberOfReviews",
              "type": "uint256"
            }
          ],
          "internalType": "struct EducationDAO.Class",
          "name": "",
          "type": "tuple"
        }
      ],
      "stateMutability": "view",
      "type": "function"
    },
    {
      "inputs": [
        {
          "internalType": "uint256",
          "name": "_classId",
          "type": "uint256"
        }
      ],
      "name": "getClassBalance",
      "outputs": [
        {
          "internalType": "uint256",
          "name": "",
          "type": "uint256"
        }
      ],
      "stateMutability": "view",
      "type": "function"
    },
    {
      "inputs": [
        {
          "internalType": "address",
          "name": "_member",
          "type": "address"
        }
      ],
      "name": "getClassesForStudent",
      "outputs": [
        {
          "components": [
            {
              "internalType": "uint256",
              "name": "id",
              "type": "uint256"
            },
            {
              "internalType": "string",
              "name": "name",
              "type": "string"
            },
            {
              "internalType": "address payable",
              "name": "instructor",
              "type": "address"
            },
            {
              "internalType": "bool",
              "name": "started",
              "type": "bool"
            },
            {
              "internalType": "bool",
              "name": "ended",
              "type": "bool"
            },
            {
              "internalType": "uint256",
              "name": "minNumberOfStudents",
              "type": "uint256"
            },
            {
              "internalType": "uint256",
              "name": "maxNumberOfStudents",
              "type": "uint256"
            },
            {
              "internalType": "uint256",
              "name": "currentNumberOfStudents",
              "type": "uint256"
            },
            {
              "internalType": "uint256",
              "name": "price",
              "type": "uint256"
            },
            {
              "internalType": "uint256",
              "name": "reviewScore",
              "type": "uint256"
            },
            {
              "internalType": "uint256",
              "name": "numberOfReviews",
              "type": "uint256"
            }
          ],
          "internalType": "struct EducationDAO.Class[]",
          "name": "",
          "type": "tuple[]"
        }
      ],
      "stateMutability": "view",
      "type": "function"
    },
    {
      "inputs": [
        {
          "internalType": "uint256",
          "name": "classId",
          "type": "uint256"
        }
      ],
      "name": "getPaid",
      "outputs": [],
      "stateMutability": "nonpayable",
      "type": "function"
    },
    {
      "inputs": [],
      "name": "getRefund",
      "outputs": [],
      "stateMutability": "nonpayable",
      "type": "function"
    },
    {
      "inputs": [
        {
          "internalType": "bytes32",
          "name": "role",
          "type": "bytes32"
        }
      ],
      "name": "getRoleAdmin",
      "outputs": [
        {
          "internalType": "bytes32",
          "name": "",
          "type": "bytes32"
        }
      ],
      "stateMutability": "view",
      "type": "function"
    },
    {
      "inputs": [
        {
          "internalType": "address",
          "name": "_student",
          "type": "address"
        }
      ],
      "name": "getStudentBalance",
      "outputs": [
        {
          "internalType": "uint256",
          "name": "",
          "type": "uint256"
        }
      ],
      "stateMutability": "view",
      "type": "function"
    },
    {
      "inputs": [
        {
          "internalType": "bytes32",
          "name": "role",
          "type": "bytes32"
        },
        {
          "internalType": "address",
          "name": "account",
          "type": "address"
        }
      ],
      "name": "grantRole",
      "outputs": [],
      "stateMutability": "nonpayable",
      "type": "function"
    },
    {
      "inputs": [
        {
          "internalType": "bytes32",
          "name": "role",
          "type": "bytes32"
        },
        {
          "internalType": "address",
          "name": "account",
          "type": "address"
        }
      ],
      "name": "hasRole",
      "outputs": [
        {
          "internalType": "bool",
          "name": "",
          "type": "bool"
        }
      ],
      "stateMutability": "view",
      "type": "function"
    },
    {
      "inputs": [
        {
          "internalType": "address",
          "name": "_member",
          "type": "address"
        },
        {
          "internalType": "uint256",
          "name": "classId",
          "type": "uint256"
        }
      ],
      "name": "isMemberEnrolledInClass",
      "outputs": [
        {
          "internalType": "bool",
          "name": "",
          "type": "bool"
        }
      ],
      "stateMutability": "view",
      "type": "function"
    },
    {
      "inputs": [
        {
          "internalType": "uint256",
          "name": "classId",
          "type": "uint256"
        }
      ],
      "name": "joinClass",
      "outputs": [],
      "stateMutability": "payable",
      "type": "function"
    },
    {
      "inputs": [],
      "name": "joinDAO",
      "outputs": [],
      "stateMutability": "payable",
      "type": "function"
    },
    {
      "inputs": [],
      "name": "memberCount",
      "outputs": [
        {
          "internalType": "uint256",
          "name": "",
          "type": "uint256"
        }
      ],
      "stateMutability": "view",
      "type": "function"
    },
    {
      "inputs": [],
      "name": "memberFee",
      "outputs": [
        {
          "internalType": "uint256",
          "name": "",
          "type": "uint256"
        }
      ],
      "stateMutability": "view",
      "type": "function"
    },
    {
      "inputs": [],
      "name": "nextProposalId",
      "outputs": [
        {
          "internalType": "uint256",
          "name": "",
          "type": "uint256"
        }
      ],
      "stateMutability": "view",
      "type": "function"
    },
    {
      "inputs": [
        {
          "internalType": "uint256",
          "name": "",
          "type": "uint256"
        }
      ],
      "name": "proposals",
      "outputs": [
        {
          "internalType": "uint256",
          "name": "id",
          "type": "uint256"
        },
        {
          "internalType": "string",
          "name": "name",
          "type": "string"
        },
        {
          "internalType": "address",
          "name": "instructor",
          "type": "address"
        },
        {
          "internalType": "uint256",
          "name": "voteCount",
          "type": "uint256"
        },
        {
          "internalType": "uint256",
          "name": "end",
          "type": "uint256"
        },
        {
          "internalType": "uint256",
          "name": "price",
          "type": "uint256"
        },
        {
          "internalType": "uint256",
          "name": "minimumVotes",
          "type": "uint256"
        },
        {
          "internalType": "uint256",
          "name": "maxNumberOfStudents",
          "type": "uint256"
        },
        {
          "internalType": "bool",
          "name": "executed",
          "type": "bool"
        }
      ],
      "stateMutability": "view",
      "type": "function"
    },
    {
      "inputs": [
        {
          "internalType": "uint256",
          "name": "classId",
          "type": "uint256"
        },
        {
          "internalType": "uint256",
          "name": "_score",
          "type": "uint256"
        }
      ],
      "name": "rateClass",
      "outputs": [],
      "stateMutability": "nonpayable",
      "type": "function"
    },
    {
      "inputs": [
        {
          "internalType": "bytes32",
          "name": "role",
          "type": "bytes32"
        },
        {
          "internalType": "address",
          "name": "account",
          "type": "address"
        }
      ],
      "name": "renounceRole",
      "outputs": [],
      "stateMutability": "nonpayable",
      "type": "function"
    },
    {
      "inputs": [
        {
          "internalType": "bytes32",
          "name": "role",
          "type": "bytes32"
        },
        {
          "internalType": "address",
          "name": "account",
          "type": "address"
        }
      ],
      "name": "revokeRole",
      "outputs": [],
      "stateMutability": "nonpayable",
      "type": "function"
    },
    {
      "inputs": [
        {
          "internalType": "uint256",
          "name": "newMemberFee",
          "type": "uint256"
        }
      ],
      "name": "setMemberFee",
      "outputs": [],
      "stateMutability": "nonpayable",
      "type": "function"
    },
    {
      "inputs": [
        {
          "internalType": "uint256",
          "name": "classId",
          "type": "uint256"
        }
      ],
      "name": "startClass",
      "outputs": [],
      "stateMutability": "nonpayable",
      "type": "function"
    },
    {
      "inputs": [
        {
          "internalType": "bytes4",
          "name": "interfaceId",
          "type": "bytes4"
        }
      ],
      "name": "supportsInterface",
      "outputs": [
        {
          "internalType": "bool",
          "name": "",
          "type": "bool"
        }
      ],
      "stateMutability": "view",
      "type": "function"
    },
    {
      "inputs": [
        {
          "internalType": "uint256",
          "name": "proposalId",
          "type": "uint256"
        }
      ],
      "name": "vote",
      "outputs": [],
      "stateMutability": "nonpayable",
      "type": "function"
    },
    {
      "inputs": [],
      "name": "voteTime",
      "outputs": [
        {
          "internalType": "uint256",
          "name": "",
          "type": "uint256"
        }
      ],
      "stateMutability": "view",
      "type": "function"
    },
    {
      "inputs": [
        {
          "internalType": "uint256",
          "name": "classId",
          "type": "uint256"
        }
      ],
      "name": "withdrawFromClass",
      "outputs": [],
      "stateMutability": "nonpayable",
      "type": "function"
    },
    {
      "stateMutability": "payable",
      "type": "receive"
    }
  ],
  "bytecode": "0x60806040523480156200001157600080fd5b5060405162005a5638038062005a56833981810160405281019062000037919062000265565b33600960006101000a81548173ffffffffffffffffffffffffffffffffffffffff021916908373ffffffffffffffffffffffffffffffffffffffff1602179055506200008d6000801b30620000ac60201b60201c565b80600b819055506000600c81905550610e10600f819055505062000297565b620000be8282620000c260201b60201c565b5050565b620000d48282620001b360201b60201c565b620001af57600160008084815260200190815260200160002060000160008373ffffffffffffffffffffffffffffffffffffffff1673ffffffffffffffffffffffffffffffffffffffff16815260200190815260200160002060006101000a81548160ff021916908315150217905550620001546200021d60201b60201c565b73ffffffffffffffffffffffffffffffffffffffff168173ffffffffffffffffffffffffffffffffffffffff16837f2f8788117e7eff1d82e926ec794901d17c78024a50270940304540a733656f0d60405160405180910390a45b5050565b600080600084815260200190815260200160002060000160008373ffffffffffffffffffffffffffffffffffffffff1673ffffffffffffffffffffffffffffffffffffffff16815260200190815260200160002060009054906101000a900460ff16905092915050565b600033905090565b600080fd5b6000819050919050565b6200023f816200022a565b81146200024b57600080fd5b50565b6000815190506200025f8162000234565b92915050565b6000602082840312156200027e576200027d62000225565b5b60006200028e848285016200024e565b91505092915050565b6157af80620002a76000396000f3fe60806040526004361061023f5760003560e01c806391d148541161012e578063cceb68f5116100ab578063eda47aeb1161006f578063eda47aeb14610944578063f63d13d714610981578063f7be43fb1461098b578063fc063f88146109b6578063fce3f379146109df57610285565b8063cceb68f51461085f578063d30988831461088a578063d547741f146108b5578063de8c7907146108de578063ec5f59f71461090757610285565b8063af70377c116100f2578063af70377c146107af578063b2d5ae44146107cb578063b3a6da75146107e2578063b9399e131461080b578063bcf93dd61461083457610285565b806391d14854146106c85780639a9a3ed914610705578063a10f469e1461072e578063a217fddf14610759578063ab9963171461078457610285565b80632f2ff15d116101bc5780635a5945d1116101805780635a5945d1146105c55780635f6fe4fd146106025780636bda75dd1461062b578063817dbe9f146106565780638bcf979c1461069d57610285565b80632f2ff15d146104d057806333423c06146104f957806336568abe1461052257806349dd4bd71461054b578063512d62df1461058857610285565b806311aee3801161020357806311aee380146103eb5780631f8e113414610416578063248a9ca31461043f5780632a92362c1461047c5780632ab09d14146104a557610285565b80630121b93f146102c6578063013cf08b146102ef57806301ffc9a71461033457806308b9ddd8146103715780630a7e8932146103ae57610285565b36610285576102836040518060400160405280600e81526020017f2d2d2d2d2d20726563656976653a00000000000000000000000000000000000081525034610a1c565b005b6102c46040518060400160405280600f81526020017f2d2d2d2d2d2066616c6c6261636b3a000000000000000000000000000000000081525034610a1c565b005b3480156102d257600080fd5b506102ed60048036038101906102e8919061397b565b610ab8565b005b3480156102fb57600080fd5b506103166004803603810190610311919061397b565b610d47565b60405161032b99989796959493929190613aac565b60405180910390f35b34801561034057600080fd5b5061035b60048036038101906103569190613b98565b610e4a565b6040516103689190613bc5565b60405180910390f35b34801561037d57600080fd5b5061039860048036038101906103939190613c0c565b610ec4565b6040516103a59190613c39565b60405180910390f35b3480156103ba57600080fd5b506103d560048036038101906103d0919061397b565b610f0d565b6040516103e29190613c39565b60405180910390f35b3480156103f757600080fd5b50610400610f2a565b60405161040d9190613c39565b60405180910390f35b34801561042257600080fd5b5061043d6004803603810190610438919061397b565b610f30565b005b34801561044b57600080fd5b5061046660048036038101906104619190613c8a565b611164565b6040516104739190613cc6565b60405180910390f35b34801561048857600080fd5b506104a3600480360381019061049e919061397b565b611183565b005b3480156104b157600080fd5b506104ba61147d565b6040516104c79190613c39565b60405180910390f35b3480156104dc57600080fd5b506104f760048036038101906104f29190613ce1565b611483565b005b34801561050557600080fd5b50610520600480360381019061051b9190613e56565b6114a4565b005b34801561052e57600080fd5b5061054960048036038101906105449190613ce1565b6116da565b005b34801561055757600080fd5b50610572600480360381019061056d9190613f09565b61175d565b60405161057f9190613bc5565b60405180910390f35b34801561059457600080fd5b506105af60048036038101906105aa919061397b565b6117c8565b6040516105bc91906140c1565b60405180910390f35b3480156105d157600080fd5b506105ec60048036038101906105e79190613c0c565b61195a565b6040516105f99190614294565b60405180910390f35b34801561060e57600080fd5b506106296004803603810190610624919061397b565b611ae2565b005b34801561063757600080fd5b50610640611afa565b60405161064d9190614294565b60405180910390f35b34801561066257600080fd5b5061067d6004803603810190610678919061397b565b611d2b565b6040516106949b9a999897969594939291906142c5565b60405180910390f35b3480156106a957600080fd5b506106b2611e47565b6040516106bf9190613cc6565b60405180910390f35b3480156106d457600080fd5b506106ef60048036038101906106ea9190613ce1565b611e6b565b6040516106fc9190613bc5565b60405180910390f35b34801561071157600080fd5b5061072c6004803603810190610727919061397b565b611ed5565b005b34801561073a57600080fd5b506107436120b1565b6040516107509190613cc6565b60405180910390f35b34801561076557600080fd5b5061076e6120d5565b60405161077b9190613cc6565b60405180910390f35b34801561079057600080fd5b506107996120dc565b6040516107a69190613c39565b60405180910390f35b6107c960048036038101906107c4919061397b565b6120e2565b005b3480156107d757600080fd5b506107e0612495565b005b3480156107ee57600080fd5b5061080960048036038101906108049190614377565b61263c565b005b34801561081757600080fd5b50610832600480360381019061082d9190613c0c565b612982565b005b34801561084057600080fd5b50610849612993565b6040516108569190613c39565b60405180910390f35b34801561086b57600080fd5b50610874612999565b604051610881919061454d565b60405180910390f35b34801561089657600080fd5b5061089f612b99565b6040516108ac9190613c39565b60405180910390f35b3480156108c157600080fd5b506108dc60048036038101906108d79190613ce1565b612b9f565b005b3480156108ea57600080fd5b506109056004803603810190610900919061459b565b612bc0565b005b34801561091357600080fd5b5061092e60048036038101906109299190613f09565b612d50565b60405161093b9190613bc5565b60405180910390f35b34801561095057600080fd5b5061096b6004803603810190610966919061397b565b612d7f565b6040516109789190613c39565b60405180910390f35b610989612d97565b005b34801561099757600080fd5b506109a0612f13565b6040516109ad9190613cc6565b60405180910390f35b3480156109c257600080fd5b506109dd60048036038101906109d8919061397b565b612f37565b005b3480156109eb57600080fd5b50610a066004803603810190610a019190613f09565b6131d9565b604051610a139190613bc5565b60405180910390f35b610ab48282604051602401610a32929190614632565b6040516020818303038152906040527f9710a9d0000000000000000000000000000000000000000000000000000000007bffffffffffffffffffffffffffffffffffffffffffffffffffffffff19166020820180517bffffffffffffffffffffffffffffffffffffffffffffffffffffffff8381831617835250505050613241565b5050565b7f829b824e2329e205435d941c9f13baf578548505283d29261236d8e6596d4636610ae28161326a565b600060016000848152602001908152602001600020905060001515600260003373ffffffffffffffffffffffffffffffffffffffff1673ffffffffffffffffffffffffffffffffffffffff168152602001908152602001600020600085815260200190815260200160002060009054906101000a900460ff16151514610b9d576040517f08c379a0000000000000000000000000000000000000000000000000000000008152600401610b94906146d4565b60405180910390fd5b80600401544210610be3576040517f08c379a0000000000000000000000000000000000000000000000000000000008152600401610bda90614740565b60405180910390fd5b6001600260003373ffffffffffffffffffffffffffffffffffffffff1673ffffffffffffffffffffffffffffffffffffffff168152602001908152602001600020600085815260200190815260200160002060006101000a81548160ff0219169083151502179055506001816003016000828254610c61919061478f565b92505081905550806006015481600301541415610d4257610d41816001018054610c8a90614814565b80601f0160208091040260200160405190810160405280929190818152602001828054610cb690614814565b8015610d035780601f10610cd857610100808354040283529160200191610d03565b820191906000526020600020905b815481529060010190602001808311610ce657829003601f168201915b50505050508260020160009054906101000a900473ffffffffffffffffffffffffffffffffffffffff16836006015484600701548560050154612bc0565b5b505050565b6001602052806000526040600020600091509050806000015490806001018054610d7090614814565b80601f0160208091040260200160405190810160405280929190818152602001828054610d9c90614814565b8015610de95780601f10610dbe57610100808354040283529160200191610de9565b820191906000526020600020905b815481529060010190602001808311610dcc57829003601f168201915b5050505050908060020160009054906101000a900473ffffffffffffffffffffffffffffffffffffffff16908060030154908060040154908060050154908060060154908060070154908060080160009054906101000a900460ff16905089565b60007f7965db0b000000000000000000000000000000000000000000000000000000007bffffffffffffffffffffffffffffffffffffffffffffffffffffffff1916827bffffffffffffffffffffffffffffffffffffffffffffffffffffffff19161480610ebd5750610ebc8261327e565b5b9050919050565b6000600660008373ffffffffffffffffffffffffffffffffffffffff1673ffffffffffffffffffffffffffffffffffffffff168152602001908152602001600020549050919050565b600060056000838152602001908152602001600020549050919050565b600c5481565b7f829b824e2329e205435d941c9f13baf578548505283d29261236d8e6596d4636610f5a8161326a565b8160006003600083815260200190815260200160002090508060020160009054906101000a900473ffffffffffffffffffffffffffffffffffffffff1673ffffffffffffffffffffffffffffffffffffffff163373ffffffffffffffffffffffffffffffffffffffff1614611004576040517f08c379a0000000000000000000000000000000000000000000000000000000008152600401610ffb906148b8565b60405180910390fd5b6000600360008681526020019081526020016000209050600015158160020160149054906101000a900460ff16151514611073576040517f08c379a000000000000000000000000000000000000000000000000000000000815260040161106a90614924565b60405180910390fd5b600015158160020160159054906101000a900460ff161515146110cb576040517f08c379a00000000000000000000000000000000000000000000000000000000081526004016110c290614990565b60405180910390fd5b806003015481600501541015611116576040517f08c379a000000000000000000000000000000000000000000000000000000000815260040161110d90614a22565b60405180910390fd5b60018160020160146101000a81548160ff02191690831515021790555061115d7fae4a0595970935aa5495afbbb72e5f1f6ff1062766b4a3028c0c9b7d5cf7e345336132e8565b5050505050565b6000806000838152602001908152602001600020600101549050919050565b7fae4a0595970935aa5495afbbb72e5f1f6ff1062766b4a3028c0c9b7d5cf7e3456111ad8161326a565b8160006003600083815260200190815260200160002090508060020160009054906101000a900473ffffffffffffffffffffffffffffffffffffffff1673ffffffffffffffffffffffffffffffffffffffff163373ffffffffffffffffffffffffffffffffffffffff1614611257576040517f08c379a000000000000000000000000000000000000000000000000000000000815260040161124e906148b8565b60405180910390fd5b6000600360008681526020019081526020016000209050600115158160020160159054906101000a900460ff161515146112c6576040517f08c379a00000000000000000000000000000000000000000000000000000000081526004016112bd90614a8e565b60405180910390fd5b600060056000878152602001908152602001600020541161131c576040517f08c379a000000000000000000000000000000000000000000000000000000000815260040161131390614afa565b60405180910390fd5b6002816005015461132d9190614b49565b81600801541015611373576040517f08c379a000000000000000000000000000000000000000000000000000000000815260040161136a90614bec565b60405180910390fd5b6000600560008781526020019081526020016000205490506000600560008881526020019081526020016000208190555060008260020160009054906101000a900473ffffffffffffffffffffffffffffffffffffffff1673ffffffffffffffffffffffffffffffffffffffff16826040516113ee90614c3d565b60006040518083038185875af1925050503d806000811461142b576040519150601f19603f3d011682016040523d82523d6000602084013e611430565b606091505b5050905080611474576040517f08c379a000000000000000000000000000000000000000000000000000000000815260040161146b90614cc4565b60405180910390fd5b50505050505050565b600e5481565b61148c82611164565b6114958161326a565b61149f83836132e8565b505050565b7f829b824e2329e205435d941c9f13baf578548505283d29261236d8e6596d46366114ce8161326a565b6114f87f829b824e2329e205435d941c9f13baf578548505283d29261236d8e6596d463633611e6b565b611537576040517f08c379a000000000000000000000000000000000000000000000000000000000815260040161152e90614d30565b60405180910390fd5b6000604051806101200160405280600e5481526020018881526020013373ffffffffffffffffffffffffffffffffffffffff168152602001828152602001600f5442611583919061478f565b81526020018681526020018581526020018481526020016000151581525060016000600e5481526020019081526020016000206000820151816000015560208201518160010190805190602001906115dc9291906137b6565b5060408201518160020160006101000a81548173ffffffffffffffffffffffffffffffffffffffff021916908373ffffffffffffffffffffffffffffffffffffffff160217905550606082015181600301556080820151816004015560a0820151816005015560c0820151816006015560e082015181600701556101008201518160080160006101000a81548160ff0219169083151502179055509050507fc2bf48e7927c455e5a435e151504c99381470f0bbd790df1d6093bafe1e3de91600e543386846040516116b19493929190614d50565b60405180910390a1600e60008154809291906116cc90614d95565b919050555050505050505050565b6116e26133c8565b73ffffffffffffffffffffffffffffffffffffffff168173ffffffffffffffffffffffffffffffffffffffff161461174f576040517f08c379a000000000000000000000000000000000000000000000000000000000815260040161174690614e50565b60405180910390fd5b61175982826133d0565b5050565b6000600460008473ffffffffffffffffffffffffffffffffffffffff1673ffffffffffffffffffffffffffffffffffffffff168152602001908152602001600020600101600083815260200190815260200160002060009054906101000a900460ff16905092915050565b6117d061383c565b60036000838152602001908152602001600020604051806101600160405290816000820154815260200160018201805461180990614814565b80601f016020809104026020016040519081016040528092919081815260200182805461183590614814565b80156118825780601f1061185757610100808354040283529160200191611882565b820191906000526020600020905b81548152906001019060200180831161186557829003601f168201915b505050505081526020016002820160009054906101000a900473ffffffffffffffffffffffffffffffffffffffff1673ffffffffffffffffffffffffffffffffffffffff1673ffffffffffffffffffffffffffffffffffffffff1681526020016002820160149054906101000a900460ff161515151581526020016002820160159054906101000a900460ff1615151515815260200160038201548152602001600482015481526020016005820154815260200160068201548152602001600782015481526020016008820154815250509050919050565b60606000600860008473ffffffffffffffffffffffffffffffffffffffff1673ffffffffffffffffffffffffffffffffffffffff1681526020019081526020016000208054905067ffffffffffffffff8111156119ba576119b9613d2b565b5b6040519080825280602002602001820160405280156119f357816020015b6119e061383c565b8152602001906001900390816119d85790505b50905060005b600860008573ffffffffffffffffffffffffffffffffffffffff1673ffffffffffffffffffffffffffffffffffffffff16815260200190815260200160002080549050811015611ad857611aa7600860008673ffffffffffffffffffffffffffffffffffffffff1673ffffffffffffffffffffffffffffffffffffffff1681526020019081526020016000208281548110611a9757611a96614e70565b5b90600052602060002001546117c8565b828281518110611aba57611ab9614e70565b5b60200260200101819052508080611ad090614d95565b9150506119f9565b5080915050919050565b6000801b611aef8161326a565b81600b819055505050565b60606000600d5467ffffffffffffffff811115611b1a57611b19613d2b565b5b604051908082528060200260200182016040528015611b5357816020015b611b4061383c565b815260200190600190039081611b385790505b50905060005b600d54811015611d235760036000600183611b74919061478f565b81526020019081526020016000206040518061016001604052908160008201548152602001600182018054611ba890614814565b80601f0160208091040260200160405190810160405280929190818152602001828054611bd490614814565b8015611c215780601f10611bf657610100808354040283529160200191611c21565b820191906000526020600020905b815481529060010190602001808311611c0457829003601f168201915b505050505081526020016002820160009054906101000a900473ffffffffffffffffffffffffffffffffffffffff1673ffffffffffffffffffffffffffffffffffffffff1673ffffffffffffffffffffffffffffffffffffffff1681526020016002820160149054906101000a900460ff161515151581526020016002820160159054906101000a900460ff161515151581526020016003820154815260200160048201548152602001600582015481526020016006820154815260200160078201548152602001600882015481525050828281518110611d0557611d04614e70565b5b60200260200101819052508080611d1b90614d95565b915050611b59565b508091505090565b6003602052806000526040600020600091509050806000015490806001018054611d5490614814565b80601f0160208091040260200160405190810160405280929190818152602001828054611d8090614814565b8015611dcd5780601f10611da257610100808354040283529160200191611dcd565b820191906000526020600020905b815481529060010190602001808311611db057829003601f168201915b5050505050908060020160009054906101000a900473ffffffffffffffffffffffffffffffffffffffff16908060020160149054906101000a900460ff16908060020160159054906101000a900460ff1690806003015490806004015490806005015490806006015490806007015490806008015490508b565b7fae4a0595970935aa5495afbbb72e5f1f6ff1062766b4a3028c0c9b7d5cf7e34581565b600080600084815260200190815260200160002060000160008373ffffffffffffffffffffffffffffffffffffffff1673ffffffffffffffffffffffffffffffffffffffff16815260200190815260200160002060009054906101000a900460ff16905092915050565b7f829b824e2329e205435d941c9f13baf578548505283d29261236d8e6596d4636611eff8161326a565b8160006003600083815260200190815260200160002090508060020160009054906101000a900473ffffffffffffffffffffffffffffffffffffffff1673ffffffffffffffffffffffffffffffffffffffff163373ffffffffffffffffffffffffffffffffffffffff1614611fa9576040517f08c379a0000000000000000000000000000000000000000000000000000000008152600401611fa0906148b8565b60405180910390fd5b6000600360008681526020019081526020016000209050600115158160020160149054906101000a900460ff16151514612018576040517f08c379a000000000000000000000000000000000000000000000000000000000815260040161200f90614eeb565b60405180910390fd5b600015158160020160159054906101000a900460ff16151514612070576040517f08c379a000000000000000000000000000000000000000000000000000000000815260040161206790614990565b60405180910390fd5b60018160020160156101000a81548160ff02191690831515021790555060008160020160146101000a81548160ff0219169083151502179055505050505050565b7f829b824e2329e205435d941c9f13baf578548505283d29261236d8e6596d463681565b6000801b81565b600d5481565b7f829b824e2329e205435d941c9f13baf578548505283d29261236d8e6596d463661210c8161326a565b6000600360008481526020019081526020016000209050600015158160020160149054906101000a900460ff1615151461217b576040517f08c379a000000000000000000000000000000000000000000000000000000000815260040161217290614924565b60405180910390fd5b80600601543410156121c2576040517f08c379a00000000000000000000000000000000000000000000000000000000081526004016121b990614f7d565b60405180910390fd5b600015156121cf846134b1565b151514612211576040517f08c379a000000000000000000000000000000000000000000000000000000000815260040161220890614fe9565b60405180910390fd5b61223b7f36a5c4aaacb6b388bbd448bf11096b7dafc5652bcc9046084fd0e95b1fb0b2cc33611e6b565b156123ad576000151561224e338561175d565b151514612290576040517f08c379a00000000000000000000000000000000000000000000000000000000081526004016122879061507b565b60405180910390fd5b6001600460003373ffffffffffffffffffffffffffffffffffffffff1673ffffffffffffffffffffffffffffffffffffffff168152602001908152602001600020600101600085815260200190815260200160002060006101000a81548160ff021916908315150217905550600860003373ffffffffffffffffffffffffffffffffffffffff1673ffffffffffffffffffffffffffffffffffffffff16815260200190815260200160002083908060018154018082558091505060019003906000526020600020016000909190919091505534600560008581526020019081526020016000206000828254612385919061478f565b9250508190555060018160050160008282546123a1919061478f565b92505081905550612490565b6000600460003373ffffffffffffffffffffffffffffffffffffffff1673ffffffffffffffffffffffffffffffffffffffff1681526020019081526020016000209050600181600101600086815260200190815260200160002060006101000a81548160ff02191690831515021790555034600560008681526020019081526020016000206000828254612441919061478f565b92505081905550600182600501600082825461245d919061478f565b9250508190555061248e7f36a5c4aaacb6b388bbd448bf11096b7dafc5652bcc9046084fd0e95b1fb0b2cc336132e8565b505b505050565b7f36a5c4aaacb6b388bbd448bf11096b7dafc5652bcc9046084fd0e95b1fb0b2cc6124bf8161326a565b6000600660003373ffffffffffffffffffffffffffffffffffffffff1673ffffffffffffffffffffffffffffffffffffffff16815260200190815260200160002054905060008111612546576040517f08c379a000000000000000000000000000000000000000000000000000000000815260040161253d906150e7565b60405180910390fd5b6000600660003373ffffffffffffffffffffffffffffffffffffffff1673ffffffffffffffffffffffffffffffffffffffff1681526020019081526020016000208190555060003373ffffffffffffffffffffffffffffffffffffffff16826040516125b190614c3d565b60006040518083038185875af1925050503d80600081146125ee576040519150601f19603f3d011682016040523d82523d6000602084013e6125f3565b606091505b5050905080612637576040517f08c379a000000000000000000000000000000000000000000000000000000000815260040161262e90615179565b60405180910390fd5b505050565b7f36a5c4aaacb6b388bbd448bf11096b7dafc5652bcc9046084fd0e95b1fb0b2cc6126668161326a565b60018210158015612678575060058211155b6126b7576040517f08c379a00000000000000000000000000000000000000000000000000000000081526004016126ae906151e5565b60405180910390fd5b600115156126c5338561175d565b151514612707576040517f08c379a00000000000000000000000000000000000000000000000000000000081526004016126fe90615277565b60405180910390fd5b6000600360008581526020019081526020016000209050600115158160020160159054906101000a900460ff16151514612776576040517f08c379a000000000000000000000000000000000000000000000000000000000815260040161276d90614a8e565b60405180910390fd5b60001515600760003373ffffffffffffffffffffffffffffffffffffffff1673ffffffffffffffffffffffffffffffffffffffff168152602001908152602001600020600086815260200190815260200160002060009054906101000a900460ff1615151461281a576040517f08c379a000000000000000000000000000000000000000000000000000000000815260040161281190615309565b60405180910390fd5b806005015460018260080154612830919061478f565b1115612871576040517f08c379a00000000000000000000000000000000000000000000000000000000081526004016128689061539b565b60405180910390fd5b6000816007015490506000826008015490506000600182612892919061478f565b606461289e9190614b49565b905060008160646128af91906153bb565b846128ba91906153ef565b9050600082886128ca91906153ef565b90506000606482846128dc919061478f565b6128e69190614b49565b905060018760080160008282546128fd919061478f565b925050819055508087600701819055506001600760003373ffffffffffffffffffffffffffffffffffffffff1673ffffffffffffffffffffffffffffffffffffffff16815260200190815260200160002060008c815260200190815260200160002060006101000a81548160ff02191690831515021790555050505050505050505050565b6000801b61298f8161326a565b5050565b600f5481565b60606000600e5467ffffffffffffffff8111156129b9576129b8613d2b565b5b6040519080825280602002602001820160405280156129f257816020015b6129df6138b0565b8152602001906001900390816129d75790505b50905060005b600e54811015612b9157600160008281526020019081526020016000206040518061012001604052908160008201548152602001600182018054612a3b90614814565b80601f0160208091040260200160405190810160405280929190818152602001828054612a6790614814565b8015612ab45780601f10612a8957610100808354040283529160200191612ab4565b820191906000526020600020905b815481529060010190602001808311612a9757829003601f168201915b505050505081526020016002820160009054906101000a900473ffffffffffffffffffffffffffffffffffffffff1673ffffffffffffffffffffffffffffffffffffffff1673ffffffffffffffffffffffffffffffffffffffff16815260200160038201548152602001600482015481526020016005820154815260200160068201548152602001600782015481526020016008820160009054906101000a900460ff161515151581525050828281518110612b7357612b72614e70565b5b60200260200101819052508080612b8990614d95565b9150506129f8565b508091505090565b600b5481565b612ba882611164565b612bb18161326a565b612bbb83836133d0565b505050565b60006001600d54612bd1919061478f565b90506040518061016001604052808281526020018781526020018673ffffffffffffffffffffffffffffffffffffffff1681526020016000151581526020016000151581526020018581526020018481526020016000815260200183815260200160008152602001600081525060036000838152602001908152602001600020600082015181600001556020820151816001019080519060200190612c779291906137b6565b5060408201518160020160006101000a81548173ffffffffffffffffffffffffffffffffffffffff021916908373ffffffffffffffffffffffffffffffffffffffff16021790555060608201518160020160146101000a81548160ff02191690831515021790555060808201518160020160156101000a81548160ff02191690831515021790555060a0820151816003015560c0820151816004015560e0820151816005015561010082015181600601556101208201518160070155610140820151816008015590505080600d81905550505050505050565b60076020528160005260406000206020528060005260406000206000915091509054906101000a900460ff1681565b60056020528060005260406000206000915090505481565b600b54341015612ddc576040517f08c379a0000000000000000000000000000000000000000000000000000000008152600401612dd390615495565b60405180910390fd5b612e067f829b824e2329e205435d941c9f13baf578548505283d29261236d8e6596d463633611e6b565b15612e46576040517f08c379a0000000000000000000000000000000000000000000000000000000008152600401612e3d90615501565b60405180910390fd5b612e707f829b824e2329e205435d941c9f13baf578548505283d29261236d8e6596d4636336132e8565b6000600460003373ffffffffffffffffffffffffffffffffffffffff1673ffffffffffffffffffffffffffffffffffffffff1681526020019081526020016000209050338160000160006101000a81548173ffffffffffffffffffffffffffffffffffffffff021916908373ffffffffffffffffffffffffffffffffffffffff1602179055506001600c6000828254612f09919061478f565b9250508190555050565b7f36a5c4aaacb6b388bbd448bf11096b7dafc5652bcc9046084fd0e95b1fb0b2cc81565b7f36a5c4aaacb6b388bbd448bf11096b7dafc5652bcc9046084fd0e95b1fb0b2cc612f618161326a565b6000600360008481526020019081526020016000209050600015158160020160149054906101000a900460ff16151514612fd0576040517f08c379a0000000000000000000000000000000000000000000000000000000008152600401612fc790614924565b60405180910390fd5b6000600460003373ffffffffffffffffffffffffffffffffffffffff1673ffffffffffffffffffffffffffffffffffffffff168152602001908152602001600020905060011515613021338661175d565b151514613063576040517f08c379a000000000000000000000000000000000000000000000000000000000815260040161305a90615277565b60405180910390fd5b8160060154600560008681526020019081526020016000205410156130bd576040517f08c379a00000000000000000000000000000000000000000000000000000000081526004016130b490615593565b60405180910390fd5b600081600101600086815260200190815260200160002060006101000a81548160ff0219169083151502179055508160060154600560008681526020019081526020016000205461310e91906153bb565b60056000868152602001908152602001600020819055508160060154600660003373ffffffffffffffffffffffffffffffffffffffff1673ffffffffffffffffffffffffffffffffffffffff16815260200190815260200160002054613174919061478f565b600660003373ffffffffffffffffffffffffffffffffffffffff1673ffffffffffffffffffffffffffffffffffffffff1681526020019081526020016000208190555060018260050160008282546131cc91906153bb565b9250508190555050505050565b6000600260008473ffffffffffffffffffffffffffffffffffffffff1673ffffffffffffffffffffffffffffffffffffffff168152602001908152602001600020600083815260200190815260200160002060009054906101000a900460ff16905092915050565b60008151905060006a636f6e736f6c652e6c6f679050602083016000808483855afa5050505050565b61327b816132766133c8565b6134dd565b50565b60007f01ffc9a7000000000000000000000000000000000000000000000000000000007bffffffffffffffffffffffffffffffffffffffffffffffffffffffff1916827bffffffffffffffffffffffffffffffffffffffffffffffffffffffff1916149050919050565b6132f28282611e6b565b6133c457600160008084815260200190815260200160002060000160008373ffffffffffffffffffffffffffffffffffffffff1673ffffffffffffffffffffffffffffffffffffffff16815260200190815260200160002060006101000a81548160ff0219169083151502179055506133696133c8565b73ffffffffffffffffffffffffffffffffffffffff168173ffffffffffffffffffffffffffffffffffffffff16837f2f8788117e7eff1d82e926ec794901d17c78024a50270940304540a733656f0d60405160405180910390a45b5050565b600033905090565b6133da8282611e6b565b156134ad57600080600084815260200190815260200160002060000160008373ffffffffffffffffffffffffffffffffffffffff1673ffffffffffffffffffffffffffffffffffffffff16815260200190815260200160002060006101000a81548160ff0219169083151502179055506134526133c8565b73ffffffffffffffffffffffffffffffffffffffff168173ffffffffffffffffffffffffffffffffffffffff16837ff6391f5c32d9c69d2a47ea670b442974b53935d1edc7fd64eb21e047a839171b60405160405180910390a45b5050565b600080600360008481526020019081526020016000209050806004015481600501541015915050919050565b6134e78282611e6b565b6135765761350c8173ffffffffffffffffffffffffffffffffffffffff16601461357a565b61351a8360001c602061357a565b60405160200161352b929190615687565b6040516020818303038152906040526040517f08c379a000000000000000000000000000000000000000000000000000000000815260040161356d91906156c1565b60405180910390fd5b5050565b60606000600283600261358d91906153ef565b613597919061478f565b67ffffffffffffffff8111156135b0576135af613d2b565b5b6040519080825280601f01601f1916602001820160405280156135e25781602001600182028036833780820191505090505b5090507f30000000000000000000000000000000000000000000000000000000000000008160008151811061361a57613619614e70565b5b60200101907effffffffffffffffffffffffffffffffffffffffffffffffffffffffffffff1916908160001a9053507f78000000000000000000000000000000000000000000000000000000000000008160018151811061367e5761367d614e70565b5b60200101907effffffffffffffffffffffffffffffffffffffffffffffffffffffffffffff1916908160001a905350600060018460026136be91906153ef565b6136c8919061478f565b90505b6001811115613768577f3031323334353637383961626364656600000000000000000000000000000000600f86166010811061370a57613709614e70565b5b1a60f81b82828151811061372157613720614e70565b5b60200101907effffffffffffffffffffffffffffffffffffffffffffffffffffffffffffff1916908160001a905350600485901c945080613761906156e3565b90506136cb565b50600084146137ac576040517f08c379a00000000000000000000000000000000000000000000000000000000081526004016137a390615759565b60405180910390fd5b8091505092915050565b8280546137c290614814565b90600052602060002090601f0160209004810192826137e4576000855561382b565b82601f106137fd57805160ff191683800117855561382b565b8280016001018555821561382b579182015b8281111561382a57825182559160200191906001019061380f565b5b5090506138389190613914565b5090565b6040518061016001604052806000815260200160608152602001600073ffffffffffffffffffffffffffffffffffffffff1681526020016000151581526020016000151581526020016000815260200160008152602001600081526020016000815260200160008152602001600081525090565b6040518061012001604052806000815260200160608152602001600073ffffffffffffffffffffffffffffffffffffffff16815260200160008152602001600081526020016000815260200160008152602001600081526020016000151581525090565b5b8082111561392d576000816000905550600101613915565b5090565b6000604051905090565b600080fd5b600080fd5b6000819050919050565b61395881613945565b811461396357600080fd5b50565b6000813590506139758161394f565b92915050565b6000602082840312156139915761399061393b565b5b600061399f84828501613966565b91505092915050565b6139b181613945565b82525050565b600081519050919050565b600082825260208201905092915050565b60005b838110156139f15780820151818401526020810190506139d6565b83811115613a00576000848401525b50505050565b6000601f19601f8301169050919050565b6000613a22826139b7565b613a2c81856139c2565b9350613a3c8185602086016139d3565b613a4581613a06565b840191505092915050565b600073ffffffffffffffffffffffffffffffffffffffff82169050919050565b6000613a7b82613a50565b9050919050565b613a8b81613a70565b82525050565b60008115159050919050565b613aa681613a91565b82525050565b600061012082019050613ac2600083018c6139a8565b8181036020830152613ad4818b613a17565b9050613ae3604083018a613a82565b613af060608301896139a8565b613afd60808301886139a8565b613b0a60a08301876139a8565b613b1760c08301866139a8565b613b2460e08301856139a8565b613b32610100830184613a9d565b9a9950505050505050505050565b60007fffffffff0000000000000000000000000000000000000000000000000000000082169050919050565b613b7581613b40565b8114613b8057600080fd5b50565b600081359050613b9281613b6c565b92915050565b600060208284031215613bae57613bad61393b565b5b6000613bbc84828501613b83565b91505092915050565b6000602082019050613bda6000830184613a9d565b92915050565b613be981613a70565b8114613bf457600080fd5b50565b600081359050613c0681613be0565b92915050565b600060208284031215613c2257613c2161393b565b5b6000613c3084828501613bf7565b91505092915050565b6000602082019050613c4e60008301846139a8565b92915050565b6000819050919050565b613c6781613c54565b8114613c7257600080fd5b50565b600081359050613c8481613c5e565b92915050565b600060208284031215613ca057613c9f61393b565b5b6000613cae84828501613c75565b91505092915050565b613cc081613c54565b82525050565b6000602082019050613cdb6000830184613cb7565b92915050565b60008060408385031215613cf857613cf761393b565b5b6000613d0685828601613c75565b9250506020613d1785828601613bf7565b9150509250929050565b600080fd5b600080fd5b7f4e487b7100000000000000000000000000000000000000000000000000000000600052604160045260246000fd5b613d6382613a06565b810181811067ffffffffffffffff82111715613d8257613d81613d2b565b5b80604052505050565b6000613d95613931565b9050613da18282613d5a565b919050565b600067ffffffffffffffff821115613dc157613dc0613d2b565b5b613dca82613a06565b9050602081019050919050565b82818337600083830152505050565b6000613df9613df484613da6565b613d8b565b905082815260208101848484011115613e1557613e14613d26565b5b613e20848285613dd7565b509392505050565b600082601f830112613e3d57613e3c613d21565b5b8135613e4d848260208601613de6565b91505092915050565b600080600080600060a08688031215613e7257613e7161393b565b5b600086013567ffffffffffffffff811115613e9057613e8f613940565b5b613e9c88828901613e28565b955050602086013567ffffffffffffffff811115613ebd57613ebc613940565b5b613ec988828901613e28565b9450506040613eda88828901613966565b9350506060613eeb88828901613966565b9250506080613efc88828901613966565b9150509295509295909350565b60008060408385031215613f2057613f1f61393b565b5b6000613f2e85828601613bf7565b9250506020613f3f85828601613966565b9150509250929050565b613f5281613945565b82525050565b600082825260208201905092915050565b6000613f74826139b7565b613f7e8185613f58565b9350613f8e8185602086016139d3565b613f9781613a06565b840191505092915050565b6000613fad82613a50565b9050919050565b613fbd81613fa2565b82525050565b613fcc81613a91565b82525050565b600061016083016000830151613feb6000860182613f49565b50602083015184820360208601526140038282613f69565b91505060408301516140186040860182613fb4565b50606083015161402b6060860182613fc3565b50608083015161403e6080860182613fc3565b5060a083015161405160a0860182613f49565b5060c083015161406460c0860182613f49565b5060e083015161407760e0860182613f49565b5061010083015161408c610100860182613f49565b506101208301516140a1610120860182613f49565b506101408301516140b6610140860182613f49565b508091505092915050565b600060208201905081810360008301526140db8184613fd2565b905092915050565b600081519050919050565b600082825260208201905092915050565b6000819050602082019050919050565b6000610160830160008301516141286000860182613f49565b50602083015184820360208601526141408282613f69565b91505060408301516141556040860182613fb4565b5060608301516141686060860182613fc3565b50608083015161417b6080860182613fc3565b5060a083015161418e60a0860182613f49565b5060c08301516141a160c0860182613f49565b5060e08301516141b460e0860182613f49565b506101008301516141c9610100860182613f49565b506101208301516141de610120860182613f49565b506101408301516141f3610140860182613f49565b508091505092915050565b600061420a838361410f565b905092915050565b6000602082019050919050565b600061422a826140e3565b61423481856140ee565b935083602082028501614246856140ff565b8060005b85811015614282578484038952815161426385826141fe565b945061426e83614212565b925060208a0199505060018101905061424a565b50829750879550505050505092915050565b600060208201905081810360008301526142ae818461421f565b905092915050565b6142bf81613fa2565b82525050565b6000610160820190506142db600083018e6139a8565b81810360208301526142ed818d613a17565b90506142fc604083018c6142b6565b614309606083018b613a9d565b614316608083018a613a9d565b61432360a08301896139a8565b61433060c08301886139a8565b61433d60e08301876139a8565b61434b6101008301866139a8565b6143596101208301856139a8565b6143676101408301846139a8565b9c9b505050505050505050505050565b6000806040838503121561438e5761438d61393b565b5b600061439c85828601613966565b92505060206143ad85828601613966565b9150509250929050565b600081519050919050565b600082825260208201905092915050565b6000819050602082019050919050565b6143ec81613a70565b82525050565b60006101208301600083015161440b6000860182613f49565b50602083015184820360208601526144238282613f69565b915050604083015161443860408601826143e3565b50606083015161444b6060860182613f49565b50608083015161445e6080860182613f49565b5060a083015161447160a0860182613f49565b5060c083015161448460c0860182613f49565b5060e083015161449760e0860182613f49565b506101008301516144ac610100860182613fc3565b508091505092915050565b60006144c383836143f2565b905092915050565b6000602082019050919050565b60006144e3826143b7565b6144ed81856143c2565b9350836020820285016144ff856143d3565b8060005b8581101561453b578484038952815161451c85826144b7565b9450614527836144cb565b925060208a01995050600181019050614503565b50829750879550505050505092915050565b6000602082019050818103600083015261456781846144d8565b905092915050565b61457881613fa2565b811461458357600080fd5b50565b6000813590506145958161456f565b92915050565b600080600080600060a086880312156145b7576145b661393b565b5b600086013567ffffffffffffffff8111156145d5576145d4613940565b5b6145e188828901613e28565b95505060206145f288828901614586565b945050604061460388828901613966565b935050606061461488828901613966565b925050608061462588828901613966565b9150509295509295909350565b6000604082019050818103600083015261464c8185613a17565b905061465b60208301846139a8565b9392505050565b7f557365722068617320616c726561647920766f74656420666f7220746869732060008201527f70726f706f73616c000000000000000000000000000000000000000000000000602082015250565b60006146be6028836139c2565b91506146c982614662565b604082019050919050565b600060208201905081810360008301526146ed816146b1565b9050919050565b7f566f74696e6720706572696f642068617320656e646564000000000000000000600082015250565b600061472a6017836139c2565b9150614735826146f4565b602082019050919050565b600060208201905081810360008301526147598161471d565b9050919050565b7f4e487b7100000000000000000000000000000000000000000000000000000000600052601160045260246000fd5b600061479a82613945565b91506147a583613945565b9250827fffffffffffffffffffffffffffffffffffffffffffffffffffffffffffffffff038211156147da576147d9614760565b5b828201905092915050565b7f4e487b7100000000000000000000000000000000000000000000000000000000600052602260045260246000fd5b6000600282049050600182168061482c57607f821691505b602082108114156148405761483f6147e5565b5b50919050565b7f4f6e6c792074686520696e7374727563746f722063616e20706572666f726d2060008201527f7468697320616374697669747900000000000000000000000000000000000000602082015250565b60006148a2602d836139c2565b91506148ad82614846565b604082019050919050565b600060208201905081810360008301526148d181614895565b9050919050565b7f5468697320636c6173732068617320616c726561647920737461727465640000600082015250565b600061490e601e836139c2565b9150614919826148d8565b602082019050919050565b6000602082019050818103600083015261493d81614901565b9050919050565b7f5468697320636c6173732068617320616c726561647920656e64656400000000600082015250565b600061497a601c836139c2565b915061498582614944565b602082019050919050565b600060208201905081810360008301526149a98161496d565b9050919050565b7f4e6f7420656e6f7567682073747564656e747320656e726f6c6c656420746f2060008201527f73746172742074686520636c6173730000000000000000000000000000000000602082015250565b6000614a0c602f836139c2565b9150614a17826149b0565b604082019050919050565b60006020820190508181036000830152614a3b816149ff565b9050919050565b7f436c61737320686173206e6f7420656e64656400000000000000000000000000600082015250565b6000614a786013836139c2565b9150614a8382614a42565b602082019050919050565b60006020820190508181036000830152614aa781614a6b565b9050919050565b7f436c61737320686173206e6f2062616c616e6365000000000000000000000000600082015250565b6000614ae46014836139c2565b9150614aef82614aae565b602082019050919050565b60006020820190508181036000830152614b1381614ad7565b9050919050565b7f4e487b7100000000000000000000000000000000000000000000000000000000600052601260045260246000fd5b6000614b5482613945565b9150614b5f83613945565b925082614b6f57614b6e614b1a565b5b828204905092915050565b7f4e6f7420656e6f7567682073747564656e74732068617665207261746564207460008201527f686520636c617373000000000000000000000000000000000000000000000000602082015250565b6000614bd66028836139c2565b9150614be182614b7a565b604082019050919050565b60006020820190508181036000830152614c0581614bc9565b9050919050565b600081905092915050565b50565b6000614c27600083614c0c565b9150614c3282614c17565b600082019050919050565b6000614c4882614c1a565b9150819050919050565b7f676574506169643a20756e61626c6520746f2073656e642076616c75652c207260008201527f6563697069656e74206d61792068617665207265766572746564000000000000602082015250565b6000614cae603a836139c2565b9150614cb982614c52565b604082019050919050565b60006020820190508181036000830152614cdd81614ca1565b9050919050565b7f43616c6c6572206973206e6f742061206d656d62657221000000000000000000600082015250565b6000614d1a6017836139c2565b9150614d2582614ce4565b602082019050919050565b60006020820190508181036000830152614d4981614d0d565b9050919050565b6000608082019050614d6560008301876139a8565b614d726020830186613a82565b614d7f60408301856139a8565b614d8c60608301846139a8565b95945050505050565b6000614da082613945565b91507fffffffffffffffffffffffffffffffffffffffffffffffffffffffffffffffff821415614dd357614dd2614760565b5b600182019050919050565b7f416363657373436f6e74726f6c3a2063616e206f6e6c792072656e6f756e636560008201527f20726f6c657320666f722073656c660000000000000000000000000000000000602082015250565b6000614e3a602f836139c2565b9150614e4582614dde565b604082019050919050565b60006020820190508181036000830152614e6981614e2d565b9050919050565b7f4e487b7100000000000000000000000000000000000000000000000000000000600052603260045260246000fd5b7f5468697320636c61737320686173206e6f742073746172746564000000000000600082015250565b6000614ed5601a836139c2565b9150614ee082614e9f565b602082019050919050565b60006020820190508181036000830152614f0481614ec8565b9050919050565b7f4e6f7420656e6f7567682045544820746f206a6f696e207468697320636c617360008201527f7300000000000000000000000000000000000000000000000000000000000000602082015250565b6000614f676021836139c2565b9150614f7282614f0b565b604082019050919050565b60006020820190508181036000830152614f9681614f5a565b9050919050565b7f436c6173732069732066756c6c00000000000000000000000000000000000000600082015250565b6000614fd3600d836139c2565b9150614fde82614f9d565b602082019050919050565b6000602082019050818103600083015261500281614fc6565b9050919050565b7f596f752061726520616c726561647920656e726f6c6c656420696e207468697360008201527f20636c6173730000000000000000000000000000000000000000000000000000602082015250565b60006150656026836139c2565b915061507082615009565b604082019050919050565b6000602082019050818103600083015261509481615058565b9050919050565b7f53747564656e7420686173206e6f2062616c616e636500000000000000000000600082015250565b60006150d16016836139c2565b91506150dc8261509b565b602082019050919050565b60006020820190508181036000830152615100816150c4565b9050919050565b7f476574526566756e643a20756e61626c6520746f2073656e642076616c75652c60008201527f20726563697069656e74206d6179206861766520726576657274656400000000602082015250565b6000615163603c836139c2565b915061516e82615107565b604082019050919050565b6000602082019050818103600083015261519281615156565b9050919050565b7f53636f7265206d757374206265206265747765656e203120616e642035000000600082015250565b60006151cf601d836139c2565b91506151da82615199565b602082019050919050565b600060208201905081810360008301526151fe816151c2565b9050919050565b7f55736572206973206e6f7420656e726f6c6c656420696e207468697320636c6160008201527f7373000000000000000000000000000000000000000000000000000000000000602082015250565b60006152616022836139c2565b915061526c82615205565b604082019050919050565b6000602082019050818103600083015261529081615254565b9050919050565b7f43616c6c657220686173207261746564207468697320636c617373206265666f60008201527f7265000000000000000000000000000000000000000000000000000000000000602082015250565b60006152f36022836139c2565b91506152fe82615297565b604082019050919050565b60006020820190508181036000830152615322816152e6565b9050919050565b7f416c6c2073747564656e747320686176652072617465642074686520636c617360008201527f7300000000000000000000000000000000000000000000000000000000000000602082015250565b60006153856021836139c2565b915061539082615329565b604082019050919050565b600060208201905081810360008301526153b481615378565b9050919050565b60006153c682613945565b91506153d183613945565b9250828210156153e4576153e3614760565b5b828203905092915050565b60006153fa82613945565b915061540583613945565b9250817fffffffffffffffffffffffffffffffffffffffffffffffffffffffffffffffff048311821515161561543e5761543d614760565b5b828202905092915050565b7f4e6f7420656e6f7567682045544820746f206a6f696e207468652044414f0000600082015250565b600061547f601e836139c2565b915061548a82615449565b602082019050919050565b600060208201905081810360008301526154ae81615472565b9050919050565b7f43616c6c657220697320616c72656164792061206d656d626572210000000000600082015250565b60006154eb601b836139c2565b91506154f6826154b5565b602082019050919050565b6000602082019050818103600083015261551a816154de565b9050919050565b7f436c61737320646f6573206e6f74206861766520656e6f7567682062616c616e60008201527f6365000000000000000000000000000000000000000000000000000000000000602082015250565b600061557d6022836139c2565b915061558882615521565b604082019050919050565b600060208201905081810360008301526155ac81615570565b9050919050565b600081905092915050565b7f416363657373436f6e74726f6c3a206163636f756e7420000000000000000000600082015250565b60006155f46017836155b3565b91506155ff826155be565b601782019050919050565b6000615615826139b7565b61561f81856155b3565b935061562f8185602086016139d3565b80840191505092915050565b7f206973206d697373696e6720726f6c6520000000000000000000000000000000600082015250565b60006156716011836155b3565b915061567c8261563b565b601182019050919050565b6000615692826155e7565b915061569e828561560a565b91506156a982615664565b91506156b5828461560a565b91508190509392505050565b600060208201905081810360008301526156db8184613a17565b905092915050565b60006156ee82613945565b9150600082141561570257615701614760565b5b600182039050919050565b7f537472696e67733a20686578206c656e67746820696e73756666696369656e74600082015250565b60006157436020836139c2565b915061574e8261570d565b602082019050919050565b6000602082019050818103600083015261577281615736565b905091905056fea26469706673582212204ddae95eae90a30b60cca6dc95173fbdc8c96ab93dd273df56f54fb2fa4b6ed964736f6c63430008090033",
  "linkReferences": {},
  "deployedLinkReferences": {}
}