{
  "_format": "hh-sol-artifact-1",
  "contractName": "EducationDAO",
  "sourceName": "contracts/EducationDAO.sol",
  "abi": [
    {
      "inputs": [
        {
          "internalType": "uint256",
          "name": "_memberFee",
          "type": "uint256"
        }
      ],
      "stateMutability": "nonpayable",
      "type": "constructor"
    },
    {
      "anonymous": false,
      "inputs": [
        {
          "indexed": true,
          "internalType": "bytes32",
          "name": "role",
          "type": "bytes32"
        },
        {
          "indexed": true,
          "internalType": "bytes32",
          "name": "previousAdminRole",
          "type": "bytes32"
        },
        {
          "indexed": true,
          "internalType": "bytes32",
          "name": "newAdminRole",
          "type": "bytes32"
        }
      ],
      "name": "RoleAdminChanged",
      "type": "event"
    },
    {
      "anonymous": false,
      "inputs": [
        {
          "indexed": true,
          "internalType": "bytes32",
          "name": "role",
          "type": "bytes32"
        },
        {
          "indexed": true,
          "internalType": "address",
          "name": "account",
          "type": "address"
        },
        {
          "indexed": true,
          "internalType": "address",
          "name": "sender",
          "type": "address"
        }
      ],
      "name": "RoleGranted",
      "type": "event"
    },
    {
      "anonymous": false,
      "inputs": [
        {
          "indexed": true,
          "internalType": "bytes32",
          "name": "role",
          "type": "bytes32"
        },
        {
          "indexed": true,
          "internalType": "address",
          "name": "account",
          "type": "address"
        },
        {
          "indexed": true,
          "internalType": "address",
          "name": "sender",
          "type": "address"
        }
      ],
      "name": "RoleRevoked",
      "type": "event"
    },
    {
      "inputs": [],
      "name": "DEFAULT_ADMIN_ROLE",
      "outputs": [
        {
          "internalType": "bytes32",
          "name": "",
          "type": "bytes32"
        }
      ],
      "stateMutability": "view",
      "type": "function"
    },
    {
      "inputs": [],
      "name": "INSTRUCTOR_ROLE",
      "outputs": [
        {
          "internalType": "bytes32",
          "name": "",
          "type": "bytes32"
        }
      ],
      "stateMutability": "view",
      "type": "function"
    },
    {
      "inputs": [],
      "name": "MEMBER_ROLE",
      "outputs": [
        {
          "internalType": "bytes32",
          "name": "",
          "type": "bytes32"
        }
      ],
      "stateMutability": "view",
      "type": "function"
    },
    {
      "inputs": [],
      "name": "STUDENT_ROLE",
      "outputs": [
        {
          "internalType": "bytes32",
          "name": "",
          "type": "bytes32"
        }
      ],
      "stateMutability": "view",
      "type": "function"
    },
    {
      "inputs": [
        {
          "internalType": "address",
          "name": "instAddress",
          "type": "address"
        }
      ],
      "name": "addInstructor",
      "outputs": [],
      "stateMutability": "nonpayable",
      "type": "function"
    },
    {
      "inputs": [
        {
          "internalType": "uint256",
          "name": "",
          "type": "uint256"
        }
      ],
      "name": "classBalances",
      "outputs": [
        {
          "internalType": "uint256",
          "name": "",
          "type": "uint256"
        }
      ],
      "stateMutability": "view",
      "type": "function"
    },
    {
      "inputs": [],
      "name": "classCount",
      "outputs": [
        {
          "internalType": "uint256",
          "name": "",
          "type": "uint256"
        }
      ],
      "stateMutability": "view",
      "type": "function"
    },
    {
      "inputs": [
        {
          "internalType": "address",
          "name": "",
          "type": "address"
        },
        {
          "internalType": "uint256",
          "name": "",
          "type": "uint256"
        }
      ],
      "name": "classReviews",
      "outputs": [
        {
          "internalType": "bool",
          "name": "",
          "type": "bool"
        }
      ],
      "stateMutability": "view",
      "type": "function"
    },
    {
      "inputs": [
        {
          "internalType": "uint256",
          "name": "",
          "type": "uint256"
        }
      ],
      "name": "classes",
      "outputs": [
        {
          "internalType": "uint256",
          "name": "id",
          "type": "uint256"
        },
        {
          "internalType": "string",
          "name": "name",
          "type": "string"
        },
        {
          "internalType": "address payable",
          "name": "instructor",
          "type": "address"
        },
        {
          "internalType": "bool",
          "name": "started",
          "type": "bool"
        },
        {
          "internalType": "bool",
          "name": "ended",
          "type": "bool"
        },
        {
          "internalType": "uint256",
          "name": "minNumberOfStudents",
          "type": "uint256"
        },
        {
          "internalType": "uint256",
          "name": "maxNumberOfStudents",
          "type": "uint256"
        },
        {
          "internalType": "uint256",
          "name": "currentNumberOfStudents",
          "type": "uint256"
        },
        {
          "internalType": "uint256",
          "name": "price",
          "type": "uint256"
        },
        {
          "internalType": "uint256",
          "name": "reviewScore",
          "type": "uint256"
        },
        {
          "internalType": "uint256",
          "name": "numberOfReviews",
          "type": "uint256"
        }
      ],
      "stateMutability": "view",
      "type": "function"
    },
    {
      "inputs": [
        {
          "internalType": "string",
          "name": "className",
          "type": "string"
        },
        {
          "internalType": "address payable",
          "name": "_instructor",
          "type": "address"
        },
        {
          "internalType": "uint256",
          "name": "_minNumberOfStudents",
          "type": "uint256"
        },
        {
          "internalType": "uint256",
          "name": "_maxNumberOfStudents",
          "type": "uint256"
        },
        {
          "internalType": "uint256",
          "name": "_price",
          "type": "uint256"
        }
      ],
      "name": "createClass",
      "outputs": [],
      "stateMutability": "nonpayable",
      "type": "function"
    },
    {
      "inputs": [
        {
          "internalType": "string",
          "name": "_name",
          "type": "string"
        },
        {
          "internalType": "string",
          "name": "_data",
          "type": "string"
        },
        {
          "internalType": "uint256",
          "name": "_price",
          "type": "uint256"
        },
        {
          "internalType": "uint256",
          "name": "_minNumberOfStudents",
          "type": "uint256"
        },
        {
          "internalType": "uint256",
          "name": "_maxNumberOfStudents",
          "type": "uint256"
        }
      ],
      "name": "createProposal",
      "outputs": [],
      "stateMutability": "nonpayable",
      "type": "function"
    },
    {
      "inputs": [
        {
          "internalType": "address",
          "name": "_address",
          "type": "address"
        },
        {
          "internalType": "uint256",
          "name": "_proposalId",
          "type": "uint256"
        }
      ],
      "name": "didThisAddressVote",
      "outputs": [
        {
          "internalType": "bool",
          "name": "",
          "type": "bool"
        }
      ],
      "stateMutability": "view",
      "type": "function"
    },
    {
      "inputs": [
        {
          "internalType": "uint256",
          "name": "classId",
          "type": "uint256"
        }
      ],
      "name": "endClass",
      "outputs": [],
      "stateMutability": "nonpayable",
      "type": "function"
    },
    {
      "inputs": [],
      "name": "getAllClasses",
      "outputs": [
        {
          "components": [
            {
              "internalType": "uint256",
              "name": "id",
              "type": "uint256"
            },
            {
              "internalType": "string",
              "name": "name",
              "type": "string"
            },
            {
              "internalType": "address payable",
              "name": "instructor",
              "type": "address"
            },
            {
              "internalType": "bool",
              "name": "started",
              "type": "bool"
            },
            {
              "internalType": "bool",
              "name": "ended",
              "type": "bool"
            },
            {
              "internalType": "uint256",
              "name": "minNumberOfStudents",
              "type": "uint256"
            },
            {
              "internalType": "uint256",
              "name": "maxNumberOfStudents",
              "type": "uint256"
            },
            {
              "internalType": "uint256",
              "name": "currentNumberOfStudents",
              "type": "uint256"
            },
            {
              "internalType": "uint256",
              "name": "price",
              "type": "uint256"
            },
            {
              "internalType": "uint256",
              "name": "reviewScore",
              "type": "uint256"
            },
            {
              "internalType": "uint256",
              "name": "numberOfReviews",
              "type": "uint256"
            }
          ],
          "internalType": "struct EducationDAO.Class[]",
          "name": "",
          "type": "tuple[]"
        }
      ],
      "stateMutability": "view",
      "type": "function"
    },
    {
      "inputs": [],
      "name": "getAllProposals",
      "outputs": [
        {
          "components": [
            {
              "internalType": "uint256",
              "name": "id",
              "type": "uint256"
            },
            {
              "internalType": "string",
              "name": "name",
              "type": "string"
            },
            {
              "internalType": "address",
              "name": "instructor",
              "type": "address"
            },
            {
              "internalType": "uint256",
              "name": "voteCount",
              "type": "uint256"
            },
            {
              "internalType": "uint256",
              "name": "end",
              "type": "uint256"
            },
            {
              "internalType": "uint256",
              "name": "price",
              "type": "uint256"
            },
            {
              "internalType": "uint256",
              "name": "minimumVotes",
              "type": "uint256"
            },
            {
              "internalType": "uint256",
              "name": "maxNumberOfStudents",
              "type": "uint256"
            },
            {
              "internalType": "bool",
              "name": "executed",
              "type": "bool"
            }
          ],
          "internalType": "struct EducationDAO.TrainingProposal[]",
          "name": "",
          "type": "tuple[]"
        }
      ],
      "stateMutability": "view",
      "type": "function"
    },
    {
      "inputs": [
        {
          "internalType": "uint256",
          "name": "_classId",
          "type": "uint256"
        }
      ],
      "name": "getClass",
      "outputs": [
        {
          "components": [
            {
              "internalType": "uint256",
              "name": "id",
              "type": "uint256"
            },
            {
              "internalType": "string",
              "name": "name",
              "type": "string"
            },
            {
              "internalType": "address payable",
              "name": "instructor",
              "type": "address"
            },
            {
              "internalType": "bool",
              "name": "started",
              "type": "bool"
            },
            {
              "internalType": "bool",
              "name": "ended",
              "type": "bool"
            },
            {
              "internalType": "uint256",
              "name": "minNumberOfStudents",
              "type": "uint256"
            },
            {
              "internalType": "uint256",
              "name": "maxNumberOfStudents",
              "type": "uint256"
            },
            {
              "internalType": "uint256",
              "name": "currentNumberOfStudents",
              "type": "uint256"
            },
            {
              "internalType": "uint256",
              "name": "price",
              "type": "uint256"
            },
            {
              "internalType": "uint256",
              "name": "reviewScore",
              "type": "uint256"
            },
            {
              "internalType": "uint256",
              "name": "numberOfReviews",
              "type": "uint256"
            }
          ],
          "internalType": "struct EducationDAO.Class",
          "name": "",
          "type": "tuple"
        }
      ],
      "stateMutability": "view",
      "type": "function"
    },
    {
      "inputs": [
        {
          "internalType": "uint256",
          "name": "_classId",
          "type": "uint256"
        }
      ],
      "name": "getClassBalance",
      "outputs": [
        {
          "internalType": "uint256",
          "name": "",
          "type": "uint256"
        }
      ],
      "stateMutability": "view",
      "type": "function"
    },
    {
      "inputs": [
        {
          "internalType": "address",
          "name": "_member",
          "type": "address"
        }
      ],
      "name": "getClassesForStudent",
      "outputs": [
        {
          "components": [
            {
              "internalType": "uint256",
              "name": "id",
              "type": "uint256"
            },
            {
              "internalType": "string",
              "name": "name",
              "type": "string"
            },
            {
              "internalType": "address payable",
              "name": "instructor",
              "type": "address"
            },
            {
              "internalType": "bool",
              "name": "started",
              "type": "bool"
            },
            {
              "internalType": "bool",
              "name": "ended",
              "type": "bool"
            },
            {
              "internalType": "uint256",
              "name": "minNumberOfStudents",
              "type": "uint256"
            },
            {
              "internalType": "uint256",
              "name": "maxNumberOfStudents",
              "type": "uint256"
            },
            {
              "internalType": "uint256",
              "name": "currentNumberOfStudents",
              "type": "uint256"
            },
            {
              "internalType": "uint256",
              "name": "price",
              "type": "uint256"
            },
            {
              "internalType": "uint256",
              "name": "reviewScore",
              "type": "uint256"
            },
            {
              "internalType": "uint256",
              "name": "numberOfReviews",
              "type": "uint256"
            }
          ],
          "internalType": "struct EducationDAO.Class[]",
          "name": "",
          "type": "tuple[]"
        }
      ],
      "stateMutability": "view",
      "type": "function"
    },
    {
      "inputs": [
        {
          "internalType": "uint256",
          "name": "classId",
          "type": "uint256"
        }
      ],
      "name": "getPaid",
      "outputs": [],
      "stateMutability": "nonpayable",
      "type": "function"
    },
    {
      "inputs": [],
      "name": "getRefund",
      "outputs": [],
      "stateMutability": "nonpayable",
      "type": "function"
    },
    {
      "inputs": [
        {
          "internalType": "bytes32",
          "name": "role",
          "type": "bytes32"
        }
      ],
      "name": "getRoleAdmin",
      "outputs": [
        {
          "internalType": "bytes32",
          "name": "",
          "type": "bytes32"
        }
      ],
      "stateMutability": "view",
      "type": "function"
    },
    {
      "inputs": [
        {
          "internalType": "address",
          "name": "_student",
          "type": "address"
        }
      ],
      "name": "getStudentBalance",
      "outputs": [
        {
          "internalType": "uint256",
          "name": "",
          "type": "uint256"
        }
      ],
      "stateMutability": "view",
      "type": "function"
    },
    {
      "inputs": [
        {
          "internalType": "bytes32",
          "name": "role",
          "type": "bytes32"
        },
        {
          "internalType": "address",
          "name": "account",
          "type": "address"
        }
      ],
      "name": "grantRole",
      "outputs": [],
      "stateMutability": "nonpayable",
      "type": "function"
    },
    {
      "inputs": [
        {
          "internalType": "bytes32",
          "name": "role",
          "type": "bytes32"
        },
        {
          "internalType": "address",
          "name": "account",
          "type": "address"
        }
      ],
      "name": "hasRole",
      "outputs": [
        {
          "internalType": "bool",
          "name": "",
          "type": "bool"
        }
      ],
      "stateMutability": "view",
      "type": "function"
    },
    {
      "inputs": [
        {
          "internalType": "address",
          "name": "_member",
          "type": "address"
        },
        {
          "internalType": "uint256",
          "name": "classId",
          "type": "uint256"
        }
      ],
      "name": "isMemberEnrolledInClass",
      "outputs": [
        {
          "internalType": "bool",
          "name": "",
          "type": "bool"
        }
      ],
      "stateMutability": "view",
      "type": "function"
    },
    {
      "inputs": [
        {
          "internalType": "uint256",
          "name": "classId",
          "type": "uint256"
        }
      ],
      "name": "joinClass",
      "outputs": [],
      "stateMutability": "payable",
      "type": "function"
    },
    {
      "inputs": [],
      "name": "joinDAO",
      "outputs": [],
      "stateMutability": "payable",
      "type": "function"
    },
    {
      "inputs": [],
      "name": "memberCount",
      "outputs": [
        {
          "internalType": "uint256",
          "name": "",
          "type": "uint256"
        }
      ],
      "stateMutability": "view",
      "type": "function"
    },
    {
      "inputs": [],
      "name": "nextProposalId",
      "outputs": [
        {
          "internalType": "uint256",
          "name": "",
          "type": "uint256"
        }
      ],
      "stateMutability": "view",
      "type": "function"
    },
    {
      "inputs": [
        {
          "internalType": "uint256",
          "name": "",
          "type": "uint256"
        }
      ],
      "name": "proposals",
      "outputs": [
        {
          "internalType": "uint256",
          "name": "id",
          "type": "uint256"
        },
        {
          "internalType": "string",
          "name": "name",
          "type": "string"
        },
        {
          "internalType": "address",
          "name": "instructor",
          "type": "address"
        },
        {
          "internalType": "uint256",
          "name": "voteCount",
          "type": "uint256"
        },
        {
          "internalType": "uint256",
          "name": "end",
          "type": "uint256"
        },
        {
          "internalType": "uint256",
          "name": "price",
          "type": "uint256"
        },
        {
          "internalType": "uint256",
          "name": "minimumVotes",
          "type": "uint256"
        },
        {
          "internalType": "uint256",
          "name": "maxNumberOfStudents",
          "type": "uint256"
        },
        {
          "internalType": "bool",
          "name": "executed",
          "type": "bool"
        }
      ],
      "stateMutability": "view",
      "type": "function"
    },
    {
      "inputs": [
        {
          "internalType": "uint256",
          "name": "classId",
          "type": "uint256"
        },
        {
          "internalType": "uint256",
          "name": "_score",
          "type": "uint256"
        }
      ],
      "name": "rateClass",
      "outputs": [],
      "stateMutability": "nonpayable",
      "type": "function"
    },
    {
      "inputs": [
        {
          "internalType": "bytes32",
          "name": "role",
          "type": "bytes32"
        },
        {
          "internalType": "address",
          "name": "account",
          "type": "address"
        }
      ],
      "name": "renounceRole",
      "outputs": [],
      "stateMutability": "nonpayable",
      "type": "function"
    },
    {
      "inputs": [
        {
          "internalType": "bytes32",
          "name": "role",
          "type": "bytes32"
        },
        {
          "internalType": "address",
          "name": "account",
          "type": "address"
        }
      ],
      "name": "revokeRole",
      "outputs": [],
      "stateMutability": "nonpayable",
      "type": "function"
    },
    {
      "inputs": [
        {
          "internalType": "uint256",
          "name": "newMemberFee",
          "type": "uint256"
        }
      ],
      "name": "setMemberFee",
      "outputs": [],
      "stateMutability": "nonpayable",
      "type": "function"
    },
    {
      "inputs": [
        {
          "internalType": "uint256",
          "name": "classId",
          "type": "uint256"
        }
      ],
      "name": "startClass",
      "outputs": [],
      "stateMutability": "nonpayable",
      "type": "function"
    },
    {
      "inputs": [
        {
          "internalType": "bytes4",
          "name": "interfaceId",
          "type": "bytes4"
        }
      ],
      "name": "supportsInterface",
      "outputs": [
        {
          "internalType": "bool",
          "name": "",
          "type": "bool"
        }
      ],
      "stateMutability": "view",
      "type": "function"
    },
    {
      "inputs": [
        {
          "internalType": "uint256",
          "name": "proposalId",
          "type": "uint256"
        }
      ],
      "name": "vote",
      "outputs": [],
      "stateMutability": "nonpayable",
      "type": "function"
    },
    {
      "inputs": [],
      "name": "voteTime",
      "outputs": [
        {
          "internalType": "uint256",
          "name": "",
          "type": "uint256"
        }
      ],
      "stateMutability": "view",
      "type": "function"
    },
    {
      "inputs": [
        {
          "internalType": "uint256",
          "name": "classId",
          "type": "uint256"
        }
      ],
      "name": "withdrawFromClass",
      "outputs": [],
      "stateMutability": "nonpayable",
      "type": "function"
    }
  ],
  "bytecode": "0x60806040523480156200001157600080fd5b50604051620057fe380380620057fe833981810160405281019062000037919062000265565b33600960006101000a81548173ffffffffffffffffffffffffffffffffffffffff021916908373ffffffffffffffffffffffffffffffffffffffff1602179055506200008d6000801b30620000ac60201b60201c565b80600b819055506000600c81905550610e10600f819055505062000297565b620000be8282620000c260201b60201c565b5050565b620000d48282620001b360201b60201c565b620001af57600160008084815260200190815260200160002060000160008373ffffffffffffffffffffffffffffffffffffffff1673ffffffffffffffffffffffffffffffffffffffff16815260200190815260200160002060006101000a81548160ff021916908315150217905550620001546200021d60201b60201c565b73ffffffffffffffffffffffffffffffffffffffff168173ffffffffffffffffffffffffffffffffffffffff16837f2f8788117e7eff1d82e926ec794901d17c78024a50270940304540a733656f0d60405160405180910390a45b5050565b600080600084815260200190815260200160002060000160008373ffffffffffffffffffffffffffffffffffffffff1673ffffffffffffffffffffffffffffffffffffffff16815260200190815260200160002060009054906101000a900460ff16905092915050565b600033905090565b600080fd5b6000819050919050565b6200023f816200022a565b81146200024b57600080fd5b50565b6000815190506200025f8162000234565b92915050565b6000602082840312156200027e576200027d62000225565b5b60006200028e848285016200024e565b91505092915050565b61555780620002a76000396000f3fe6080604052600436106102305760003560e01c80638bcf979c1161012e578063bcf93dd6116100ab578063eda47aeb1161006f578063eda47aeb14610888578063f63d13d7146108c5578063f7be43fb146108cf578063fc063f88146108fa578063fce3f3791461092357610230565b8063bcf93dd6146107a3578063cceb68f5146107ce578063d547741f146107f9578063de8c790714610822578063ec5f59f71461084b57610230565b8063ab996317116100f2578063ab996317146106f3578063af70377c1461071e578063b2d5ae441461073a578063b3a6da7514610751578063b9399e131461077a57610230565b80638bcf979c1461060c57806391d14854146106375780639a9a3ed914610674578063a10f469e1461069d578063a217fddf146106c857610230565b80632ab09d14116101bc578063512d62df11610180578063512d62df146104f75780635a5945d1146105345780635f6fe4fd146105715780636bda75dd1461059a578063817dbe9f146105c557610230565b80632ab09d14146104145780632f2ff15d1461043f57806333423c061461046857806336568abe1461049157806349dd4bd7146104ba57610230565b80630a7e8932116102035780630a7e89321461031d57806311aee3801461035a5780631f8e113414610385578063248a9ca3146103ae5780632a92362c146103eb57610230565b80630121b93f14610235578063013cf08b1461025e57806301ffc9a7146102a357806308b9ddd8146102e0575b600080fd5b34801561024157600080fd5b5061025c60048036038101906102579190613798565b610960565b005b34801561026a57600080fd5b5061028560048036038101906102809190613798565b610bef565b60405161029a999897969594939291906138c9565b60405180910390f35b3480156102af57600080fd5b506102ca60048036038101906102c591906139b5565b610cf2565b6040516102d791906139e2565b60405180910390f35b3480156102ec57600080fd5b5061030760048036038101906103029190613a29565b610d6c565b6040516103149190613a56565b60405180910390f35b34801561032957600080fd5b50610344600480360381019061033f9190613798565b610db5565b6040516103519190613a56565b60405180910390f35b34801561036657600080fd5b5061036f610dd2565b60405161037c9190613a56565b60405180910390f35b34801561039157600080fd5b506103ac60048036038101906103a79190613798565b610dd8565b005b3480156103ba57600080fd5b506103d560048036038101906103d09190613aa7565b61100c565b6040516103e29190613ae3565b60405180910390f35b3480156103f757600080fd5b50610412600480360381019061040d9190613798565b61102b565b005b34801561042057600080fd5b50610429611325565b6040516104369190613a56565b60405180910390f35b34801561044b57600080fd5b5061046660048036038101906104619190613afe565b61132b565b005b34801561047457600080fd5b5061048f600480360381019061048a9190613c73565b61134c565b005b34801561049d57600080fd5b506104b860048036038101906104b39190613afe565b611543565b005b3480156104c657600080fd5b506104e160048036038101906104dc9190613d26565b6115c6565b6040516104ee91906139e2565b60405180910390f35b34801561050357600080fd5b5061051e60048036038101906105199190613798565b611631565b60405161052b9190613ede565b60405180910390f35b34801561054057600080fd5b5061055b60048036038101906105569190613a29565b6117c3565b60405161056891906140b1565b60405180910390f35b34801561057d57600080fd5b5061059860048036038101906105939190613798565b61194b565b005b3480156105a657600080fd5b506105af611963565b6040516105bc91906140b1565b60405180910390f35b3480156105d157600080fd5b506105ec60048036038101906105e79190613798565b611b94565b6040516106039b9a999897969594939291906140e2565b60405180910390f35b34801561061857600080fd5b50610621611cb0565b60405161062e9190613ae3565b60405180910390f35b34801561064357600080fd5b5061065e60048036038101906106599190613afe565b611cd4565b60405161066b91906139e2565b60405180910390f35b34801561068057600080fd5b5061069b60048036038101906106969190613798565b611d3e565b005b3480156106a957600080fd5b506106b2611efd565b6040516106bf9190613ae3565b60405180910390f35b3480156106d457600080fd5b506106dd611f21565b6040516106ea9190613ae3565b60405180910390f35b3480156106ff57600080fd5b50610708611f28565b6040516107159190613a56565b60405180910390f35b61073860048036038101906107339190613798565b611f2e565b005b34801561074657600080fd5b5061074f6122e1565b005b34801561075d57600080fd5b5061077860048036038101906107739190614194565b612488565b005b34801561078657600080fd5b506107a1600480360381019061079c9190613a29565b6127ce565b005b3480156107af57600080fd5b506107b86127df565b6040516107c59190613a56565b60405180910390f35b3480156107da57600080fd5b506107e36127e5565b6040516107f0919061436a565b60405180910390f35b34801561080557600080fd5b50610820600480360381019061081b9190613afe565b6129e5565b005b34801561082e57600080fd5b50610849600480360381019061084491906143b8565b612a06565b005b34801561085757600080fd5b50610872600480360381019061086d9190613d26565b612b96565b60405161087f91906139e2565b60405180910390f35b34801561089457600080fd5b506108af60048036038101906108aa9190613798565b612bc5565b6040516108bc9190613a56565b60405180910390f35b6108cd612bdd565b005b3480156108db57600080fd5b506108e4612d59565b6040516108f19190613ae3565b60405180910390f35b34801561090657600080fd5b50610921600480360381019061091c9190613798565b612d7d565b005b34801561092f57600080fd5b5061094a60048036038101906109459190613d26565b61301f565b60405161095791906139e2565b60405180910390f35b7f829b824e2329e205435d941c9f13baf578548505283d29261236d8e6596d463661098a81613087565b600060016000848152602001908152602001600020905060001515600260003373ffffffffffffffffffffffffffffffffffffffff1673ffffffffffffffffffffffffffffffffffffffff168152602001908152602001600020600085815260200190815260200160002060009054906101000a900460ff16151514610a45576040517f08c379a0000000000000000000000000000000000000000000000000000000008152600401610a3c906144c1565b60405180910390fd5b80600401544210610a8b576040517f08c379a0000000000000000000000000000000000000000000000000000000008152600401610a829061452d565b60405180910390fd5b6001600260003373ffffffffffffffffffffffffffffffffffffffff1673ffffffffffffffffffffffffffffffffffffffff168152602001908152602001600020600085815260200190815260200160002060006101000a81548160ff0219169083151502179055506001816003016000828254610b09919061457c565b92505081905550806006015481600301541415610bea57610be9816001018054610b3290614601565b80601f0160208091040260200160405190810160405280929190818152602001828054610b5e90614601565b8015610bab5780601f10610b8057610100808354040283529160200191610bab565b820191906000526020600020905b815481529060010190602001808311610b8e57829003601f168201915b50505050508260020160009054906101000a900473ffffffffffffffffffffffffffffffffffffffff16836006015484600701548560050154612a06565b5b505050565b6001602052806000526040600020600091509050806000015490806001018054610c1890614601565b80601f0160208091040260200160405190810160405280929190818152602001828054610c4490614601565b8015610c915780601f10610c6657610100808354040283529160200191610c91565b820191906000526020600020905b815481529060010190602001808311610c7457829003601f168201915b5050505050908060020160009054906101000a900473ffffffffffffffffffffffffffffffffffffffff16908060030154908060040154908060050154908060060154908060070154908060080160009054906101000a900460ff16905089565b60007f7965db0b000000000000000000000000000000000000000000000000000000007bffffffffffffffffffffffffffffffffffffffffffffffffffffffff1916827bffffffffffffffffffffffffffffffffffffffffffffffffffffffff19161480610d655750610d648261309b565b5b9050919050565b6000600660008373ffffffffffffffffffffffffffffffffffffffff1673ffffffffffffffffffffffffffffffffffffffff168152602001908152602001600020549050919050565b600060056000838152602001908152602001600020549050919050565b600c5481565b7f829b824e2329e205435d941c9f13baf578548505283d29261236d8e6596d4636610e0281613087565b8160006003600083815260200190815260200160002090508060020160009054906101000a900473ffffffffffffffffffffffffffffffffffffffff1673ffffffffffffffffffffffffffffffffffffffff163373ffffffffffffffffffffffffffffffffffffffff1614610eac576040517f08c379a0000000000000000000000000000000000000000000000000000000008152600401610ea3906146a5565b60405180910390fd5b6000600360008681526020019081526020016000209050600015158160020160149054906101000a900460ff16151514610f1b576040517f08c379a0000000000000000000000000000000000000000000000000000000008152600401610f1290614711565b60405180910390fd5b600015158160020160159054906101000a900460ff16151514610f73576040517f08c379a0000000000000000000000000000000000000000000000000000000008152600401610f6a9061477d565b60405180910390fd5b806003015481600501541015610fbe576040517f08c379a0000000000000000000000000000000000000000000000000000000008152600401610fb59061480f565b60405180910390fd5b60018160020160146101000a81548160ff0219169083151502179055506110057fae4a0595970935aa5495afbbb72e5f1f6ff1062766b4a3028c0c9b7d5cf7e34533613105565b5050505050565b6000806000838152602001908152602001600020600101549050919050565b7fae4a0595970935aa5495afbbb72e5f1f6ff1062766b4a3028c0c9b7d5cf7e34561105581613087565b8160006003600083815260200190815260200160002090508060020160009054906101000a900473ffffffffffffffffffffffffffffffffffffffff1673ffffffffffffffffffffffffffffffffffffffff163373ffffffffffffffffffffffffffffffffffffffff16146110ff576040517f08c379a00000000000000000000000000000000000000000000000000000000081526004016110f6906146a5565b60405180910390fd5b6000600360008681526020019081526020016000209050600115158160020160159054906101000a900460ff1615151461116e576040517f08c379a00000000000000000000000000000000000000000000000000000000081526004016111659061487b565b60405180910390fd5b60006005600087815260200190815260200160002054116111c4576040517f08c379a00000000000000000000000000000000000000000000000000000000081526004016111bb906148e7565b60405180910390fd5b600281600501546111d59190614936565b8160080154101561121b576040517f08c379a0000000000000000000000000000000000000000000000000000000008152600401611212906149d9565b60405180910390fd5b6000600560008781526020019081526020016000205490506000600560008881526020019081526020016000208190555060008260020160009054906101000a900473ffffffffffffffffffffffffffffffffffffffff1673ffffffffffffffffffffffffffffffffffffffff168260405161129690614a2a565b60006040518083038185875af1925050503d80600081146112d3576040519150601f19603f3d011682016040523d82523d6000602084013e6112d8565b606091505b505090508061131c576040517f08c379a000000000000000000000000000000000000000000000000000000000815260040161131390614ab1565b60405180910390fd5b50505050505050565b600e5481565b6113348261100c565b61133d81613087565b6113478383613105565b505050565b7f829b824e2329e205435d941c9f13baf578548505283d29261236d8e6596d463661137681613087565b6113a07f829b824e2329e205435d941c9f13baf578548505283d29261236d8e6596d463633611cd4565b6113df576040517f08c379a00000000000000000000000000000000000000000000000000000000081526004016113d690614b1d565b60405180910390fd5b6000604051806101200160405280600e5481526020018881526020013373ffffffffffffffffffffffffffffffffffffffff168152602001828152602001600f544261142b919061457c565b81526020018681526020018581526020018481526020016000151581525060016000600e5481526020019081526020016000206000820151816000015560208201518160010190805190602001906114849291906135d3565b5060408201518160020160006101000a81548173ffffffffffffffffffffffffffffffffffffffff021916908373ffffffffffffffffffffffffffffffffffffffff160217905550606082015181600301556080820151816004015560a0820151816005015560c0820151816006015560e082015181600701556101008201518160080160006101000a81548160ff021916908315150217905550905050600e600081548092919061153590614b3d565b919050555050505050505050565b61154b6131e5565b73ffffffffffffffffffffffffffffffffffffffff168173ffffffffffffffffffffffffffffffffffffffff16146115b8576040517f08c379a00000000000000000000000000000000000000000000000000000000081526004016115af90614bf8565b60405180910390fd5b6115c282826131ed565b5050565b6000600460008473ffffffffffffffffffffffffffffffffffffffff1673ffffffffffffffffffffffffffffffffffffffff168152602001908152602001600020600101600083815260200190815260200160002060009054906101000a900460ff16905092915050565b611639613659565b60036000838152602001908152602001600020604051806101600160405290816000820154815260200160018201805461167290614601565b80601f016020809104026020016040519081016040528092919081815260200182805461169e90614601565b80156116eb5780601f106116c0576101008083540402835291602001916116eb565b820191906000526020600020905b8154815290600101906020018083116116ce57829003601f168201915b505050505081526020016002820160009054906101000a900473ffffffffffffffffffffffffffffffffffffffff1673ffffffffffffffffffffffffffffffffffffffff1673ffffffffffffffffffffffffffffffffffffffff1681526020016002820160149054906101000a900460ff161515151581526020016002820160159054906101000a900460ff1615151515815260200160038201548152602001600482015481526020016005820154815260200160068201548152602001600782015481526020016008820154815250509050919050565b60606000600860008473ffffffffffffffffffffffffffffffffffffffff1673ffffffffffffffffffffffffffffffffffffffff1681526020019081526020016000208054905067ffffffffffffffff81111561182357611822613b48565b5b60405190808252806020026020018201604052801561185c57816020015b611849613659565b8152602001906001900390816118415790505b50905060005b600860008573ffffffffffffffffffffffffffffffffffffffff1673ffffffffffffffffffffffffffffffffffffffff1681526020019081526020016000208054905081101561194157611910600860008673ffffffffffffffffffffffffffffffffffffffff1673ffffffffffffffffffffffffffffffffffffffff1681526020019081526020016000208281548110611900576118ff614c18565b5b9060005260206000200154611631565b82828151811061192357611922614c18565b5b6020026020010181905250808061193990614b3d565b915050611862565b5080915050919050565b6000801b61195881613087565b81600b819055505050565b60606000600d5467ffffffffffffffff81111561198357611982613b48565b5b6040519080825280602002602001820160405280156119bc57816020015b6119a9613659565b8152602001906001900390816119a15790505b50905060005b600d54811015611b8c57600360006001836119dd919061457c565b81526020019081526020016000206040518061016001604052908160008201548152602001600182018054611a1190614601565b80601f0160208091040260200160405190810160405280929190818152602001828054611a3d90614601565b8015611a8a5780601f10611a5f57610100808354040283529160200191611a8a565b820191906000526020600020905b815481529060010190602001808311611a6d57829003601f168201915b505050505081526020016002820160009054906101000a900473ffffffffffffffffffffffffffffffffffffffff1673ffffffffffffffffffffffffffffffffffffffff1673ffffffffffffffffffffffffffffffffffffffff1681526020016002820160149054906101000a900460ff161515151581526020016002820160159054906101000a900460ff161515151581526020016003820154815260200160048201548152602001600582015481526020016006820154815260200160078201548152602001600882015481525050828281518110611b6e57611b6d614c18565b5b60200260200101819052508080611b8490614b3d565b9150506119c2565b508091505090565b6003602052806000526040600020600091509050806000015490806001018054611bbd90614601565b80601f0160208091040260200160405190810160405280929190818152602001828054611be990614601565b8015611c365780601f10611c0b57610100808354040283529160200191611c36565b820191906000526020600020905b815481529060010190602001808311611c1957829003601f168201915b5050505050908060020160009054906101000a900473ffffffffffffffffffffffffffffffffffffffff16908060020160149054906101000a900460ff16908060020160159054906101000a900460ff1690806003015490806004015490806005015490806006015490806007015490806008015490508b565b7fae4a0595970935aa5495afbbb72e5f1f6ff1062766b4a3028c0c9b7d5cf7e34581565b600080600084815260200190815260200160002060000160008373ffffffffffffffffffffffffffffffffffffffff1673ffffffffffffffffffffffffffffffffffffffff16815260200190815260200160002060009054906101000a900460ff16905092915050565b7f829b824e2329e205435d941c9f13baf578548505283d29261236d8e6596d4636611d6881613087565b8160006003600083815260200190815260200160002090508060020160009054906101000a900473ffffffffffffffffffffffffffffffffffffffff1673ffffffffffffffffffffffffffffffffffffffff163373ffffffffffffffffffffffffffffffffffffffff1614611e12576040517f08c379a0000000000000000000000000000000000000000000000000000000008152600401611e09906146a5565b60405180910390fd5b6000600360008681526020019081526020016000209050600115158160020160149054906101000a900460ff16151514611e81576040517f08c379a0000000000000000000000000000000000000000000000000000000008152600401611e7890614c93565b60405180910390fd5b600015158160020160159054906101000a900460ff16151514611ed9576040517f08c379a0000000000000000000000000000000000000000000000000000000008152600401611ed09061477d565b60405180910390fd5b60018160020160156101000a81548160ff0219169083151502179055505050505050565b7f829b824e2329e205435d941c9f13baf578548505283d29261236d8e6596d463681565b6000801b81565b600d5481565b7f829b824e2329e205435d941c9f13baf578548505283d29261236d8e6596d4636611f5881613087565b6000600360008481526020019081526020016000209050600015158160020160149054906101000a900460ff16151514611fc7576040517f08c379a0000000000000000000000000000000000000000000000000000000008152600401611fbe90614711565b60405180910390fd5b806006015434101561200e576040517f08c379a000000000000000000000000000000000000000000000000000000000815260040161200590614d25565b60405180910390fd5b6000151561201b846132ce565b15151461205d576040517f08c379a000000000000000000000000000000000000000000000000000000000815260040161205490614d91565b60405180910390fd5b6120877f36a5c4aaacb6b388bbd448bf11096b7dafc5652bcc9046084fd0e95b1fb0b2cc33611cd4565b156121f9576000151561209a33856115c6565b1515146120dc576040517f08c379a00000000000000000000000000000000000000000000000000000000081526004016120d390614e23565b60405180910390fd5b6001600460003373ffffffffffffffffffffffffffffffffffffffff1673ffffffffffffffffffffffffffffffffffffffff168152602001908152602001600020600101600085815260200190815260200160002060006101000a81548160ff021916908315150217905550600860003373ffffffffffffffffffffffffffffffffffffffff1673ffffffffffffffffffffffffffffffffffffffff168152602001908152602001600020839080600181540180825580915050600190039060005260206000200160009091909190915055346005600085815260200190815260200160002060008282546121d1919061457c565b9250508190555060018160050160008282546121ed919061457c565b925050819055506122dc565b6000600460003373ffffffffffffffffffffffffffffffffffffffff1673ffffffffffffffffffffffffffffffffffffffff1681526020019081526020016000209050600181600101600086815260200190815260200160002060006101000a81548160ff0219169083151502179055503460056000868152602001908152602001600020600082825461228d919061457c565b9250508190555060018260050160008282546122a9919061457c565b925050819055506122da7f36a5c4aaacb6b388bbd448bf11096b7dafc5652bcc9046084fd0e95b1fb0b2cc33613105565b505b505050565b7f36a5c4aaacb6b388bbd448bf11096b7dafc5652bcc9046084fd0e95b1fb0b2cc61230b81613087565b6000600660003373ffffffffffffffffffffffffffffffffffffffff1673ffffffffffffffffffffffffffffffffffffffff16815260200190815260200160002054905060008111612392576040517f08c379a000000000000000000000000000000000000000000000000000000000815260040161238990614e8f565b60405180910390fd5b6000600660003373ffffffffffffffffffffffffffffffffffffffff1673ffffffffffffffffffffffffffffffffffffffff1681526020019081526020016000208190555060003373ffffffffffffffffffffffffffffffffffffffff16826040516123fd90614a2a565b60006040518083038185875af1925050503d806000811461243a576040519150601f19603f3d011682016040523d82523d6000602084013e61243f565b606091505b5050905080612483576040517f08c379a000000000000000000000000000000000000000000000000000000000815260040161247a90614f21565b60405180910390fd5b505050565b7f36a5c4aaacb6b388bbd448bf11096b7dafc5652bcc9046084fd0e95b1fb0b2cc6124b281613087565b600182101580156124c4575060058211155b612503576040517f08c379a00000000000000000000000000000000000000000000000000000000081526004016124fa90614f8d565b60405180910390fd5b6001151561251133856115c6565b151514612553576040517f08c379a000000000000000000000000000000000000000000000000000000000815260040161254a9061501f565b60405180910390fd5b6000600360008581526020019081526020016000209050600115158160020160159054906101000a900460ff161515146125c2576040517f08c379a00000000000000000000000000000000000000000000000000000000081526004016125b99061487b565b60405180910390fd5b60001515600760003373ffffffffffffffffffffffffffffffffffffffff1673ffffffffffffffffffffffffffffffffffffffff168152602001908152602001600020600086815260200190815260200160002060009054906101000a900460ff16151514612666576040517f08c379a000000000000000000000000000000000000000000000000000000000815260040161265d906150b1565b60405180910390fd5b80600501546001826008015461267c919061457c565b11156126bd576040517f08c379a00000000000000000000000000000000000000000000000000000000081526004016126b490615143565b60405180910390fd5b60008160070154905060008260080154905060006001826126de919061457c565b60646126ea9190614936565b905060008160646126fb9190615163565b846127069190615197565b9050600082886127169190615197565b9050600060648284612728919061457c565b6127329190614936565b90506001876008016000828254612749919061457c565b925050819055508087600701819055506001600760003373ffffffffffffffffffffffffffffffffffffffff1673ffffffffffffffffffffffffffffffffffffffff16815260200190815260200160002060008c815260200190815260200160002060006101000a81548160ff02191690831515021790555050505050505050505050565b6000801b6127db81613087565b5050565b600f5481565b60606000600e5467ffffffffffffffff81111561280557612804613b48565b5b60405190808252806020026020018201604052801561283e57816020015b61282b6136cd565b8152602001906001900390816128235790505b50905060005b600e548110156129dd5760016000828152602001908152602001600020604051806101200160405290816000820154815260200160018201805461288790614601565b80601f01602080910402602001604051908101604052809291908181526020018280546128b390614601565b80156129005780601f106128d557610100808354040283529160200191612900565b820191906000526020600020905b8154815290600101906020018083116128e357829003601f168201915b505050505081526020016002820160009054906101000a900473ffffffffffffffffffffffffffffffffffffffff1673ffffffffffffffffffffffffffffffffffffffff1673ffffffffffffffffffffffffffffffffffffffff16815260200160038201548152602001600482015481526020016005820154815260200160068201548152602001600782015481526020016008820160009054906101000a900460ff1615151515815250508282815181106129bf576129be614c18565b5b602002602001018190525080806129d590614b3d565b915050612844565b508091505090565b6129ee8261100c565b6129f781613087565b612a0183836131ed565b505050565b60006001600d54612a17919061457c565b90506040518061016001604052808281526020018781526020018673ffffffffffffffffffffffffffffffffffffffff1681526020016000151581526020016000151581526020018581526020018481526020016000815260200183815260200160008152602001600081525060036000838152602001908152602001600020600082015181600001556020820151816001019080519060200190612abd9291906135d3565b5060408201518160020160006101000a81548173ffffffffffffffffffffffffffffffffffffffff021916908373ffffffffffffffffffffffffffffffffffffffff16021790555060608201518160020160146101000a81548160ff02191690831515021790555060808201518160020160156101000a81548160ff02191690831515021790555060a0820151816003015560c0820151816004015560e0820151816005015561010082015181600601556101208201518160070155610140820151816008015590505080600d81905550505050505050565b60076020528160005260406000206020528060005260406000206000915091509054906101000a900460ff1681565b60056020528060005260406000206000915090505481565b600b54341015612c22576040517f08c379a0000000000000000000000000000000000000000000000000000000008152600401612c199061523d565b60405180910390fd5b612c4c7f829b824e2329e205435d941c9f13baf578548505283d29261236d8e6596d463633611cd4565b15612c8c576040517f08c379a0000000000000000000000000000000000000000000000000000000008152600401612c83906152a9565b60405180910390fd5b612cb67f829b824e2329e205435d941c9f13baf578548505283d29261236d8e6596d463633613105565b6000600460003373ffffffffffffffffffffffffffffffffffffffff1673ffffffffffffffffffffffffffffffffffffffff1681526020019081526020016000209050338160000160006101000a81548173ffffffffffffffffffffffffffffffffffffffff021916908373ffffffffffffffffffffffffffffffffffffffff1602179055506001600c6000828254612d4f919061457c565b9250508190555050565b7f36a5c4aaacb6b388bbd448bf11096b7dafc5652bcc9046084fd0e95b1fb0b2cc81565b7f36a5c4aaacb6b388bbd448bf11096b7dafc5652bcc9046084fd0e95b1fb0b2cc612da781613087565b6000600360008481526020019081526020016000209050600015158160020160149054906101000a900460ff16151514612e16576040517f08c379a0000000000000000000000000000000000000000000000000000000008152600401612e0d90614711565b60405180910390fd5b6000600460003373ffffffffffffffffffffffffffffffffffffffff1673ffffffffffffffffffffffffffffffffffffffff168152602001908152602001600020905060011515612e6733866115c6565b151514612ea9576040517f08c379a0000000000000000000000000000000000000000000000000000000008152600401612ea09061501f565b60405180910390fd5b816006015460056000868152602001908152602001600020541015612f03576040517f08c379a0000000000000000000000000000000000000000000000000000000008152600401612efa9061533b565b60405180910390fd5b600081600101600086815260200190815260200160002060006101000a81548160ff02191690831515021790555081600601546005600086815260200190815260200160002054612f549190615163565b60056000868152602001908152602001600020819055508160060154600660003373ffffffffffffffffffffffffffffffffffffffff1673ffffffffffffffffffffffffffffffffffffffff16815260200190815260200160002054612fba919061457c565b600660003373ffffffffffffffffffffffffffffffffffffffff1673ffffffffffffffffffffffffffffffffffffffff1681526020019081526020016000208190555060018260050160008282546130129190615163565b9250508190555050505050565b6000600260008473ffffffffffffffffffffffffffffffffffffffff1673ffffffffffffffffffffffffffffffffffffffff168152602001908152602001600020600083815260200190815260200160002060009054906101000a900460ff16905092915050565b613098816130936131e5565b6132fa565b50565b60007f01ffc9a7000000000000000000000000000000000000000000000000000000007bffffffffffffffffffffffffffffffffffffffffffffffffffffffff1916827bffffffffffffffffffffffffffffffffffffffffffffffffffffffff1916149050919050565b61310f8282611cd4565b6131e157600160008084815260200190815260200160002060000160008373ffffffffffffffffffffffffffffffffffffffff1673ffffffffffffffffffffffffffffffffffffffff16815260200190815260200160002060006101000a81548160ff0219169083151502179055506131866131e5565b73ffffffffffffffffffffffffffffffffffffffff168173ffffffffffffffffffffffffffffffffffffffff16837f2f8788117e7eff1d82e926ec794901d17c78024a50270940304540a733656f0d60405160405180910390a45b5050565b600033905090565b6131f78282611cd4565b156132ca57600080600084815260200190815260200160002060000160008373ffffffffffffffffffffffffffffffffffffffff1673ffffffffffffffffffffffffffffffffffffffff16815260200190815260200160002060006101000a81548160ff02191690831515021790555061326f6131e5565b73ffffffffffffffffffffffffffffffffffffffff168173ffffffffffffffffffffffffffffffffffffffff16837ff6391f5c32d9c69d2a47ea670b442974b53935d1edc7fd64eb21e047a839171b60405160405180910390a45b5050565b600080600360008481526020019081526020016000209050806004015481600501541015915050919050565b6133048282611cd4565b613393576133298173ffffffffffffffffffffffffffffffffffffffff166014613397565b6133378360001c6020613397565b60405160200161334892919061542f565b6040516020818303038152906040526040517f08c379a000000000000000000000000000000000000000000000000000000000815260040161338a9190615469565b60405180910390fd5b5050565b6060600060028360026133aa9190615197565b6133b4919061457c565b67ffffffffffffffff8111156133cd576133cc613b48565b5b6040519080825280601f01601f1916602001820160405280156133ff5781602001600182028036833780820191505090505b5090507f30000000000000000000000000000000000000000000000000000000000000008160008151811061343757613436614c18565b5b60200101907effffffffffffffffffffffffffffffffffffffffffffffffffffffffffffff1916908160001a9053507f78000000000000000000000000000000000000000000000000000000000000008160018151811061349b5761349a614c18565b5b60200101907effffffffffffffffffffffffffffffffffffffffffffffffffffffffffffff1916908160001a905350600060018460026134db9190615197565b6134e5919061457c565b90505b6001811115613585577f3031323334353637383961626364656600000000000000000000000000000000600f86166010811061352757613526614c18565b5b1a60f81b82828151811061353e5761353d614c18565b5b60200101907effffffffffffffffffffffffffffffffffffffffffffffffffffffffffffff1916908160001a905350600485901c94508061357e9061548b565b90506134e8565b50600084146135c9576040517f08c379a00000000000000000000000000000000000000000000000000000000081526004016135c090615501565b60405180910390fd5b8091505092915050565b8280546135df90614601565b90600052602060002090601f0160209004810192826136015760008555613648565b82601f1061361a57805160ff1916838001178555613648565b82800160010185558215613648579182015b8281111561364757825182559160200191906001019061362c565b5b5090506136559190613731565b5090565b6040518061016001604052806000815260200160608152602001600073ffffffffffffffffffffffffffffffffffffffff1681526020016000151581526020016000151581526020016000815260200160008152602001600081526020016000815260200160008152602001600081525090565b6040518061012001604052806000815260200160608152602001600073ffffffffffffffffffffffffffffffffffffffff16815260200160008152602001600081526020016000815260200160008152602001600081526020016000151581525090565b5b8082111561374a576000816000905550600101613732565b5090565b6000604051905090565b600080fd5b600080fd5b6000819050919050565b61377581613762565b811461378057600080fd5b50565b6000813590506137928161376c565b92915050565b6000602082840312156137ae576137ad613758565b5b60006137bc84828501613783565b91505092915050565b6137ce81613762565b82525050565b600081519050919050565b600082825260208201905092915050565b60005b8381101561380e5780820151818401526020810190506137f3565b8381111561381d576000848401525b50505050565b6000601f19601f8301169050919050565b600061383f826137d4565b61384981856137df565b93506138598185602086016137f0565b61386281613823565b840191505092915050565b600073ffffffffffffffffffffffffffffffffffffffff82169050919050565b60006138988261386d565b9050919050565b6138a88161388d565b82525050565b60008115159050919050565b6138c3816138ae565b82525050565b6000610120820190506138df600083018c6137c5565b81810360208301526138f1818b613834565b9050613900604083018a61389f565b61390d60608301896137c5565b61391a60808301886137c5565b61392760a08301876137c5565b61393460c08301866137c5565b61394160e08301856137c5565b61394f6101008301846138ba565b9a9950505050505050505050565b60007fffffffff0000000000000000000000000000000000000000000000000000000082169050919050565b6139928161395d565b811461399d57600080fd5b50565b6000813590506139af81613989565b92915050565b6000602082840312156139cb576139ca613758565b5b60006139d9848285016139a0565b91505092915050565b60006020820190506139f760008301846138ba565b92915050565b613a068161388d565b8114613a1157600080fd5b50565b600081359050613a23816139fd565b92915050565b600060208284031215613a3f57613a3e613758565b5b6000613a4d84828501613a14565b91505092915050565b6000602082019050613a6b60008301846137c5565b92915050565b6000819050919050565b613a8481613a71565b8114613a8f57600080fd5b50565b600081359050613aa181613a7b565b92915050565b600060208284031215613abd57613abc613758565b5b6000613acb84828501613a92565b91505092915050565b613add81613a71565b82525050565b6000602082019050613af86000830184613ad4565b92915050565b60008060408385031215613b1557613b14613758565b5b6000613b2385828601613a92565b9250506020613b3485828601613a14565b9150509250929050565b600080fd5b600080fd5b7f4e487b7100000000000000000000000000000000000000000000000000000000600052604160045260246000fd5b613b8082613823565b810181811067ffffffffffffffff82111715613b9f57613b9e613b48565b5b80604052505050565b6000613bb261374e565b9050613bbe8282613b77565b919050565b600067ffffffffffffffff821115613bde57613bdd613b48565b5b613be782613823565b9050602081019050919050565b82818337600083830152505050565b6000613c16613c1184613bc3565b613ba8565b905082815260208101848484011115613c3257613c31613b43565b5b613c3d848285613bf4565b509392505050565b600082601f830112613c5a57613c59613b3e565b5b8135613c6a848260208601613c03565b91505092915050565b600080600080600060a08688031215613c8f57613c8e613758565b5b600086013567ffffffffffffffff811115613cad57613cac61375d565b5b613cb988828901613c45565b955050602086013567ffffffffffffffff811115613cda57613cd961375d565b5b613ce688828901613c45565b9450506040613cf788828901613783565b9350506060613d0888828901613783565b9250506080613d1988828901613783565b9150509295509295909350565b60008060408385031215613d3d57613d3c613758565b5b6000613d4b85828601613a14565b9250506020613d5c85828601613783565b9150509250929050565b613d6f81613762565b82525050565b600082825260208201905092915050565b6000613d91826137d4565b613d9b8185613d75565b9350613dab8185602086016137f0565b613db481613823565b840191505092915050565b6000613dca8261386d565b9050919050565b613dda81613dbf565b82525050565b613de9816138ae565b82525050565b600061016083016000830151613e086000860182613d66565b5060208301518482036020860152613e208282613d86565b9150506040830151613e356040860182613dd1565b506060830151613e486060860182613de0565b506080830151613e5b6080860182613de0565b5060a0830151613e6e60a0860182613d66565b5060c0830151613e8160c0860182613d66565b5060e0830151613e9460e0860182613d66565b50610100830151613ea9610100860182613d66565b50610120830151613ebe610120860182613d66565b50610140830151613ed3610140860182613d66565b508091505092915050565b60006020820190508181036000830152613ef88184613def565b905092915050565b600081519050919050565b600082825260208201905092915050565b6000819050602082019050919050565b600061016083016000830151613f456000860182613d66565b5060208301518482036020860152613f5d8282613d86565b9150506040830151613f726040860182613dd1565b506060830151613f856060860182613de0565b506080830151613f986080860182613de0565b5060a0830151613fab60a0860182613d66565b5060c0830151613fbe60c0860182613d66565b5060e0830151613fd160e0860182613d66565b50610100830151613fe6610100860182613d66565b50610120830151613ffb610120860182613d66565b50610140830151614010610140860182613d66565b508091505092915050565b60006140278383613f2c565b905092915050565b6000602082019050919050565b600061404782613f00565b6140518185613f0b565b93508360208202850161406385613f1c565b8060005b8581101561409f5784840389528151614080858261401b565b945061408b8361402f565b925060208a01995050600181019050614067565b50829750879550505050505092915050565b600060208201905081810360008301526140cb818461403c565b905092915050565b6140dc81613dbf565b82525050565b6000610160820190506140f8600083018e6137c5565b818103602083015261410a818d613834565b9050614119604083018c6140d3565b614126606083018b6138ba565b614133608083018a6138ba565b61414060a08301896137c5565b61414d60c08301886137c5565b61415a60e08301876137c5565b6141686101008301866137c5565b6141766101208301856137c5565b6141846101408301846137c5565b9c9b505050505050505050505050565b600080604083850312156141ab576141aa613758565b5b60006141b985828601613783565b92505060206141ca85828601613783565b9150509250929050565b600081519050919050565b600082825260208201905092915050565b6000819050602082019050919050565b6142098161388d565b82525050565b6000610120830160008301516142286000860182613d66565b50602083015184820360208601526142408282613d86565b91505060408301516142556040860182614200565b5060608301516142686060860182613d66565b50608083015161427b6080860182613d66565b5060a083015161428e60a0860182613d66565b5060c08301516142a160c0860182613d66565b5060e08301516142b460e0860182613d66565b506101008301516142c9610100860182613de0565b508091505092915050565b60006142e0838361420f565b905092915050565b6000602082019050919050565b6000614300826141d4565b61430a81856141df565b93508360208202850161431c856141f0565b8060005b85811015614358578484038952815161433985826142d4565b9450614344836142e8565b925060208a01995050600181019050614320565b50829750879550505050505092915050565b6000602082019050818103600083015261438481846142f5565b905092915050565b61439581613dbf565b81146143a057600080fd5b50565b6000813590506143b28161438c565b92915050565b600080600080600060a086880312156143d4576143d3613758565b5b600086013567ffffffffffffffff8111156143f2576143f161375d565b5b6143fe88828901613c45565b955050602061440f888289016143a3565b945050604061442088828901613783565b935050606061443188828901613783565b925050608061444288828901613783565b9150509295509295909350565b7f557365722068617320616c726561647920766f74656420666f7220746869732060008201527f70726f706f73616c000000000000000000000000000000000000000000000000602082015250565b60006144ab6028836137df565b91506144b68261444f565b604082019050919050565b600060208201905081810360008301526144da8161449e565b9050919050565b7f566f74696e6720706572696f642068617320656e646564000000000000000000600082015250565b60006145176017836137df565b9150614522826144e1565b602082019050919050565b600060208201905081810360008301526145468161450a565b9050919050565b7f4e487b7100000000000000000000000000000000000000000000000000000000600052601160045260246000fd5b600061458782613762565b915061459283613762565b9250827fffffffffffffffffffffffffffffffffffffffffffffffffffffffffffffffff038211156145c7576145c661454d565b5b828201905092915050565b7f4e487b7100000000000000000000000000000000000000000000000000000000600052602260045260246000fd5b6000600282049050600182168061461957607f821691505b6020821081141561462d5761462c6145d2565b5b50919050565b7f4f6e6c792074686520696e7374727563746f722063616e20706572666f726d2060008201527f7468697320616374697669747900000000000000000000000000000000000000602082015250565b600061468f602d836137df565b915061469a82614633565b604082019050919050565b600060208201905081810360008301526146be81614682565b9050919050565b7f5468697320636c6173732068617320616c726561647920737461727465640000600082015250565b60006146fb601e836137df565b9150614706826146c5565b602082019050919050565b6000602082019050818103600083015261472a816146ee565b9050919050565b7f5468697320636c6173732068617320616c726561647920656e64656400000000600082015250565b6000614767601c836137df565b915061477282614731565b602082019050919050565b600060208201905081810360008301526147968161475a565b9050919050565b7f4e6f7420656e6f7567682073747564656e747320656e726f6c6c656420746f2060008201527f73746172742074686520636c6173730000000000000000000000000000000000602082015250565b60006147f9602f836137df565b91506148048261479d565b604082019050919050565b60006020820190508181036000830152614828816147ec565b9050919050565b7f436c61737320686173206e6f7420656e64656400000000000000000000000000600082015250565b60006148656013836137df565b91506148708261482f565b602082019050919050565b6000602082019050818103600083015261489481614858565b9050919050565b7f436c61737320686173206e6f2062616c616e6365000000000000000000000000600082015250565b60006148d16014836137df565b91506148dc8261489b565b602082019050919050565b60006020820190508181036000830152614900816148c4565b9050919050565b7f4e487b7100000000000000000000000000000000000000000000000000000000600052601260045260246000fd5b600061494182613762565b915061494c83613762565b92508261495c5761495b614907565b5b828204905092915050565b7f4e6f7420656e6f7567682073747564656e74732068617665207261746564207460008201527f686520636c617373000000000000000000000000000000000000000000000000602082015250565b60006149c36028836137df565b91506149ce82614967565b604082019050919050565b600060208201905081810360008301526149f2816149b6565b9050919050565b600081905092915050565b50565b6000614a146000836149f9565b9150614a1f82614a04565b600082019050919050565b6000614a3582614a07565b9150819050919050565b7f676574506169643a20756e61626c6520746f2073656e642076616c75652c207260008201527f6563697069656e74206d61792068617665207265766572746564000000000000602082015250565b6000614a9b603a836137df565b9150614aa682614a3f565b604082019050919050565b60006020820190508181036000830152614aca81614a8e565b9050919050565b7f43616c6c6572206973206e6f742061206d656d62657221000000000000000000600082015250565b6000614b076017836137df565b9150614b1282614ad1565b602082019050919050565b60006020820190508181036000830152614b3681614afa565b9050919050565b6000614b4882613762565b91507fffffffffffffffffffffffffffffffffffffffffffffffffffffffffffffffff821415614b7b57614b7a61454d565b5b600182019050919050565b7f416363657373436f6e74726f6c3a2063616e206f6e6c792072656e6f756e636560008201527f20726f6c657320666f722073656c660000000000000000000000000000000000602082015250565b6000614be2602f836137df565b9150614bed82614b86565b604082019050919050565b60006020820190508181036000830152614c1181614bd5565b9050919050565b7f4e487b7100000000000000000000000000000000000000000000000000000000600052603260045260246000fd5b7f5468697320636c61737320686173206e6f742073746172746564000000000000600082015250565b6000614c7d601a836137df565b9150614c8882614c47565b602082019050919050565b60006020820190508181036000830152614cac81614c70565b9050919050565b7f4e6f7420656e6f7567682045544820746f206a6f696e207468697320636c617360008201527f7300000000000000000000000000000000000000000000000000000000000000602082015250565b6000614d0f6021836137df565b9150614d1a82614cb3565b604082019050919050565b60006020820190508181036000830152614d3e81614d02565b9050919050565b7f436c6173732069732066756c6c00000000000000000000000000000000000000600082015250565b6000614d7b600d836137df565b9150614d8682614d45565b602082019050919050565b60006020820190508181036000830152614daa81614d6e565b9050919050565b7f596f752061726520616c726561647920656e726f6c6c656420696e207468697360008201527f20636c6173730000000000000000000000000000000000000000000000000000602082015250565b6000614e0d6026836137df565b9150614e1882614db1565b604082019050919050565b60006020820190508181036000830152614e3c81614e00565b9050919050565b7f53747564656e7420686173206e6f2062616c616e636500000000000000000000600082015250565b6000614e796016836137df565b9150614e8482614e43565b602082019050919050565b60006020820190508181036000830152614ea881614e6c565b9050919050565b7f476574526566756e643a20756e61626c6520746f2073656e642076616c75652c60008201527f20726563697069656e74206d6179206861766520726576657274656400000000602082015250565b6000614f0b603c836137df565b9150614f1682614eaf565b604082019050919050565b60006020820190508181036000830152614f3a81614efe565b9050919050565b7f53636f7265206d757374206265206265747765656e203120616e642035000000600082015250565b6000614f77601d836137df565b9150614f8282614f41565b602082019050919050565b60006020820190508181036000830152614fa681614f6a565b9050919050565b7f55736572206973206e6f7420656e726f6c6c656420696e207468697320636c6160008201527f7373000000000000000000000000000000000000000000000000000000000000602082015250565b60006150096022836137df565b915061501482614fad565b604082019050919050565b6000602082019050818103600083015261503881614ffc565b9050919050565b7f43616c6c657220686173207261746564207468697320636c617373206265666f60008201527f7265000000000000000000000000000000000000000000000000000000000000602082015250565b600061509b6022836137df565b91506150a68261503f565b604082019050919050565b600060208201905081810360008301526150ca8161508e565b9050919050565b7f416c6c2073747564656e747320686176652072617465642074686520636c617360008201527f7300000000000000000000000000000000000000000000000000000000000000602082015250565b600061512d6021836137df565b9150615138826150d1565b604082019050919050565b6000602082019050818103600083015261515c81615120565b9050919050565b600061516e82613762565b915061517983613762565b92508282101561518c5761518b61454d565b5b828203905092915050565b60006151a282613762565b91506151ad83613762565b9250817fffffffffffffffffffffffffffffffffffffffffffffffffffffffffffffffff04831182151516156151e6576151e561454d565b5b828202905092915050565b7f4e6f7420656e6f7567682045544820746f206a6f696e207468652044414f0000600082015250565b6000615227601e836137df565b9150615232826151f1565b602082019050919050565b600060208201905081810360008301526152568161521a565b9050919050565b7f43616c6c657220697320616c72656164792061206d656d626572210000000000600082015250565b6000615293601b836137df565b915061529e8261525d565b602082019050919050565b600060208201905081810360008301526152c281615286565b9050919050565b7f436c61737320646f6573206e6f74206861766520656e6f7567682062616c616e60008201527f6365000000000000000000000000000000000000000000000000000000000000602082015250565b60006153256022836137df565b9150615330826152c9565b604082019050919050565b6000602082019050818103600083015261535481615318565b9050919050565b600081905092915050565b7f416363657373436f6e74726f6c3a206163636f756e7420000000000000000000600082015250565b600061539c60178361535b565b91506153a782615366565b601782019050919050565b60006153bd826137d4565b6153c7818561535b565b93506153d78185602086016137f0565b80840191505092915050565b7f206973206d697373696e6720726f6c6520000000000000000000000000000000600082015250565b600061541960118361535b565b9150615424826153e3565b601182019050919050565b600061543a8261538f565b915061544682856153b2565b91506154518261540c565b915061545d82846153b2565b91508190509392505050565b600060208201905081810360008301526154838184613834565b905092915050565b600061549682613762565b915060008214156154aa576154a961454d565b5b600182039050919050565b7f537472696e67733a20686578206c656e67746820696e73756666696369656e74600082015250565b60006154eb6020836137df565b91506154f6826154b5565b602082019050919050565b6000602082019050818103600083015261551a816154de565b905091905056fea264697066735822122080a74d2b0065fef467934eac1f3c5d9f322dccd7fe40b064e8849b018642b82d64736f6c63430008090033",
  "linkReferences": {},
  "deployedLinkReferences": {}
}